{
  "_format": "hh-sol-artifact-1",
  "contractName": "BotaniLedger",
  "sourceName": "contracts/BotaniLedger.sol",
  "abi": [
    {
      "inputs": [],
      "stateMutability": "nonpayable",
      "type": "constructor"
    },
    {
      "anonymous": false,
      "inputs": [
        {
          "indexed": true,
          "internalType": "string",
          "name": "batchId",
          "type": "string"
        },
        {
          "indexed": false,
          "internalType": "uint256",
          "name": "score",
          "type": "uint256"
        },
        {
          "indexed": false,
          "internalType": "string",
          "name": "zone",
          "type": "string"
        }
      ],
      "name": "AdulterationDetected",
      "type": "event"
    },
    {
      "anonymous": false,
      "inputs": [
        {
          "indexed": true,
          "internalType": "string",
          "name": "batchId",
          "type": "string"
        },
        {
          "indexed": false,
          "internalType": "string",
          "name": "reason",
          "type": "string"
        }
      ],
      "name": "BatchRecalled",
      "type": "event"
    },
    {
      "anonymous": false,
      "inputs": [
        {
          "indexed": true,
          "internalType": "string",
          "name": "batchId",
          "type": "string"
        },
        {
          "indexed": true,
          "internalType": "address",
          "name": "farmerId",
          "type": "address"
        },
        {
          "indexed": false,
          "internalType": "string",
          "name": "herbSpecies",
          "type": "string"
        }
      ],
      "name": "BatchRegistered",
      "type": "event"
    },
    {
      "anonymous": false,
      "inputs": [
        {
          "indexed": true,
          "internalType": "string",
          "name": "batchId",
          "type": "string"
        }
      ],
      "name": "CustodyTransferComplete",
      "type": "event"
    },
    {
      "anonymous": false,
      "inputs": [
        {
          "indexed": true,
          "internalType": "string",
          "name": "batchId",
          "type": "string"
        },
        {
          "indexed": false,
          "internalType": "bool",
          "name": "passed",
          "type": "bool"
        }
      ],
      "name": "LabResultRecorded",
      "type": "event"
    },
    {
      "anonymous": false,
      "inputs": [
        {
          "indexed": true,
          "internalType": "string",
          "name": "productBatchId",
          "type": "string"
        },
        {
          "indexed": false,
          "internalType": "uint256",
          "name": "linkedCount",
          "type": "uint256"
        }
      ],
      "name": "ProductBatchCreated",
      "type": "event"
    },
    {
      "anonymous": false,
      "inputs": [
        {
          "indexed": true,
          "internalType": "bytes32",
          "name": "role",
          "type": "bytes32"
        },
        {
          "indexed": true,
          "internalType": "address",
          "name": "account",
          "type": "address"
        }
      ],
      "name": "RoleGranted",
      "type": "event"
    },
    {
      "anonymous": false,
      "inputs": [
        {
          "indexed": true,
          "internalType": "bytes32",
          "name": "role",
          "type": "bytes32"
        },
        {
          "indexed": true,
          "internalType": "address",
          "name": "account",
          "type": "address"
        }
      ],
      "name": "RoleRevoked",
      "type": "event"
    },
    {
      "inputs": [],
      "name": "ADMIN_ROLE",
      "outputs": [
        {
          "internalType": "bytes32",
          "name": "",
          "type": "bytes32"
        }
      ],
      "stateMutability": "view",
      "type": "function"
    },
    {
      "inputs": [],
      "name": "FARMER_ROLE",
      "outputs": [
        {
          "internalType": "bytes32",
          "name": "",
          "type": "bytes32"
        }
      ],
      "stateMutability": "view",
      "type": "function"
    },
    {
      "inputs": [],
      "name": "LAB_ROLE",
      "outputs": [
        {
          "internalType": "bytes32",
          "name": "",
          "type": "bytes32"
        }
      ],
      "stateMutability": "view",
      "type": "function"
    },
    {
      "inputs": [],
      "name": "MANUFACTURER_ROLE",
      "outputs": [
        {
          "internalType": "bytes32",
          "name": "",
          "type": "bytes32"
        }
      ],
      "stateMutability": "view",
      "type": "function"
    },
    {
      "inputs": [
        {
          "internalType": "string",
          "name": "batchId",
          "type": "string"
        },
        {
          "internalType": "string",
          "name": "condition",
          "type": "string"
        }
      ],
      "name": "confirmReceipt",
      "outputs": [],
      "stateMutability": "nonpayable",
      "type": "function"
    },
    {
      "inputs": [
        {
          "internalType": "string",
          "name": "productBatchId",
          "type": "string"
        },
        {
          "internalType": "string",
          "name": "productName",
          "type": "string"
        },
        {
          "internalType": "string",
          "name": "productType",
          "type": "string"
        },
        {
          "internalType": "string[]",
          "name": "linkedHerbBatches",
          "type": "string[]"
        },
        {
          "internalType": "string",
          "name": "manufacturingDate",
          "type": "string"
        },
        {
          "internalType": "string",
          "name": "expiryDate",
          "type": "string"
        },
        {
          "internalType": "uint256",
          "name": "quantity",
          "type": "uint256"
        },
        {
          "internalType": "string",
          "name": "qrUrl",
          "type": "string"
        }
      ],
      "name": "createProductBatch",
      "outputs": [],
      "stateMutability": "nonpayable",
      "type": "function"
    },
    {
      "inputs": [
        {
          "internalType": "string",
          "name": "batchId",
          "type": "string"
        },
        {
          "internalType": "string",
          "name": "estimatedArrival",
          "type": "string"
        },
        {
          "internalType": "string",
          "name": "transportMode",
          "type": "string"
        }
      ],
      "name": "dispatchBatch",
      "outputs": [],
      "stateMutability": "nonpayable",
      "type": "function"
    },
    {
      "inputs": [
        {
          "internalType": "string",
          "name": "batchId",
          "type": "string"
        }
      ],
      "name": "getHerbBatch",
      "outputs": [
        {
          "components": [
            {
              "internalType": "string",
              "name": "batchId",
              "type": "string"
            },
            {
              "internalType": "address",
              "name": "farmerId",
              "type": "address"
            },
            {
              "internalType": "string",
              "name": "herbSpecies",
              "type": "string"
            },
            {
              "internalType": "uint256",
              "name": "quantity",
              "type": "uint256"
            },
            {
              "internalType": "string",
              "name": "collectionDate",
              "type": "string"
            },
            {
              "internalType": "string",
              "name": "location",
              "type": "string"
            },
            {
              "internalType": "string",
              "name": "ipfsFolderCid",
              "type": "string"
            },
            {
              "internalType": "string",
              "name": "photoCids",
              "type": "string"
            },
            {
              "components": [
                {
                  "internalType": "bool",
                  "name": "speciesMatch",
                  "type": "bool"
                },
                {
                  "internalType": "uint256",
                  "name": "confidence",
                  "type": "uint256"
                },
                {
                  "internalType": "uint256",
                  "name": "timestamp",
                  "type": "uint256"
                }
              ],
              "internalType": "struct BotaniLedger.AIVerification",
              "name": "aiVerification",
              "type": "tuple"
            },
            {
              "internalType": "enum BotaniLedger.BatchStatus",
              "name": "status",
              "type": "uint8"
            },
            {
              "components": [
                {
                  "internalType": "bool",
                  "name": "passed",
                  "type": "bool"
                },
                {
                  "internalType": "string",
                  "name": "reportCid",
                  "type": "string"
                },
                {
                  "internalType": "string",
                  "name": "reportSummary",
                  "type": "string"
                },
                {
                  "internalType": "address",
                  "name": "certifiedBy",
                  "type": "address"
                },
                {
                  "internalType": "uint256",
                  "name": "certifiedAt",
                  "type": "uint256"
                },
                {
                  "internalType": "uint256",
                  "name": "validUntil",
                  "type": "uint256"
                }
              ],
              "internalType": "struct BotaniLedger.LabResult",
              "name": "labResult",
              "type": "tuple"
            },
            {
              "components": [
                {
                  "internalType": "address",
                  "name": "dispatchedBy",
                  "type": "address"
                },
                {
                  "internalType": "uint256",
                  "name": "dispatchedAt",
                  "type": "uint256"
                },
                {
                  "internalType": "string",
                  "name": "estimatedArrival",
                  "type": "string"
                },
                {
                  "internalType": "string",
                  "name": "transportMode",
                  "type": "string"
                }
              ],
              "internalType": "struct BotaniLedger.DispatchInfo",
              "name": "dispatchInfo",
              "type": "tuple"
            },
            {
              "components": [
                {
                  "internalType": "address",
                  "name": "receivedBy",
                  "type": "address"
                },
                {
                  "internalType": "uint256",
                  "name": "receivedAt",
                  "type": "uint256"
                },
                {
                  "internalType": "string",
                  "name": "condition",
                  "type": "string"
                }
              ],
              "internalType": "struct BotaniLedger.ReceiptInfo",
              "name": "receiptInfo",
              "type": "tuple"
            },
            {
              "internalType": "bool",
              "name": "custodyTransferComplete",
              "type": "bool"
            },
            {
              "components": [
                {
                  "internalType": "uint256",
                  "name": "overallScore",
                  "type": "uint256"
                },
                {
                  "internalType": "string",
                  "name": "zone",
                  "type": "string"
                },
                {
                  "internalType": "address",
                  "name": "verifiedBy",
                  "type": "address"
                },
                {
                  "internalType": "uint256",
                  "name": "verifiedAt",
                  "type": "uint256"
                },
                {
                  "internalType": "string",
                  "name": "arrivalPhotoCids",
                  "type": "string"
                }
              ],
              "internalType": "struct BotaniLedger.SimilarityVerification",
              "name": "similarityVerification",
              "type": "tuple"
            },
            {
              "internalType": "string",
              "name": "recallReason",
              "type": "string"
            },
            {
              "internalType": "uint256",
              "name": "createdAt",
              "type": "uint256"
            },
            {
              "internalType": "uint256",
              "name": "updatedAt",
              "type": "uint256"
            }
          ],
          "internalType": "struct BotaniLedger.HerbBatch",
          "name": "",
          "type": "tuple"
        }
      ],
      "stateMutability": "view",
      "type": "function"
    },
    {
      "inputs": [
        {
          "internalType": "string",
          "name": "productBatchId",
          "type": "string"
        }
      ],
      "name": "getProductBatch",
      "outputs": [
        {
          "components": [
            {
              "internalType": "string",
              "name": "productBatchId",
              "type": "string"
            },
            {
              "internalType": "address",
              "name": "manufacturerId",
              "type": "address"
            },
            {
              "internalType": "string",
              "name": "productName",
              "type": "string"
            },
            {
              "internalType": "string",
              "name": "productType",
              "type": "string"
            },
            {
              "internalType": "string[]",
              "name": "linkedHerbBatches",
              "type": "string[]"
            },
            {
              "internalType": "string",
              "name": "manufacturingDate",
              "type": "string"
            },
            {
              "internalType": "string",
              "name": "expiryDate",
              "type": "string"
            },
            {
              "internalType": "uint256",
              "name": "quantity",
              "type": "uint256"
            },
            {
              "internalType": "string",
              "name": "qrUrl",
              "type": "string"
            },
            {
              "internalType": "bool",
              "name": "integrityVerified",
              "type": "bool"
            },
            {
              "internalType": "bool",
              "name": "isActive",
              "type": "bool"
            },
            {
              "internalType": "uint256",
              "name": "createdAt",
              "type": "uint256"
            }
          ],
          "internalType": "struct BotaniLedger.ProductBatch",
          "name": "",
          "type": "tuple"
        }
      ],
      "stateMutability": "view",
      "type": "function"
    },
    {
      "inputs": [
        {
          "internalType": "bytes32",
          "name": "role",
          "type": "bytes32"
        },
        {
          "internalType": "address",
          "name": "account",
          "type": "address"
        }
      ],
      "name": "grantRole",
      "outputs": [],
      "stateMutability": "nonpayable",
      "type": "function"
    },
    {
      "inputs": [
        {
          "internalType": "string",
          "name": "",
          "type": "string"
        }
      ],
      "name": "herbBatchExists",
      "outputs": [
        {
          "internalType": "bool",
          "name": "",
          "type": "bool"
        }
      ],
      "stateMutability": "view",
      "type": "function"
    },
    {
      "inputs": [
        {
          "internalType": "string",
          "name": "",
          "type": "string"
        }
      ],
      "name": "productBatchExists",
      "outputs": [
        {
          "internalType": "bool",
          "name": "",
          "type": "bool"
        }
      ],
      "stateMutability": "view",
      "type": "function"
    },
    {
      "inputs": [
        {
          "internalType": "string",
          "name": "batchId",
          "type": "string"
        },
        {
          "internalType": "string",
          "name": "reason",
          "type": "string"
        }
      ],
      "name": "recallBatch",
      "outputs": [],
      "stateMutability": "nonpayable",
      "type": "function"
    },
    {
      "inputs": [
        {
          "internalType": "string",
          "name": "batchId",
          "type": "string"
        },
        {
          "internalType": "bool",
          "name": "passed",
          "type": "bool"
        },
        {
          "internalType": "string",
          "name": "reportCid",
          "type": "string"
        },
        {
          "internalType": "string",
          "name": "reportSummary",
          "type": "string"
        }
      ],
      "name": "recordLabResult",
      "outputs": [],
      "stateMutability": "nonpayable",
      "type": "function"
    },
    {
      "inputs": [
        {
          "internalType": "string",
          "name": "batchId",
          "type": "string"
        },
        {
          "internalType": "uint256",
          "name": "overallScore",
          "type": "uint256"
        },
        {
          "internalType": "string",
          "name": "zone",
          "type": "string"
        },
        {
          "internalType": "string",
          "name": "arrivalPhotoCids",
          "type": "string"
        }
      ],
      "name": "recordSimilarityResult",
      "outputs": [],
      "stateMutability": "nonpayable",
      "type": "function"
    },
    {
      "inputs": [
        {
          "internalType": "string",
          "name": "batchId",
          "type": "string"
        },
        {
          "internalType": "string",
          "name": "herbSpecies",
          "type": "string"
        },
        {
          "internalType": "uint256",
          "name": "quantity",
          "type": "uint256"
        },
        {
          "internalType": "string",
          "name": "collectionDate",
          "type": "string"
        },
        {
          "internalType": "string",
          "name": "location",
          "type": "string"
        },
        {
          "internalType": "string",
          "name": "ipfsFolderCid",
          "type": "string"
        },
        {
          "internalType": "string",
          "name": "photoCids",
          "type": "string"
        },
        {
          "internalType": "bool",
          "name": "speciesMatch",
          "type": "bool"
        },
        {
          "internalType": "uint256",
          "name": "aiConfidence",
          "type": "uint256"
        }
      ],
      "name": "registerBatch",
      "outputs": [],
      "stateMutability": "nonpayable",
      "type": "function"
    },
    {
      "inputs": [
        {
          "internalType": "bytes32",
          "name": "role",
          "type": "bytes32"
        },
        {
          "internalType": "address",
          "name": "account",
          "type": "address"
        }
      ],
      "name": "revokeRole",
      "outputs": [],
      "stateMutability": "nonpayable",
      "type": "function"
    },
    {
      "inputs": [
        {
          "internalType": "string",
          "name": "batchId",
          "type": "string"
        }
      ],
      "name": "startLabTesting",
      "outputs": [],
      "stateMutability": "nonpayable",
      "type": "function"
    }
  ],
  "bytecode": "0x60806040523480156200001157600080fd5b506200003e7fa49807205ce4d355092ef5a8a18f56e8913cf4a201fbe287825b095693c217753362000044565b6200009d565b6000828152602081815260408083206001600160a01b0385168085529252808320805460ff1916600117905551909184917f2ae6a113c0ed5b78a53413ffbb7679881f11145ccfba4fb92e863dfcd5a1d2f39190a35050565b61379180620000ad6000396000f3fe608060405234801561001057600080fd5b50600436106101165760003560e01c8063bca7759a116100a2578063d547741f11610071578063d547741f14610296578063df02670a146102a9578063e205bf8f146102bc578063efdf77ac146102cf578063f3943970146102fd57600080fd5b8063bca7759a14610229578063bd3070c61461023c578063c81e5ffe14610263578063ca18b7da1461027657600080fd5b806371b74ab2116100e957806371b74ab21461019957806375b238fc146101ac57806380377fb2146101e15780638bce12a3146101f4578063965288b01461021457600080fd5b8063123ecac81461011b57806326e213fa146101305780632f2ff15d146101735780634b7446dd14610186575b600080fd5b61012e610129366004612a25565b610324565b005b61015e61013e366004612a89565b805160208183018101805160048252928201919093012091525460ff1681565b60405190151581526020015b60405180910390f35b61012e610181366004612ac6565b6104a1565b61012e610194366004612ba1565b610520565b61012e6101a7366004612a89565b6109c2565b6101d37fa49807205ce4d355092ef5a8a18f56e8913cf4a201fbe287825b095693c2177581565b60405190815260200161016a565b61012e6101ef366004612cc6565b610b16565b610207610202366004612a89565b610d3d565b60405161016a9190612df3565b6101d360008051602061371c83398151915281565b61012e610237366004612f2d565b6112dd565b6101d37f373fdac787be5578b9a3d4a9ca3e3ae1e632ab5ee4750e92f65223238a15b2ef81565b61012e610271366004612fd4565b611522565b610289610284366004612a89565b61176e565b60405161016a919061326c565b61012e6102a4366004612ac6565b6121a8565b61012e6102b7366004613458565b61226f565b61012e6102ca366004612a25565b6124f3565b61015e6102dd366004612a89565b805160208183018101805160038252928201919093012091525460ff1681565b6101d37f7c6181838a71a779e445600d4c6ecbe16bacf2b3c5bda69c29fada66d1b645d181565b33600090815260008051602061373c833981519152602052604090205460ff168061037d57503360009081527ff49c6599d59825218936d81b3af67bad9cf74ffb3255b811063828e9161373a8602052604090205460ff165b6103c75760405162461bcd60e51b8152602060048201526016602482015275155b985d5d1a1bdc9a5e9959081d1bc81c9958d85b1b60521b60448201526064015b60405180910390fd5b6003826040516103d791906134b6565b9081526040519081900360200190205460ff166104065760405162461bcd60e51b81526004016103be906134d2565b600060018360405161041891906134b6565b908152604051908190036020019020600b81018054600960ff199091161790559050601f81016104488382613588565b5042602182015560405161045d9084906134b6565b60405180910390207faccbcca2781383a7c9aff56f00c185ca721fc1e34bf89ddd4d18c757d78e7628836040516104949190613648565b60405180910390a2505050565b3360009081527f7d7ffb7a348e1c6a02869081a26547b49160dd3df72d1d75a570eb9b698292ec60205260409020547fa49807205ce4d355092ef5a8a18f56e8913cf4a201fbe287825b095693c217759060ff166105115760405162461bcd60e51b81526004016103be90613662565b61051b83836126be565b505050565b33600090815260008051602061373c833981519152602052604090205460008051602061371c8339815191529060ff1661056c5760405162461bcd60e51b81526004016103be90613662565b60048960405161057c91906134b6565b9081526040519081900360200190205460ff16156105dc5760405162461bcd60e51b815260206004820152601c60248201527f50726f6475637420626174636820616c7265616479206578697374730000000060448201526064016103be565b60008651116106375760405162461bcd60e51b815260206004820152602160248201527f4d757374206c696e6b206174206c65617374206f6e65206865726220626174636044820152600d60fb1b60648201526084016103be565b60005b8651811015610878576000878281518110610657576106576136a4565b6020026020010151905060038160405161067191906134b6565b9081526040519081900360200190205460ff166106d05760405162461bcd60e51b815260206004820152601f60248201527f4c696e6b65642048657262426174636820646f6573206e6f742065786973740060448201526064016103be565b60006001826040516106e291906134b6565b908152604051908190036020019020600c81015490915060ff166107485760405162461bcd60e51b815260206004820152601f60248201527f4c696e6b6564206261746368206661696c6564206c61622074657374696e670060448201526064016103be565b601181015442111561079c5760405162461bcd60e51b815260206004820152601760248201527f4c6162206365727469666963617465206578706972656400000000000000000060448201526064016103be565b6007600b82015460ff1660098111156107b7576107b76130ef565b1461080f5760405162461bcd60e51b815260206004820152602260248201527f4261746368206e6f7420617070726f766564206279206d616e7566616374757260448201526132b960f11b60648201526084016103be565b601981015460ff166108635760405162461bcd60e51b815260206004820152601b60248201527f437573746f6479207472616e7366657220696e636f6d706c657465000000000060448201526064016103be565b50508080610870906136d0565b91505061063a565b50600060028a60405161088b91906134b6565b9081526040519081900360200190209050806108a78b82613588565b506001810180546001600160a01b03191633179055600281016108ca8a82613588565b50600381016108d98982613588565b5086516108ef90600483019060208a0190612717565b50600581016108fe8782613588565b506006810161090d8682613588565b5060078101849055600881016109238482613588565b5060098101805461ffff191661010117905542600a82015560405160019060049061094f908d906134b6565b908152604051908190036020018120805492151560ff199093169290921790915561097b908b906134b6565b60405190819003812088518252907f22e17d9a1418cdfb6a606ad38da79eaaed6d497a1539a7a359c615839e44fa529060200160405180910390a250505050505050505050565b3360009081527ff49c6599d59825218936d81b3af67bad9cf74ffb3255b811063828e9161373a860205260409020547f373fdac787be5578b9a3d4a9ca3e3ae1e632ab5ee4750e92f65223238a15b2ef9060ff16610a325760405162461bcd60e51b81526004016103be90613662565b600382604051610a4291906134b6565b9081526040519081900360200190205460ff16610a715760405162461bcd60e51b81526004016103be906134d2565b6000600183604051610a8391906134b6565b90815260405190819003602001902090506000600b82015460ff166009811115610aaf57610aaf6130ef565b14610afc5760405162461bcd60e51b815260206004820152601a60248201527f4261746368206e6f7420696e2050454e44494e4720737461746500000000000060448201526064016103be565b600b8101805460ff19166001179055426021909101555050565b3360009081527fa51945ecba8f4c6b5cca29605887192f197979d006cd586a7af80838543824c860205260409020547f7c6181838a71a779e445600d4c6ecbe16bacf2b3c5bda69c29fada66d1b645d19060ff16610b865760405162461bcd60e51b81526004016103be90613662565b600384604051610b9691906134b6565b9081526040519081900360200190205460ff16610bc55760405162461bcd60e51b81526004016103be906134d2565b6000600185604051610bd791906134b6565b90815260405190819003602001902090506002600b82015460ff166009811115610c0357610c036130ef565b14610c505760405162461bcd60e51b815260206004820152601860248201527f4261746368206d757374206265204c41425f504153534544000000000000000060448201526064016103be565b60018101546001600160a01b03163314610cba5760405162461bcd60e51b815260206004820152602560248201527f4f6e6c7920746865206f726967696e616c206661726d65722063616e206469736044820152640e0c2e8c6d60db1b60648201526084016103be565b60408051608081018252338082524260208301819052928201879052606082018690526012840180546001600160a01b031916909117815560138401929092559060148301610d098782613588565b5060608201516003820190610d1e9082613588565b505050600b8101805460ff191660041790554260219091015550505050565b610dae6040518061018001604052806060815260200160006001600160a01b0316815260200160608152602001606081526020016060815260200160608152602001606081526020016000815260200160608152602001600015158152602001600015158152602001600081525090565b600482604051610dbe91906134b6565b9081526040519081900360200190205460ff16610e1d5760405162461bcd60e51b815260206004820152601c60248201527f50726f6475637420626174636820646f6573206e6f742065786973740000000060448201526064016103be565b600282604051610e2d91906134b6565b908152602001604051809103902060405180610180016040529081600082018054610e5790613500565b80601f0160208091040260200160405190810160405280929190818152602001828054610e8390613500565b8015610ed05780601f10610ea557610100808354040283529160200191610ed0565b820191906000526020600020905b815481529060010190602001808311610eb357829003601f168201915b505050918352505060018201546001600160a01b03166020820152600282018054604090920191610f0090613500565b80601f0160208091040260200160405190810160405280929190818152602001828054610f2c90613500565b8015610f795780601f10610f4e57610100808354040283529160200191610f79565b820191906000526020600020905b815481529060010190602001808311610f5c57829003601f168201915b50505050508152602001600382018054610f9290613500565b80601f0160208091040260200160405190810160405280929190818152602001828054610fbe90613500565b801561100b5780601f10610fe05761010080835404028352916020019161100b565b820191906000526020600020905b815481529060010190602001808311610fee57829003601f168201915b5050505050815260200160048201805480602002602001604051908101604052809291908181526020016000905b828210156110e557838290600052602060002001805461105890613500565b80601f016020809104026020016040519081016040528092919081815260200182805461108490613500565b80156110d15780601f106110a6576101008083540402835291602001916110d1565b820191906000526020600020905b8154815290600101906020018083116110b457829003601f168201915b505050505081526020019060010190611039565b5050505081526020016005820180546110fd90613500565b80601f016020809104026020016040519081016040528092919081815260200182805461112990613500565b80156111765780601f1061114b57610100808354040283529160200191611176565b820191906000526020600020905b81548152906001019060200180831161115957829003601f168201915b5050505050815260200160068201805461118f90613500565b80601f01602080910402602001604051908101604052809291908181526020018280546111bb90613500565b80156112085780601f106111dd57610100808354040283529160200191611208565b820191906000526020600020905b8154815290600101906020018083116111eb57829003601f168201915b505050505081526020016007820154815260200160088201805461122b90613500565b80601f016020809104026020016040519081016040528092919081815260200182805461125790613500565b80156112a45780601f10611279576101008083540402835291602001916112a4565b820191906000526020600020905b81548152906001019060200180831161128757829003601f168201915b5050509183525050600982015460ff808216151560208401526101009091041615156040820152600a9091015460609091015292915050565b33600090815260008051602061373c833981519152602052604090205460008051602061371c8339815191529060ff166113295760405162461bcd60e51b81526004016103be90613662565b60038560405161133991906134b6565b9081526040519081900360200190205460ff166113685760405162461bcd60e51b81526004016103be906134d2565b600060018660405161137a91906134b6565b90815260405190819003602001902090506005600b82015460ff1660098111156113a6576113a66130ef565b146113ec5760405162461bcd60e51b815260206004820152601660248201527510985d18da081b5d5cdd08189948149150d15255915160521b60448201526064016103be565b6040805160a08101825286815260208101869052339181019190915242606082015260808101849052601a8201868155601b830161142a8782613588565b5060408201516002820180546001600160a01b0319166001600160a01b03909216919091179055606082015160038201556080820151600482019061146f9082613588565b50905050605a851061149757600b810180546007919060ff19166001835b0217905550611514565b604685106114b557600b810180546006919060ff191660018361148d565b600b8101805460ff191660081790556040516114d29087906134b6565b60405180910390207fe9e95bf9582f71ce84518e644e678f147fc6140cde0eda5dd330acc54b934302868660405161150b9291906136e9565b60405180910390a25b426021909101555050505050565b3360009081527fa51945ecba8f4c6b5cca29605887192f197979d006cd586a7af80838543824c860205260409020547f7c6181838a71a779e445600d4c6ecbe16bacf2b3c5bda69c29fada66d1b645d19060ff166115925760405162461bcd60e51b81526004016103be90613662565b60038a6040516115a291906134b6565b9081526040519081900360200190205460ff16156115f95760405162461bcd60e51b8152602060048201526014602482015273426174636820616c72656164792065786973747360601b60448201526064016103be565b600060018b60405161160b91906134b6565b9081526040519081900360200190209050806116278c82613588565b506001810180546001600160a01b031916331790556002810161164a8b82613588565b5060038101899055600481016116608982613588565b506005810161166f8882613588565b506006810161167e8782613588565b506007810161168d8682613588565b506040805160608101825285151580825260208083018790524292840183905260088501805460ff19908116909317905560098501879055600a8501839055600b8501805490921690915583018190556021830155516001906003906116f4908e906134b6565b908152604051908190036020018120805492151560ff19909316929092179091553390611722908d906134b6565b60405180910390207fc49c7db3f815af45ed1b42c8a1822ee267b994ccb6343f2b3a1015458ad5c1f68c6040516117599190613648565b60405180910390a35050505050505050505050565b61177661276d565b60038260405161178691906134b6565b9081526040519081900360200190205460ff166117b55760405162461bcd60e51b81526004016103be906134d2565b6001826040516117c591906134b6565b9081526020016040518091039020604051806102400160405290816000820180546117ef90613500565b80601f016020809104026020016040519081016040528092919081815260200182805461181b90613500565b80156118685780601f1061183d57610100808354040283529160200191611868565b820191906000526020600020905b81548152906001019060200180831161184b57829003601f168201915b505050918352505060018201546001600160a01b0316602082015260028201805460409092019161189890613500565b80601f01602080910402602001604051908101604052809291908181526020018280546118c490613500565b80156119115780601f106118e657610100808354040283529160200191611911565b820191906000526020600020905b8154815290600101906020018083116118f457829003601f168201915b505050505081526020016003820154815260200160048201805461193490613500565b80601f016020809104026020016040519081016040528092919081815260200182805461196090613500565b80156119ad5780601f10611982576101008083540402835291602001916119ad565b820191906000526020600020905b81548152906001019060200180831161199057829003601f168201915b505050505081526020016005820180546119c690613500565b80601f01602080910402602001604051908101604052809291908181526020018280546119f290613500565b8015611a3f5780601f10611a1457610100808354040283529160200191611a3f565b820191906000526020600020905b815481529060010190602001808311611a2257829003601f168201915b50505050508152602001600682018054611a5890613500565b80601f0160208091040260200160405190810160405280929190818152602001828054611a8490613500565b8015611ad15780601f10611aa657610100808354040283529160200191611ad1565b820191906000526020600020905b815481529060010190602001808311611ab457829003601f168201915b50505050508152602001600782018054611aea90613500565b80601f0160208091040260200160405190810160405280929190818152602001828054611b1690613500565b8015611b635780601f10611b3857610100808354040283529160200191611b63565b820191906000526020600020905b815481529060010190602001808311611b4657829003601f168201915b505050918352505060408051606081018252600884015460ff90811615158252600980860154602084810191909152600a87015484860152850192909252600b85015492909301929190911690811115611bbf57611bbf6130ef565b6009811115611bd057611bd06130ef565b81526040805160c08101909152600c8301805460ff1615158252600d8401805460209485019484019190611c0390613500565b80601f0160208091040260200160405190810160405280929190818152602001828054611c2f90613500565b8015611c7c5780601f10611c5157610100808354040283529160200191611c7c565b820191906000526020600020905b815481529060010190602001808311611c5f57829003601f168201915b50505050508152602001600282018054611c9590613500565b80601f0160208091040260200160405190810160405280929190818152602001828054611cc190613500565b8015611d0e5780601f10611ce357610100808354040283529160200191611d0e565b820191906000526020600020905b815481529060010190602001808311611cf157829003601f168201915b505050918352505060038201546001600160a01b03908116602080840191909152600484015460408085019190915260059094015460609093019290925292845281516080810183526012860180549094168152601386015481830152601486018054959092019490939284019190611d8690613500565b80601f0160208091040260200160405190810160405280929190818152602001828054611db290613500565b8015611dff5780601f10611dd457610100808354040283529160200191611dff565b820191906000526020600020905b815481529060010190602001808311611de257829003601f168201915b50505050508152602001600382018054611e1890613500565b80601f0160208091040260200160405190810160405280929190818152602001828054611e4490613500565b8015611e915780601f10611e6657610100808354040283529160200191611e91565b820191906000526020600020905b815481529060010190602001808311611e7457829003601f168201915b5050505050815250508152602001601682016040518060600160405290816000820160009054906101000a90046001600160a01b03166001600160a01b03166001600160a01b0316815260200160018201548152602001600282018054611ef790613500565b80601f0160208091040260200160405190810160405280929190818152602001828054611f2390613500565b8015611f705780601f10611f4557610100808354040283529160200191611f70565b820191906000526020600020905b815481529060010190602001808311611f5357829003601f168201915b50505050508152505081526020016019820160009054906101000a900460ff16151515158152602001601a82016040518060a001604052908160008201548152602001600182018054611fc290613500565b80601f0160208091040260200160405190810160405280929190818152602001828054611fee90613500565b801561203b5780601f106120105761010080835404028352916020019161203b565b820191906000526020600020905b81548152906001019060200180831161201e57829003601f168201915b505050918352505060028201546001600160a01b031660208201526003820154604082015260048201805460609092019161207590613500565b80601f01602080910402602001604051908101604052809291908181526020018280546120a190613500565b80156120ee5780601f106120c3576101008083540402835291602001916120ee565b820191906000526020600020905b8154815290600101906020018083116120d157829003601f168201915b5050505050815250508152602001601f8201805461210b90613500565b80601f016020809104026020016040519081016040528092919081815260200182805461213790613500565b80156121845780601f1061215957610100808354040283529160200191612184565b820191906000526020600020905b81548152906001019060200180831161216757829003601f168201915b50505050508152602001602082015481526020016021820154815250509050919050565b3360009081527f7d7ffb7a348e1c6a02869081a26547b49160dd3df72d1d75a570eb9b698292ec60205260409020547fa49807205ce4d355092ef5a8a18f56e8913cf4a201fbe287825b095693c217759060ff166122185760405162461bcd60e51b81526004016103be90613662565b6000838152602081815260408083206001600160a01b0386168085529252808320805460ff1916905551909185917f155aaafb6329a2098580462df33ec4b7441b19729b9601c5fc17ae1cf99a8a529190a3505050565b3360009081527ff49c6599d59825218936d81b3af67bad9cf74ffb3255b811063828e9161373a860205260409020547f373fdac787be5578b9a3d4a9ca3e3ae1e632ab5ee4750e92f65223238a15b2ef9060ff166122df5760405162461bcd60e51b81526004016103be90613662565b6003856040516122ef91906134b6565b9081526040519081900360200190205460ff1661231e5760405162461bcd60e51b81526004016103be906134d2565b600060018660405161233091906134b6565b90815260405190819003602001902090506001600b82015460ff16600981111561235c5761235c6130ef565b146123a95760405162461bcd60e51b815260206004820152601e60248201527f4261746368206e6f7420696e204c41425f54455354494e47207374617465000060448201526064016103be565b846123b55760036123b8565b60025b600b8201805460ff191660018360098111156123d6576123d66130ef565b02179055506040518060c001604052808615158152602001858152602001848152602001336001600160a01b03168152602001428152602001426276a70061241e9190613702565b90528051600c8301805460ff19169115159190911781556020820151600d8401906124499082613588565b506040820151600282019061245e9082613588565b5060608201516003820180546001600160a01b0319166001600160a01b039092169190911790556080820151600482015560a0909101516005909101554260218201556040516124af9087906134b6565b6040519081900381208615158252907f0776a51d429d321e473a7488c189fdd51e248403cc4a6a80e42f475fbf01e56d9060200160405180910390a2505050505050565b33600090815260008051602061373c833981519152602052604090205460008051602061371c8339815191529060ff1661253f5760405162461bcd60e51b81526004016103be90613662565b60038360405161254f91906134b6565b9081526040519081900360200190205460ff1661257e5760405162461bcd60e51b81526004016103be906134d2565b600060018460405161259091906134b6565b90815260405190819003602001902090506004600b82015460ff1660098111156125bc576125bc6130ef565b146126095760405162461bcd60e51b815260206004820152601860248201527f4261746368206d75737420626520494e5f5452414e534954000000000000000060448201526064016103be565b604080516060810182523380825242602083018190529282018690526016840180546001600160a01b0319169091178155601784019290925590601883016126518682613588565b505050600b8101805460ff1990811660051790915560198201805490911660011790554260218201556040516126889085906134b6565b604051908190038120907ff6fcaeb57e0dd63e8dedbde575d552c03f4eec87068896a7d130ba64cd9a448390600090a250505050565b6000828152602081815260408083206001600160a01b0385168085529252808320805460ff1916600117905551909184917f2ae6a113c0ed5b78a53413ffbb7679881f11145ccfba4fb92e863dfcd5a1d2f39190a35050565b82805482825590600052602060002090810192821561275d579160200282015b8281111561275d578251829061274d9082613588565b5091602001919060010190612737565b506127699291506128ff565b5090565b6040518061024001604052806060815260200160006001600160a01b031681526020016060815260200160008152602001606081526020016060815260200160608152602001606081526020016127e0604051806060016040528060001515815260200160008152602001600081525090565b8152602001600081526020016128306040518060c00160405280600015158152602001606081526020016060815260200160006001600160a01b0316815260200160008152602001600081525090565b8152602001612869604051806080016040528060006001600160a01b031681526020016000815260200160608152602001606081525090565b815260200161289b604051806060016040528060006001600160a01b0316815260200160008152602001606081525090565b81526020016000151581526020016128e46040518060a00160405280600081526020016060815260200160006001600160a01b0316815260200160008152602001606081525090565b81526020016060815260200160008152602001600081525090565b80821115612769576000612913828261291c565b506001016128ff565b50805461292890613500565b6000825580601f10612938575050565b601f0160209004906000526020600020908101906129569190612959565b50565b5b80821115612769576000815560010161295a565b634e487b7160e01b600052604160045260246000fd5b604051601f8201601f1916810167ffffffffffffffff811182821017156129ad576129ad61296e565b604052919050565b600082601f8301126129c657600080fd5b813567ffffffffffffffff8111156129e0576129e061296e565b6129f3601f8201601f1916602001612984565b818152846020838601011115612a0857600080fd5b816020850160208301376000918101602001919091529392505050565b60008060408385031215612a3857600080fd5b823567ffffffffffffffff80821115612a5057600080fd5b612a5c868387016129b5565b93506020850135915080821115612a7257600080fd5b50612a7f858286016129b5565b9150509250929050565b600060208284031215612a9b57600080fd5b813567ffffffffffffffff811115612ab257600080fd5b612abe848285016129b5565b949350505050565b60008060408385031215612ad957600080fd5b8235915060208301356001600160a01b0381168114612af757600080fd5b809150509250929050565b600082601f830112612b1357600080fd5b8135602067ffffffffffffffff80831115612b3057612b3061296e565b8260051b612b3f838201612984565b9384528581018301938381019088861115612b5957600080fd5b84880192505b85831015612b9557823584811115612b775760008081fd5b612b858a87838c01016129b5565b8352509184019190840190612b5f565b98975050505050505050565b600080600080600080600080610100898b031215612bbe57600080fd5b883567ffffffffffffffff80821115612bd657600080fd5b612be28c838d016129b5565b995060208b0135915080821115612bf857600080fd5b612c048c838d016129b5565b985060408b0135915080821115612c1a57600080fd5b612c268c838d016129b5565b975060608b0135915080821115612c3c57600080fd5b612c488c838d01612b02565b965060808b0135915080821115612c5e57600080fd5b612c6a8c838d016129b5565b955060a08b0135915080821115612c8057600080fd5b612c8c8c838d016129b5565b945060c08b0135935060e08b0135915080821115612ca957600080fd5b50612cb68b828c016129b5565b9150509295985092959890939650565b600080600060608486031215612cdb57600080fd5b833567ffffffffffffffff80821115612cf357600080fd5b612cff878388016129b5565b94506020860135915080821115612d1557600080fd5b612d21878388016129b5565b93506040860135915080821115612d3757600080fd5b50612d44868287016129b5565b9150509250925092565b60005b83811015612d69578181015183820152602001612d51565b50506000910152565b60008151808452612d8a816020860160208601612d4e565b601f01601f19169290920160200192915050565b600081518084526020808501808196508360051b8101915082860160005b85811015612de6578284038952612dd4848351612d72565b98850198935090840190600101612dbc565b5091979650505050505050565b6020815260008251610180806020850152612e126101a0850183612d72565b91506020850151612e2e60408601826001600160a01b03169052565b506040850151601f1980868503016060870152612e4b8483612d72565b93506060870151915080868503016080870152612e688483612d72565b935060808701519150808685030160a0870152612e858483612d9e565b935060a08701519150808685030160c0870152612ea28483612d72565b935060c08701519150808685030160e0870152612ebf8483612d72565b935060e08701519150610100828188015280880151925050610120818786030181880152612eed8584612d72565b94508088015192505050610140612f078187018315159052565b8601519050610160612f1c8682018315159052565b959095015193019290925250919050565b60008060008060808587031215612f4357600080fd5b843567ffffffffffffffff80821115612f5b57600080fd5b612f67888389016129b5565b9550602087013594506040870135915080821115612f8457600080fd5b612f90888389016129b5565b93506060870135915080821115612fa657600080fd5b50612fb3878288016129b5565b91505092959194509250565b80358015158114612fcf57600080fd5b919050565b60008060008060008060008060006101208a8c031215612ff357600080fd5b893567ffffffffffffffff8082111561300b57600080fd5b6130178d838e016129b5565b9a5060208c013591508082111561302d57600080fd5b6130398d838e016129b5565b995060408c0135985060608c013591508082111561305657600080fd5b6130628d838e016129b5565b975060808c013591508082111561307857600080fd5b6130848d838e016129b5565b965060a08c013591508082111561309a57600080fd5b6130a68d838e016129b5565b955060c08c01359150808211156130bc57600080fd5b506130c98c828d016129b5565b9350506130d860e08b01612fbf565b91506101008a013590509295985092959850929598565b634e487b7160e01b600052602160045260246000fd5b600a811061312357634e487b7160e01b600052602160045260246000fd5b9052565b8051151582526000602082015160c0602085015261314860c0850182612d72565b9050604083015184820360408601526131618282612d72565b6060858101516001600160a01b0316908701526080808601519087015260a0948501519590940194909452509092915050565b60018060a01b0381511682526020810151602083015260006040820151608060408501526131c56080850182612d72565b9050606083015184820360608601526131de8282612d72565b95945050505050565b60018060a01b038151168252602081015160208301526000604082015160606040850152612abe6060850182612d72565b805182526000602082015160a0602085015261323760a0850182612d72565b905060018060a01b03604084015116604085015260608301516060850152608083015184820360808601526131de8282612d72565b602081526000825161028080602085015261328b6102a0850183612d72565b915060208501516132a760408601826001600160a01b03169052565b506040850151601f19808685030160608701526132c48483612d72565b93506060870151608087015260808701519150808685030160a08701526132eb8483612d72565b935060a08701519150808685030160c08701526133088483612d72565b935060c08701519150808685030160e08701526133258483612d72565b935060e087015191506101008187860301818801526133448584612d72565b9450808801519250506101206133728188018480511515825260208082015190830152604090810151910152565b870151915061018061338687820184613105565b61014088015192506101a08288870301818901526133a48685613127565b955061016089015193506101c08389880301818a01526133c48786613194565b9650828a015194506101e092508389880301838a01526133e487866131e7565b9650818a0151945061020091506133fe828a018615159052565b808a01519450506102208389880301818a015261341b8786613218565b9650828a0151945083898803016102408a01526134388786612d72565b918a01516102608a01529098015193909601929092525093949350505050565b6000806000806080858703121561346e57600080fd5b843567ffffffffffffffff8082111561348657600080fd5b613492888389016129b5565b95506134a060208801612fbf565b94506040870135915080821115612f8457600080fd5b600082516134c8818460208701612d4e565b9190910192915050565b60208082526014908201527310985d18da08191bd95cc81b9bdd08195e1a5cdd60621b604082015260600190565b600181811c9082168061351457607f821691505b60208210810361353457634e487b7160e01b600052602260045260246000fd5b50919050565b601f82111561051b57600081815260208120601f850160051c810160208610156135615750805b601f850160051c820191505b818110156135805782815560010161356d565b505050505050565b815167ffffffffffffffff8111156135a2576135a261296e565b6135b6816135b08454613500565b8461353a565b602080601f8311600181146135eb57600084156135d35750858301515b600019600386901b1c1916600185901b178555613580565b600085815260208120601f198616915b8281101561361a578886015182559484019460019091019084016135fb565b50858210156136385787850151600019600388901b60f8161c191681555b5050505050600190811b01905550565b60208152600061365b6020830184612d72565b9392505050565b60208082526022908201527f426f74616e694c65646765723a20556e617574686f72697a6564206163636f756040820152611b9d60f21b606082015260800190565b634e487b7160e01b600052603260045260246000fd5b634e487b7160e01b600052601160045260246000fd5b6000600182016136e2576136e26136ba565b5060010190565b828152604060208201526000612abe6040830184612d72565b80820180821115613715576137156136ba565b9291505056feeefb95e842a3287179d933b4460be539a1d5af11aa8b325bb45c5c8dc92de4ed6b476db4b19b8e11ac475b323c35b9d0f52831cf1d8cf1455692d57ffbccaaaca26469706673582212209a2bc9c419f0915b6464ae6ce708e9c063817a4e2950c014090d029b407f677664736f6c63430008130033",
  "linkReferences": {},
  "deployedLinkReferences": {}
}