{"contracts/BotaniLedger.sol":{"BotaniLedger":{"abi":[{"inputs":[],"stateMutability":"nonpayable","type":"constructor"},{"anonymous":false,"inputs":[{"indexed":true,"internalType":"string","name":"batchId","type":"string"},{"indexed":false,"internalType":"uint256","name":"score","type":"uint256"},{"indexed":false,"internalType":"string","name":"zone","type":"string"}],"name":"AdulterationDetected","type":"event"},{"anonymous":false,"inputs":[{"indexed":true,"internalType":"string","name":"batchId","type":"string"},{"indexed":false,"internalType":"string","name":"reason","type":"string"}],"name":"BatchRecalled","type":"event"},{"anonymous":false,"inputs":[{"indexed":true,"internalType":"string","name":"batchId","type":"string"},{"indexed":true,"internalType":"address","name":"farmerId","type":"address"},{"indexed":false,"internalType":"string","name":"herbSpecies","type":"string"}],"name":"BatchRegistered","type":"event"},{"anonymous":false,"inputs":[{"indexed":true,"internalType":"string","name":"batchId","type":"string"}],"name":"CustodyTransferComplete","type":"event"},{"anonymous":false,"inputs":[{"indexed":true,"internalType":"string","name":"batchId","type":"string"},{"indexed":false,"internalType":"bool","name":"passed","type":"bool"}],"name":"LabResultRecorded","type":"event"},{"anonymous":false,"inputs":[{"indexed":true,"internalType":"string","name":"productBatchId","type":"string"},{"indexed":false,"internalType":"uint256","name":"linkedCount","type":"uint256"}],"name":"ProductBatchCreated","type":"event"},{"anonymous":false,"inputs":[{"indexed":true,"internalType":"bytes32","name":"role","type":"bytes32"},{"indexed":true,"internalType":"address","name":"account","type":"address"}],"name":"RoleGranted","type":"event"},{"anonymous":false,"inputs":[{"indexed":true,"internalType":"bytes32","name":"role","type":"bytes32"},{"indexed":true,"internalType":"address","name":"account","type":"address"}],"name":"RoleRevoked","type":"event"},{"inputs":[],"name":"ADMIN_ROLE","outputs":[{"internalType":"bytes32","name":"","type":"bytes32"}],"stateMutability":"view","type":"function"},{"inputs":[],"name":"FARMER_ROLE","outputs":[{"internalType":"bytes32","name":"","type":"bytes32"}],"stateMutability":"view","type":"function"},{"inputs":[],"name":"LAB_ROLE","outputs":[{"internalType":"bytes32","name":"","type":"bytes32"}],"stateMutability":"view","type":"function"},{"inputs":[],"name":"MANUFACTURER_ROLE","outputs":[{"internalType":"bytes32","name":"","type":"bytes32"}],"stateMutability":"view","type":"function"},{"inputs":[{"internalType":"string","name":"batchId","type":"string"},{"internalType":"string","name":"condition","type":"string"}],"name":"confirmReceipt","outputs":[],"stateMutability":"nonpayable","type":"function"},{"inputs":[{"internalType":"string","name":"productBatchId","type":"string"},{"internalType":"string","name":"productName","type":"string"},{"internalType":"string","name":"productType","type":"string"},{"internalType":"string[]","name":"linkedHerbBatches","type":"string[]"},{"internalType":"string","name":"manufacturingDate","type":"string"},{"internalType":"string","name":"expiryDate","type":"string"},{"internalType":"uint256","name":"quantity","type":"uint256"},{"internalType":"string","name":"qrUrl","type":"string"}],"name":"createProductBatch","outputs":[],"stateMutability":"nonpayable","type":"function"},{"inputs":[{"internalType":"string","name":"batchId","type":"string"},{"internalType":"string","name":"estimatedArrival","type":"string"},{"internalType":"string","name":"transportMode","type":"string"}],"name":"dispatchBatch","outputs":[],"stateMutability":"nonpayable","type":"function"},{"inputs":[{"internalType":"string","name":"batchId","type":"string"}],"name":"getHerbBatch","outputs":[{"components":[{"internalType":"string","name":"batchId","type":"string"},{"internalType":"address","name":"farmerId","type":"address"},{"internalType":"string","name":"herbSpecies","type":"string"},{"internalType":"uint256","name":"quantity","type":"uint256"},{"internalType":"string","name":"collectionDate","type":"string"},{"internalType":"string","name":"location","type":"string"},{"internalType":"string","name":"ipfsFolderCid","type":"string"},{"internalType":"string","name":"photoCids","type":"string"},{"components":[{"internalType":"bool","name":"speciesMatch","type":"bool"},{"internalType":"uint256","name":"confidence","type":"uint256"},{"internalType":"uint256","name":"timestamp","type":"uint256"}],"internalType":"struct BotaniLedger.AIVerification","name":"aiVerification","type":"tuple"},{"internalType":"enum BotaniLedger.BatchStatus","name":"status","type":"uint8"},{"components":[{"internalType":"bool","name":"passed","type":"bool"},{"internalType":"string","name":"reportCid","type":"string"},{"internalType":"string","name":"reportSummary","type":"string"},{"internalType":"address","name":"certifiedBy","type":"address"},{"internalType":"uint256","name":"certifiedAt","type":"uint256"},{"internalType":"uint256","name":"validUntil","type":"uint256"}],"internalType":"struct BotaniLedger.LabResult","name":"labResult","type":"tuple"},{"components":[{"internalType":"address","name":"dispatchedBy","type":"address"},{"internalType":"uint256","name":"dispatchedAt","type":"uint256"},{"internalType":"string","name":"estimatedArrival","type":"string"},{"internalType":"string","name":"transportMode","type":"string"}],"internalType":"struct BotaniLedger.DispatchInfo","name":"dispatchInfo","type":"tuple"},{"components":[{"internalType":"address","name":"receivedBy","type":"address"},{"internalType":"uint256","name":"receivedAt","type":"uint256"},{"internalType":"string","name":"condition","type":"string"}],"internalType":"struct BotaniLedger.ReceiptInfo","name":"receiptInfo","type":"tuple"},{"internalType":"bool","name":"custodyTransferComplete","type":"bool"},{"components":[{"internalType":"uint256","name":"overallScore","type":"uint256"},{"internalType":"string","name":"zone","type":"string"},{"internalType":"address","name":"verifiedBy","type":"address"},{"internalType":"uint256","name":"verifiedAt","type":"uint256"},{"internalType":"string","name":"arrivalPhotoCids","type":"string"}],"internalType":"struct BotaniLedger.SimilarityVerification","name":"similarityVerification","type":"tuple"},{"internalType":"string","name":"recallReason","type":"string"},{"internalType":"uint256","name":"createdAt","type":"uint256"},{"internalType":"uint256","name":"updatedAt","type":"uint256"}],"internalType":"struct BotaniLedger.HerbBatch","name":"","type":"tuple"}],"stateMutability":"view","type":"function"},{"inputs":[{"internalType":"string","name":"productBatchId","type":"string"}],"name":"getProductBatch","outputs":[{"components":[{"internalType":"string","name":"productBatchId","type":"string"},{"internalType":"address","name":"manufacturerId","type":"address"},{"internalType":"string","name":"productName","type":"string"},{"internalType":"string","name":"productType","type":"string"},{"internalType":"string[]","name":"linkedHerbBatches","type":"string[]"},{"internalType":"string","name":"manufacturingDate","type":"string"},{"internalType":"string","name":"expiryDate","type":"string"},{"internalType":"uint256","name":"quantity","type":"uint256"},{"internalType":"string","name":"qrUrl","type":"string"},{"internalType":"bool","name":"integrityVerified","type":"bool"},{"internalType":"bool","name":"isActive","type":"bool"},{"internalType":"uint256","name":"createdAt","type":"uint256"}],"internalType":"struct BotaniLedger.ProductBatch","name":"","type":"tuple"}],"stateMutability":"view","type":"function"},{"inputs":[{"internalType":"bytes32","name":"role","type":"bytes32"},{"internalType":"address","name":"account","type":"address"}],"name":"grantRole","outputs":[],"stateMutability":"nonpayable","type":"function"},{"inputs":[{"internalType":"string","name":"","type":"string"}],"name":"herbBatchExists","outputs":[{"internalType":"bool","name":"","type":"bool"}],"stateMutability":"view","type":"function"},{"inputs":[{"internalType":"string","name":"","type":"string"}],"name":"productBatchExists","outputs":[{"internalType":"bool","name":"","type":"bool"}],"stateMutability":"view","type":"function"},{"inputs":[{"internalType":"string","name":"batchId","type":"string"},{"internalType":"string","name":"reason","type":"string"}],"name":"recallBatch","outputs":[],"stateMutability":"nonpayable","type":"function"},{"inputs":[{"internalType":"string","name":"batchId","type":"string"},{"internalType":"bool","name":"passed","type":"bool"},{"internalType":"string","name":"reportCid","type":"string"},{"internalType":"string","name":"reportSummary","type":"string"}],"name":"recordLabResult","outputs":[],"stateMutability":"nonpayable","type":"function"},{"inputs":[{"internalType":"string","name":"batchId","type":"string"},{"internalType":"uint256","name":"overallScore","type":"uint256"},{"internalType":"string","name":"zone","type":"string"},{"internalType":"string","name":"arrivalPhotoCids","type":"string"}],"name":"recordSimilarityResult","outputs":[],"stateMutability":"nonpayable","type":"function"},{"inputs":[{"internalType":"string","name":"batchId","type":"string"},{"internalType":"string","name":"herbSpecies","type":"string"},{"internalType":"uint256","name":"quantity","type":"uint256"},{"internalType":"string","name":"collectionDate","type":"string"},{"internalType":"string","name":"location","type":"string"},{"internalType":"string","name":"ipfsFolderCid","type":"string"},{"internalType":"string","name":"photoCids","type":"string"},{"internalType":"bool","name":"speciesMatch","type":"bool"},{"internalType":"uint256","name":"aiConfidence","type":"uint256"}],"name":"registerBatch","outputs":[],"stateMutability":"nonpayable","type":"function"},{"inputs":[{"internalType":"bytes32","name":"role","type":"bytes32"},{"internalType":"address","name":"account","type":"address"}],"name":"revokeRole","outputs":[],"stateMutability":"nonpayable","type":"function"},{"inputs":[{"internalType":"string","name":"batchId","type":"string"}],"name":"startLabTesting","outputs":[],"stateMutability":"nonpayable","type":"function"}],"evm":{"bytecode":{"linkReferences":{},"object":"60806040523480156200001157600080fd5b506200003e7fa49807205ce4d355092ef5a8a18f56e8913cf4a201fbe287825b095693c217753362000044565b6200009d565b6000828152602081815260408083206001600160a01b0385168085529252808320805460ff1916600117905551909184917f2ae6a113c0ed5b78a53413ffbb7679881f11145ccfba4fb92e863dfcd5a1d2f39190a35050565b61379180620000ad6000396000f3fe608060405234801561001057600080fd5b50600436106101165760003560e01c8063bca7759a116100a2578063d547741f11610071578063d547741f14610296578063df02670a146102a9578063e205bf8f146102bc578063efdf77ac146102cf578063f3943970146102fd57600080fd5b8063bca7759a14610229578063bd3070c61461023c578063c81e5ffe14610263578063ca18b7da1461027657600080fd5b806371b74ab2116100e957806371b74ab21461019957806375b238fc146101ac57806380377fb2146101e15780638bce12a3146101f4578063965288b01461021457600080fd5b8063123ecac81461011b57806326e213fa146101305780632f2ff15d146101735780634b7446dd14610186575b600080fd5b61012e610129366004612a25565b610324565b005b61015e61013e366004612a89565b805160208183018101805160048252928201919093012091525460ff1681565b60405190151581526020015b60405180910390f35b61012e610181366004612ac6565b6104a1565b61012e610194366004612ba1565b610520565b61012e6101a7366004612a89565b6109c2565b6101d37fa49807205ce4d355092ef5a8a18f56e8913cf4a201fbe287825b095693c2177581565b60405190815260200161016a565b61012e6101ef366004612cc6565b610b16565b610207610202366004612a89565b610d3d565b60405161016a9190612df3565b6101d360008051602061371c83398151915281565b61012e610237366004612f2d565b6112dd565b6101d37f373fdac787be5578b9a3d4a9ca3e3ae1e632ab5ee4750e92f65223238a15b2ef81565b61012e610271366004612fd4565b611522565b610289610284366004612a89565b61176e565b60405161016a919061326c565b61012e6102a4366004612ac6565b6121a8565b61012e6102b7366004613458565b61226f565b61012e6102ca366004612a25565b6124f3565b61015e6102dd366004612a89565b805160208183018101805160038252928201919093012091525460ff1681565b6101d37f7c6181838a71a779e445600d4c6ecbe16bacf2b3c5bda69c29fada66d1b645d181565b33600090815260008051602061373c833981519152602052604090205460ff168061037d57503360009081527ff49c6599d59825218936d81b3af67bad9cf74ffb3255b811063828e9161373a8602052604090205460ff165b6103c75760405162461bcd60e51b8152602060048201526016602482015275155b985d5d1a1bdc9a5e9959081d1bc81c9958d85b1b60521b60448201526064015b60405180910390fd5b6003826040516103d791906134b6565b9081526040519081900360200190205460ff166104065760405162461bcd60e51b81526004016103be906134d2565b600060018360405161041891906134b6565b908152604051908190036020019020600b81018054600960ff199091161790559050601f81016104488382613588565b5042602182015560405161045d9084906134b6565b60405180910390207faccbcca2781383a7c9aff56f00c185ca721fc1e34bf89ddd4d18c757d78e7628836040516104949190613648565b60405180910390a2505050565b3360009081527f7d7ffb7a348e1c6a02869081a26547b49160dd3df72d1d75a570eb9b698292ec60205260409020547fa49807205ce4d355092ef5a8a18f56e8913cf4a201fbe287825b095693c217759060ff166105115760405162461bcd60e51b81526004016103be90613662565b61051b83836126be565b505050565b33600090815260008051602061373c833981519152602052604090205460008051602061371c8339815191529060ff1661056c5760405162461bcd60e51b81526004016103be90613662565b60048960405161057c91906134b6565b9081526040519081900360200190205460ff16156105dc5760405162461bcd60e51b815260206004820152601c60248201527f50726f6475637420626174636820616c7265616479206578697374730000000060448201526064016103be565b60008651116106375760405162461bcd60e51b815260206004820152602160248201527f4d757374206c696e6b206174206c65617374206f6e65206865726220626174636044820152600d60fb1b60648201526084016103be565b60005b8651811015610878576000878281518110610657576106576136a4565b6020026020010151905060038160405161067191906134b6565b9081526040519081900360200190205460ff166106d05760405162461bcd60e51b815260206004820152601f60248201527f4c696e6b65642048657262426174636820646f6573206e6f742065786973740060448201526064016103be565b60006001826040516106e291906134b6565b908152604051908190036020019020600c81015490915060ff166107485760405162461bcd60e51b815260206004820152601f60248201527f4c696e6b6564206261746368206661696c6564206c61622074657374696e670060448201526064016103be565b601181015442111561079c5760405162461bcd60e51b815260206004820152601760248201527f4c6162206365727469666963617465206578706972656400000000000000000060448201526064016103be565b6007600b82015460ff1660098111156107b7576107b76130ef565b1461080f5760405162461bcd60e51b815260206004820152602260248201527f4261746368206e6f7420617070726f766564206279206d616e7566616374757260448201526132b960f11b60648201526084016103be565b601981015460ff166108635760405162461bcd60e51b815260206004820152601b60248201527f437573746f6479207472616e7366657220696e636f6d706c657465000000000060448201526064016103be565b50508080610870906136d0565b91505061063a565b50600060028a60405161088b91906134b6565b9081526040519081900360200190209050806108a78b82613588565b506001810180546001600160a01b03191633179055600281016108ca8a82613588565b50600381016108d98982613588565b5086516108ef90600483019060208a0190612717565b50600581016108fe8782613588565b506006810161090d8682613588565b5060078101849055600881016109238482613588565b5060098101805461ffff191661010117905542600a82015560405160019060049061094f908d906134b6565b908152604051908190036020018120805492151560ff199093169290921790915561097b908b906134b6565b60405190819003812088518252907f22e17d9a1418cdfb6a606ad38da79eaaed6d497a1539a7a359c615839e44fa529060200160405180910390a250505050505050505050565b3360009081527ff49c6599d59825218936d81b3af67bad9cf74ffb3255b811063828e9161373a860205260409020547f373fdac787be5578b9a3d4a9ca3e3ae1e632ab5ee4750e92f65223238a15b2ef9060ff16610a325760405162461bcd60e51b81526004016103be90613662565b600382604051610a4291906134b6565b9081526040519081900360200190205460ff16610a715760405162461bcd60e51b81526004016103be906134d2565b6000600183604051610a8391906134b6565b90815260405190819003602001902090506000600b82015460ff166009811115610aaf57610aaf6130ef565b14610afc5760405162461bcd60e51b815260206004820152601a60248201527f4261746368206e6f7420696e2050454e44494e4720737461746500000000000060448201526064016103be565b600b8101805460ff19166001179055426021909101555050565b3360009081527fa51945ecba8f4c6b5cca29605887192f197979d006cd586a7af80838543824c860205260409020547f7c6181838a71a779e445600d4c6ecbe16bacf2b3c5bda69c29fada66d1b645d19060ff16610b865760405162461bcd60e51b81526004016103be90613662565b600384604051610b9691906134b6565b9081526040519081900360200190205460ff16610bc55760405162461bcd60e51b81526004016103be906134d2565b6000600185604051610bd791906134b6565b90815260405190819003602001902090506002600b82015460ff166009811115610c0357610c036130ef565b14610c505760405162461bcd60e51b815260206004820152601860248201527f4261746368206d757374206265204c41425f504153534544000000000000000060448201526064016103be565b60018101546001600160a01b03163314610cba5760405162461bcd60e51b815260206004820152602560248201527f4f6e6c7920746865206f726967696e616c206661726d65722063616e206469736044820152640e0c2e8c6d60db1b60648201526084016103be565b60408051608081018252338082524260208301819052928201879052606082018690526012840180546001600160a01b031916909117815560138401929092559060148301610d098782613588565b5060608201516003820190610d1e9082613588565b505050600b8101805460ff191660041790554260219091015550505050565b610dae6040518061018001604052806060815260200160006001600160a01b0316815260200160608152602001606081526020016060815260200160608152602001606081526020016000815260200160608152602001600015158152602001600015158152602001600081525090565b600482604051610dbe91906134b6565b9081526040519081900360200190205460ff16610e1d5760405162461bcd60e51b815260206004820152601c60248201527f50726f6475637420626174636820646f6573206e6f742065786973740000000060448201526064016103be565b600282604051610e2d91906134b6565b908152602001604051809103902060405180610180016040529081600082018054610e5790613500565b80601f0160208091040260200160405190810160405280929190818152602001828054610e8390613500565b8015610ed05780601f10610ea557610100808354040283529160200191610ed0565b820191906000526020600020905b815481529060010190602001808311610eb357829003601f168201915b505050918352505060018201546001600160a01b03166020820152600282018054604090920191610f0090613500565b80601f0160208091040260200160405190810160405280929190818152602001828054610f2c90613500565b8015610f795780601f10610f4e57610100808354040283529160200191610f79565b820191906000526020600020905b815481529060010190602001808311610f5c57829003601f168201915b50505050508152602001600382018054610f9290613500565b80601f0160208091040260200160405190810160405280929190818152602001828054610fbe90613500565b801561100b5780601f10610fe05761010080835404028352916020019161100b565b820191906000526020600020905b815481529060010190602001808311610fee57829003601f168201915b5050505050815260200160048201805480602002602001604051908101604052809291908181526020016000905b828210156110e557838290600052602060002001805461105890613500565b80601f016020809104026020016040519081016040528092919081815260200182805461108490613500565b80156110d15780601f106110a6576101008083540402835291602001916110d1565b820191906000526020600020905b8154815290600101906020018083116110b457829003601f168201915b505050505081526020019060010190611039565b5050505081526020016005820180546110fd90613500565b80601f016020809104026020016040519081016040528092919081815260200182805461112990613500565b80156111765780601f1061114b57610100808354040283529160200191611176565b820191906000526020600020905b81548152906001019060200180831161115957829003601f168201915b5050505050815260200160068201805461118f90613500565b80601f01602080910402602001604051908101604052809291908181526020018280546111bb90613500565b80156112085780601f106111dd57610100808354040283529160200191611208565b820191906000526020600020905b8154815290600101906020018083116111eb57829003601f168201915b505050505081526020016007820154815260200160088201805461122b90613500565b80601f016020809104026020016040519081016040528092919081815260200182805461125790613500565b80156112a45780601f10611279576101008083540402835291602001916112a4565b820191906000526020600020905b81548152906001019060200180831161128757829003601f168201915b5050509183525050600982015460ff808216151560208401526101009091041615156040820152600a9091015460609091015292915050565b33600090815260008051602061373c833981519152602052604090205460008051602061371c8339815191529060ff166113295760405162461bcd60e51b81526004016103be90613662565b60038560405161133991906134b6565b9081526040519081900360200190205460ff166113685760405162461bcd60e51b81526004016103be906134d2565b600060018660405161137a91906134b6565b90815260405190819003602001902090506005600b82015460ff1660098111156113a6576113a66130ef565b146113ec5760405162461bcd60e51b815260206004820152601660248201527510985d18da081b5d5cdd08189948149150d15255915160521b60448201526064016103be565b6040805160a08101825286815260208101869052339181019190915242606082015260808101849052601a8201868155601b830161142a8782613588565b5060408201516002820180546001600160a01b0319166001600160a01b03909216919091179055606082015160038201556080820151600482019061146f9082613588565b50905050605a851061149757600b810180546007919060ff19166001835b0217905550611514565b604685106114b557600b810180546006919060ff191660018361148d565b600b8101805460ff191660081790556040516114d29087906134b6565b60405180910390207fe9e95bf9582f71ce84518e644e678f147fc6140cde0eda5dd330acc54b934302868660405161150b9291906136e9565b60405180910390a25b426021909101555050505050565b3360009081527fa51945ecba8f4c6b5cca29605887192f197979d006cd586a7af80838543824c860205260409020547f7c6181838a71a779e445600d4c6ecbe16bacf2b3c5bda69c29fada66d1b645d19060ff166115925760405162461bcd60e51b81526004016103be90613662565b60038a6040516115a291906134b6565b9081526040519081900360200190205460ff16156115f95760405162461bcd60e51b8152602060048201526014602482015273426174636820616c72656164792065786973747360601b60448201526064016103be565b600060018b60405161160b91906134b6565b9081526040519081900360200190209050806116278c82613588565b506001810180546001600160a01b031916331790556002810161164a8b82613588565b5060038101899055600481016116608982613588565b506005810161166f8882613588565b506006810161167e8782613588565b506007810161168d8682613588565b506040805160608101825285151580825260208083018790524292840183905260088501805460ff19908116909317905560098501879055600a8501839055600b8501805490921690915583018190556021830155516001906003906116f4908e906134b6565b908152604051908190036020018120805492151560ff19909316929092179091553390611722908d906134b6565b60405180910390207fc49c7db3f815af45ed1b42c8a1822ee267b994ccb6343f2b3a1015458ad5c1f68c6040516117599190613648565b60405180910390a35050505050505050505050565b61177661276d565b60038260405161178691906134b6565b9081526040519081900360200190205460ff166117b55760405162461bcd60e51b81526004016103be906134d2565b6001826040516117c591906134b6565b9081526020016040518091039020604051806102400160405290816000820180546117ef90613500565b80601f016020809104026020016040519081016040528092919081815260200182805461181b90613500565b80156118685780601f1061183d57610100808354040283529160200191611868565b820191906000526020600020905b81548152906001019060200180831161184b57829003601f168201915b505050918352505060018201546001600160a01b0316602082015260028201805460409092019161189890613500565b80601f01602080910402602001604051908101604052809291908181526020018280546118c490613500565b80156119115780601f106118e657610100808354040283529160200191611911565b820191906000526020600020905b8154815290600101906020018083116118f457829003601f168201915b505050505081526020016003820154815260200160048201805461193490613500565b80601f016020809104026020016040519081016040528092919081815260200182805461196090613500565b80156119ad5780601f10611982576101008083540402835291602001916119ad565b820191906000526020600020905b81548152906001019060200180831161199057829003601f168201915b505050505081526020016005820180546119c690613500565b80601f01602080910402602001604051908101604052809291908181526020018280546119f290613500565b8015611a3f5780601f10611a1457610100808354040283529160200191611a3f565b820191906000526020600020905b815481529060010190602001808311611a2257829003601f168201915b50505050508152602001600682018054611a5890613500565b80601f0160208091040260200160405190810160405280929190818152602001828054611a8490613500565b8015611ad15780601f10611aa657610100808354040283529160200191611ad1565b820191906000526020600020905b815481529060010190602001808311611ab457829003601f168201915b50505050508152602001600782018054611aea90613500565b80601f0160208091040260200160405190810160405280929190818152602001828054611b1690613500565b8015611b635780601f10611b3857610100808354040283529160200191611b63565b820191906000526020600020905b815481529060010190602001808311611b4657829003601f168201915b505050918352505060408051606081018252600884015460ff90811615158252600980860154602084810191909152600a87015484860152850192909252600b85015492909301929190911690811115611bbf57611bbf6130ef565b6009811115611bd057611bd06130ef565b81526040805160c08101909152600c8301805460ff1615158252600d8401805460209485019484019190611c0390613500565b80601f0160208091040260200160405190810160405280929190818152602001828054611c2f90613500565b8015611c7c5780601f10611c5157610100808354040283529160200191611c7c565b820191906000526020600020905b815481529060010190602001808311611c5f57829003601f168201915b50505050508152602001600282018054611c9590613500565b80601f0160208091040260200160405190810160405280929190818152602001828054611cc190613500565b8015611d0e5780601f10611ce357610100808354040283529160200191611d0e565b820191906000526020600020905b815481529060010190602001808311611cf157829003601f168201915b505050918352505060038201546001600160a01b03908116602080840191909152600484015460408085019190915260059094015460609093019290925292845281516080810183526012860180549094168152601386015481830152601486018054959092019490939284019190611d8690613500565b80601f0160208091040260200160405190810160405280929190818152602001828054611db290613500565b8015611dff5780601f10611dd457610100808354040283529160200191611dff565b820191906000526020600020905b815481529060010190602001808311611de257829003601f168201915b50505050508152602001600382018054611e1890613500565b80601f0160208091040260200160405190810160405280929190818152602001828054611e4490613500565b8015611e915780601f10611e6657610100808354040283529160200191611e91565b820191906000526020600020905b815481529060010190602001808311611e7457829003601f168201915b5050505050815250508152602001601682016040518060600160405290816000820160009054906101000a90046001600160a01b03166001600160a01b03166001600160a01b0316815260200160018201548152602001600282018054611ef790613500565b80601f0160208091040260200160405190810160405280929190818152602001828054611f2390613500565b8015611f705780601f10611f4557610100808354040283529160200191611f70565b820191906000526020600020905b815481529060010190602001808311611f5357829003601f168201915b50505050508152505081526020016019820160009054906101000a900460ff16151515158152602001601a82016040518060a001604052908160008201548152602001600182018054611fc290613500565b80601f0160208091040260200160405190810160405280929190818152602001828054611fee90613500565b801561203b5780601f106120105761010080835404028352916020019161203b565b820191906000526020600020905b81548152906001019060200180831161201e57829003601f168201915b505050918352505060028201546001600160a01b031660208201526003820154604082015260048201805460609092019161207590613500565b80601f01602080910402602001604051908101604052809291908181526020018280546120a190613500565b80156120ee5780601f106120c3576101008083540402835291602001916120ee565b820191906000526020600020905b8154815290600101906020018083116120d157829003601f168201915b5050505050815250508152602001601f8201805461210b90613500565b80601f016020809104026020016040519081016040528092919081815260200182805461213790613500565b80156121845780601f1061215957610100808354040283529160200191612184565b820191906000526020600020905b81548152906001019060200180831161216757829003601f168201915b50505050508152602001602082015481526020016021820154815250509050919050565b3360009081527f7d7ffb7a348e1c6a02869081a26547b49160dd3df72d1d75a570eb9b698292ec60205260409020547fa49807205ce4d355092ef5a8a18f56e8913cf4a201fbe287825b095693c217759060ff166122185760405162461bcd60e51b81526004016103be90613662565b6000838152602081815260408083206001600160a01b0386168085529252808320805460ff1916905551909185917f155aaafb6329a2098580462df33ec4b7441b19729b9601c5fc17ae1cf99a8a529190a3505050565b3360009081527ff49c6599d59825218936d81b3af67bad9cf74ffb3255b811063828e9161373a860205260409020547f373fdac787be5578b9a3d4a9ca3e3ae1e632ab5ee4750e92f65223238a15b2ef9060ff166122df5760405162461bcd60e51b81526004016103be90613662565b6003856040516122ef91906134b6565b9081526040519081900360200190205460ff1661231e5760405162461bcd60e51b81526004016103be906134d2565b600060018660405161233091906134b6565b90815260405190819003602001902090506001600b82015460ff16600981111561235c5761235c6130ef565b146123a95760405162461bcd60e51b815260206004820152601e60248201527f4261746368206e6f7420696e204c41425f54455354494e47207374617465000060448201526064016103be565b846123b55760036123b8565b60025b600b8201805460ff191660018360098111156123d6576123d66130ef565b02179055506040518060c001604052808615158152602001858152602001848152602001336001600160a01b03168152602001428152602001426276a70061241e9190613702565b90528051600c8301805460ff19169115159190911781556020820151600d8401906124499082613588565b506040820151600282019061245e9082613588565b5060608201516003820180546001600160a01b0319166001600160a01b039092169190911790556080820151600482015560a0909101516005909101554260218201556040516124af9087906134b6565b6040519081900381208615158252907f0776a51d429d321e473a7488c189fdd51e248403cc4a6a80e42f475fbf01e56d9060200160405180910390a2505050505050565b33600090815260008051602061373c833981519152602052604090205460008051602061371c8339815191529060ff1661253f5760405162461bcd60e51b81526004016103be90613662565b60038360405161254f91906134b6565b9081526040519081900360200190205460ff1661257e5760405162461bcd60e51b81526004016103be906134d2565b600060018460405161259091906134b6565b90815260405190819003602001902090506004600b82015460ff1660098111156125bc576125bc6130ef565b146126095760405162461bcd60e51b815260206004820152601860248201527f4261746368206d75737420626520494e5f5452414e534954000000000000000060448201526064016103be565b604080516060810182523380825242602083018190529282018690526016840180546001600160a01b0319169091178155601784019290925590601883016126518682613588565b505050600b8101805460ff1990811660051790915560198201805490911660011790554260218201556040516126889085906134b6565b604051908190038120907ff6fcaeb57e0dd63e8dedbde575d552c03f4eec87068896a7d130ba64cd9a448390600090a250505050565b6000828152602081815260408083206001600160a01b0385168085529252808320805460ff1916600117905551909184917f2ae6a113c0ed5b78a53413ffbb7679881f11145ccfba4fb92e863dfcd5a1d2f39190a35050565b82805482825590600052602060002090810192821561275d579160200282015b8281111561275d578251829061274d9082613588565b5091602001919060010190612737565b506127699291506128ff565b5090565b6040518061024001604052806060815260200160006001600160a01b031681526020016060815260200160008152602001606081526020016060815260200160608152602001606081526020016127e0604051806060016040528060001515815260200160008152602001600081525090565b8152602001600081526020016128306040518060c00160405280600015158152602001606081526020016060815260200160006001600160a01b0316815260200160008152602001600081525090565b8152602001612869604051806080016040528060006001600160a01b031681526020016000815260200160608152602001606081525090565b815260200161289b604051806060016040528060006001600160a01b0316815260200160008152602001606081525090565b81526020016000151581526020016128e46040518060a00160405280600081526020016060815260200160006001600160a01b0316815260200160008152602001606081525090565b81526020016060815260200160008152602001600081525090565b80821115612769576000612913828261291c565b506001016128ff565b50805461292890613500565b6000825580601f10612938575050565b601f0160209004906000526020600020908101906129569190612959565b50565b5b80821115612769576000815560010161295a565b634e487b7160e01b600052604160045260246000fd5b604051601f8201601f1916810167ffffffffffffffff811182821017156129ad576129ad61296e565b604052919050565b600082601f8301126129c657600080fd5b813567ffffffffffffffff8111156129e0576129e061296e565b6129f3601f8201601f1916602001612984565b818152846020838601011115612a0857600080fd5b816020850160208301376000918101602001919091529392505050565b60008060408385031215612a3857600080fd5b823567ffffffffffffffff80821115612a5057600080fd5b612a5c868387016129b5565b93506020850135915080821115612a7257600080fd5b50612a7f858286016129b5565b9150509250929050565b600060208284031215612a9b57600080fd5b813567ffffffffffffffff811115612ab257600080fd5b612abe848285016129b5565b949350505050565b60008060408385031215612ad957600080fd5b8235915060208301356001600160a01b0381168114612af757600080fd5b809150509250929050565b600082601f830112612b1357600080fd5b8135602067ffffffffffffffff80831115612b3057612b3061296e565b8260051b612b3f838201612984565b9384528581018301938381019088861115612b5957600080fd5b84880192505b85831015612b9557823584811115612b775760008081fd5b612b858a87838c01016129b5565b8352509184019190840190612b5f565b98975050505050505050565b600080600080600080600080610100898b031215612bbe57600080fd5b883567ffffffffffffffff80821115612bd657600080fd5b612be28c838d016129b5565b995060208b0135915080821115612bf857600080fd5b612c048c838d016129b5565b985060408b0135915080821115612c1a57600080fd5b612c268c838d016129b5565b975060608b0135915080821115612c3c57600080fd5b612c488c838d01612b02565b965060808b0135915080821115612c5e57600080fd5b612c6a8c838d016129b5565b955060a08b0135915080821115612c8057600080fd5b612c8c8c838d016129b5565b945060c08b0135935060e08b0135915080821115612ca957600080fd5b50612cb68b828c016129b5565b9150509295985092959890939650565b600080600060608486031215612cdb57600080fd5b833567ffffffffffffffff80821115612cf357600080fd5b612cff878388016129b5565b94506020860135915080821115612d1557600080fd5b612d21878388016129b5565b93506040860135915080821115612d3757600080fd5b50612d44868287016129b5565b9150509250925092565b60005b83811015612d69578181015183820152602001612d51565b50506000910152565b60008151808452612d8a816020860160208601612d4e565b601f01601f19169290920160200192915050565b600081518084526020808501808196508360051b8101915082860160005b85811015612de6578284038952612dd4848351612d72565b98850198935090840190600101612dbc565b5091979650505050505050565b6020815260008251610180806020850152612e126101a0850183612d72565b91506020850151612e2e60408601826001600160a01b03169052565b506040850151601f1980868503016060870152612e4b8483612d72565b93506060870151915080868503016080870152612e688483612d72565b935060808701519150808685030160a0870152612e858483612d9e565b935060a08701519150808685030160c0870152612ea28483612d72565b935060c08701519150808685030160e0870152612ebf8483612d72565b935060e08701519150610100828188015280880151925050610120818786030181880152612eed8584612d72565b94508088015192505050610140612f078187018315159052565b8601519050610160612f1c8682018315159052565b959095015193019290925250919050565b60008060008060808587031215612f4357600080fd5b843567ffffffffffffffff80821115612f5b57600080fd5b612f67888389016129b5565b9550602087013594506040870135915080821115612f8457600080fd5b612f90888389016129b5565b93506060870135915080821115612fa657600080fd5b50612fb3878288016129b5565b91505092959194509250565b80358015158114612fcf57600080fd5b919050565b60008060008060008060008060006101208a8c031215612ff357600080fd5b893567ffffffffffffffff8082111561300b57600080fd5b6130178d838e016129b5565b9a5060208c013591508082111561302d57600080fd5b6130398d838e016129b5565b995060408c0135985060608c013591508082111561305657600080fd5b6130628d838e016129b5565b975060808c013591508082111561307857600080fd5b6130848d838e016129b5565b965060a08c013591508082111561309a57600080fd5b6130a68d838e016129b5565b955060c08c01359150808211156130bc57600080fd5b506130c98c828d016129b5565b9350506130d860e08b01612fbf565b91506101008a013590509295985092959850929598565b634e487b7160e01b600052602160045260246000fd5b600a811061312357634e487b7160e01b600052602160045260246000fd5b9052565b8051151582526000602082015160c0602085015261314860c0850182612d72565b9050604083015184820360408601526131618282612d72565b6060858101516001600160a01b0316908701526080808601519087015260a0948501519590940194909452509092915050565b60018060a01b0381511682526020810151602083015260006040820151608060408501526131c56080850182612d72565b9050606083015184820360608601526131de8282612d72565b95945050505050565b60018060a01b038151168252602081015160208301526000604082015160606040850152612abe6060850182612d72565b805182526000602082015160a0602085015261323760a0850182612d72565b905060018060a01b03604084015116604085015260608301516060850152608083015184820360808601526131de8282612d72565b602081526000825161028080602085015261328b6102a0850183612d72565b915060208501516132a760408601826001600160a01b03169052565b506040850151601f19808685030160608701526132c48483612d72565b93506060870151608087015260808701519150808685030160a08701526132eb8483612d72565b935060a08701519150808685030160c08701526133088483612d72565b935060c08701519150808685030160e08701526133258483612d72565b935060e087015191506101008187860301818801526133448584612d72565b9450808801519250506101206133728188018480511515825260208082015190830152604090810151910152565b870151915061018061338687820184613105565b61014088015192506101a08288870301818901526133a48685613127565b955061016089015193506101c08389880301818a01526133c48786613194565b9650828a015194506101e092508389880301838a01526133e487866131e7565b9650818a0151945061020091506133fe828a018615159052565b808a01519450506102208389880301818a015261341b8786613218565b9650828a0151945083898803016102408a01526134388786612d72565b918a01516102608a01529098015193909601929092525093949350505050565b6000806000806080858703121561346e57600080fd5b843567ffffffffffffffff8082111561348657600080fd5b613492888389016129b5565b95506134a060208801612fbf565b94506040870135915080821115612f8457600080fd5b600082516134c8818460208701612d4e565b9190910192915050565b60208082526014908201527310985d18da08191bd95cc81b9bdd08195e1a5cdd60621b604082015260600190565b600181811c9082168061351457607f821691505b60208210810361353457634e487b7160e01b600052602260045260246000fd5b50919050565b601f82111561051b57600081815260208120601f850160051c810160208610156135615750805b601f850160051c820191505b818110156135805782815560010161356d565b505050505050565b815167ffffffffffffffff8111156135a2576135a261296e565b6135b6816135b08454613500565b8461353a565b602080601f8311600181146135eb57600084156135d35750858301515b600019600386901b1c1916600185901b178555613580565b600085815260208120601f198616915b8281101561361a578886015182559484019460019091019084016135fb565b50858210156136385787850151600019600388901b60f8161c191681555b5050505050600190811b01905550565b60208152600061365b6020830184612d72565b9392505050565b60208082526022908201527f426f74616e694c65646765723a20556e617574686f72697a6564206163636f756040820152611b9d60f21b606082015260800190565b634e487b7160e01b600052603260045260246000fd5b634e487b7160e01b600052601160045260246000fd5b6000600182016136e2576136e26136ba565b5060010190565b828152604060208201526000612abe6040830184612d72565b80820180821115613715576137156136ba565b9291505056feeefb95e842a3287179d933b4460be539a1d5af11aa8b325bb45c5c8dc92de4ed6b476db4b19b8e11ac475b323c35b9d0f52831cf1d8cf1455692d57ffbccaaaca26469706673582212209a2bc9c419f0915b6464ae6ce708e9c063817a4e2950c014090d029b407f677664736f6c63430008130033","opcodes":"PUSH1 0x80 PUSH1 0x40 MSTORE CALLVALUE DUP1 ISZERO PUSH3 0x11 JUMPI PUSH1 0x0 DUP1 REVERT JUMPDEST POP PUSH3 0x3E PUSH32 0xA49807205CE4D355092EF5A8A18F56E8913CF4A201FBE287825B095693C21775 CALLER PUSH3 0x44 JUMP JUMPDEST PUSH3 0x9D JUMP JUMPDEST PUSH1 0x0 DUP3 DUP2 MSTORE PUSH1 0x20 DUP2 DUP2 MSTORE PUSH1 0x40 DUP1 DUP4 KECCAK256 PUSH1 0x1 PUSH1 0x1 PUSH1 0xA0 SHL SUB DUP6 AND DUP1 DUP6 MSTORE SWAP3 MSTORE DUP1 DUP4 KECCAK256 DUP1 SLOAD PUSH1 0xFF NOT AND PUSH1 0x1 OR SWAP1 SSTORE MLOAD SWAP1 SWAP2 DUP5 SWAP2 PUSH32 0x2AE6A113C0ED5B78A53413FFBB7679881F11145CCFBA4FB92E863DFCD5A1D2F3 SWAP2 SWAP1 LOG3 POP POP JUMP JUMPDEST PUSH2 0x3791 DUP1 PUSH3 0xAD PUSH1 0x0 CODECOPY PUSH1 0x0 RETURN INVALID PUSH1 0x80 PUSH1 0x40 MSTORE CALLVALUE DUP1 ISZERO PUSH2 0x10 JUMPI PUSH1 0x0 DUP1 REVERT JUMPDEST POP PUSH1 0x4 CALLDATASIZE LT PUSH2 0x116 JUMPI PUSH1 0x0 CALLDATALOAD PUSH1 0xE0 SHR DUP1 PUSH4 0xBCA7759A GT PUSH2 0xA2 JUMPI DUP1 PUSH4 0xD547741F GT PUSH2 0x71 JUMPI DUP1 PUSH4 0xD547741F EQ PUSH2 0x296 JUMPI DUP1 PUSH4 0xDF02670A EQ PUSH2 0x2A9 JUMPI DUP1 PUSH4 0xE205BF8F EQ PUSH2 0x2BC JUMPI DUP1 PUSH4 0xEFDF77AC EQ PUSH2 0x2CF JUMPI DUP1 PUSH4 0xF3943970 EQ PUSH2 0x2FD JUMPI PUSH1 0x0 DUP1 REVERT JUMPDEST DUP1 PUSH4 0xBCA7759A EQ PUSH2 0x229 JUMPI DUP1 PUSH4 0xBD3070C6 EQ PUSH2 0x23C JUMPI DUP1 PUSH4 0xC81E5FFE EQ PUSH2 0x263 JUMPI DUP1 PUSH4 0xCA18B7DA EQ PUSH2 0x276 JUMPI PUSH1 0x0 DUP1 REVERT JUMPDEST DUP1 PUSH4 0x71B74AB2 GT PUSH2 0xE9 JUMPI DUP1 PUSH4 0x71B74AB2 EQ PUSH2 0x199 JUMPI DUP1 PUSH4 0x75B238FC EQ PUSH2 0x1AC JUMPI DUP1 PUSH4 0x80377FB2 EQ PUSH2 0x1E1 JUMPI DUP1 PUSH4 0x8BCE12A3 EQ PUSH2 0x1F4 JUMPI DUP1 PUSH4 0x965288B0 EQ PUSH2 0x214 JUMPI PUSH1 0x0 DUP1 REVERT JUMPDEST DUP1 PUSH4 0x123ECAC8 EQ PUSH2 0x11B JUMPI DUP1 PUSH4 0x26E213FA EQ PUSH2 0x130 JUMPI DUP1 PUSH4 0x2F2FF15D EQ PUSH2 0x173 JUMPI DUP1 PUSH4 0x4B7446DD EQ PUSH2 0x186 JUMPI JUMPDEST PUSH1 0x0 DUP1 REVERT JUMPDEST PUSH2 0x12E PUSH2 0x129 CALLDATASIZE PUSH1 0x4 PUSH2 0x2A25 JUMP JUMPDEST PUSH2 0x324 JUMP JUMPDEST STOP JUMPDEST PUSH2 0x15E PUSH2 0x13E CALLDATASIZE PUSH1 0x4 PUSH2 0x2A89 JUMP JUMPDEST DUP1 MLOAD PUSH1 0x20 DUP2 DUP4 ADD DUP2 ADD DUP1 MLOAD PUSH1 0x4 DUP3 MSTORE SWAP3 DUP3 ADD SWAP2 SWAP1 SWAP4 ADD KECCAK256 SWAP2 MSTORE SLOAD PUSH1 0xFF AND DUP2 JUMP JUMPDEST PUSH1 0x40 MLOAD SWAP1 ISZERO ISZERO DUP2 MSTORE PUSH1 0x20 ADD JUMPDEST PUSH1 0x40 MLOAD DUP1 SWAP2 SUB SWAP1 RETURN JUMPDEST PUSH2 0x12E PUSH2 0x181 CALLDATASIZE PUSH1 0x4 PUSH2 0x2AC6 JUMP JUMPDEST PUSH2 0x4A1 JUMP JUMPDEST PUSH2 0x12E PUSH2 0x194 CALLDATASIZE PUSH1 0x4 PUSH2 0x2BA1 JUMP JUMPDEST PUSH2 0x520 JUMP JUMPDEST PUSH2 0x12E PUSH2 0x1A7 CALLDATASIZE PUSH1 0x4 PUSH2 0x2A89 JUMP JUMPDEST PUSH2 0x9C2 JUMP JUMPDEST PUSH2 0x1D3 PUSH32 0xA49807205CE4D355092EF5A8A18F56E8913CF4A201FBE287825B095693C21775 DUP2 JUMP JUMPDEST PUSH1 0x40 MLOAD SWAP1 DUP2 MSTORE PUSH1 0x20 ADD PUSH2 0x16A JUMP JUMPDEST PUSH2 0x12E PUSH2 0x1EF CALLDATASIZE PUSH1 0x4 PUSH2 0x2CC6 JUMP JUMPDEST PUSH2 0xB16 JUMP JUMPDEST PUSH2 0x207 PUSH2 0x202 CALLDATASIZE PUSH1 0x4 PUSH2 0x2A89 JUMP JUMPDEST PUSH2 0xD3D JUMP JUMPDEST PUSH1 0x40 MLOAD PUSH2 0x16A SWAP2 SWAP1 PUSH2 0x2DF3 JUMP JUMPDEST PUSH2 0x1D3 PUSH1 0x0 DUP1 MLOAD PUSH1 0x20 PUSH2 0x371C DUP4 CODECOPY DUP2 MLOAD SWAP2 MSTORE DUP2 JUMP JUMPDEST PUSH2 0x12E PUSH2 0x237 CALLDATASIZE PUSH1 0x4 PUSH2 0x2F2D JUMP JUMPDEST PUSH2 0x12DD JUMP JUMPDEST PUSH2 0x1D3 PUSH32 0x373FDAC787BE5578B9A3D4A9CA3E3AE1E632AB5EE4750E92F65223238A15B2EF DUP2 JUMP JUMPDEST PUSH2 0x12E PUSH2 0x271 CALLDATASIZE PUSH1 0x4 PUSH2 0x2FD4 JUMP JUMPDEST PUSH2 0x1522 JUMP JUMPDEST PUSH2 0x289 PUSH2 0x284 CALLDATASIZE PUSH1 0x4 PUSH2 0x2A89 JUMP JUMPDEST PUSH2 0x176E JUMP JUMPDEST PUSH1 0x40 MLOAD PUSH2 0x16A SWAP2 SWAP1 PUSH2 0x326C JUMP JUMPDEST PUSH2 0x12E PUSH2 0x2A4 CALLDATASIZE PUSH1 0x4 PUSH2 0x2AC6 JUMP JUMPDEST PUSH2 0x21A8 JUMP JUMPDEST PUSH2 0x12E PUSH2 0x2B7 CALLDATASIZE PUSH1 0x4 PUSH2 0x3458 JUMP JUMPDEST PUSH2 0x226F JUMP JUMPDEST PUSH2 0x12E PUSH2 0x2CA CALLDATASIZE PUSH1 0x4 PUSH2 0x2A25 JUMP JUMPDEST PUSH2 0x24F3 JUMP JUMPDEST PUSH2 0x15E PUSH2 0x2DD CALLDATASIZE PUSH1 0x4 PUSH2 0x2A89 JUMP JUMPDEST DUP1 MLOAD PUSH1 0x20 DUP2 DUP4 ADD DUP2 ADD DUP1 MLOAD PUSH1 0x3 DUP3 MSTORE SWAP3 DUP3 ADD SWAP2 SWAP1 SWAP4 ADD KECCAK256 SWAP2 MSTORE SLOAD PUSH1 0xFF AND DUP2 JUMP JUMPDEST PUSH2 0x1D3 PUSH32 0x7C6181838A71A779E445600D4C6ECBE16BACF2B3C5BDA69C29FADA66D1B645D1 DUP2 JUMP JUMPDEST CALLER PUSH1 0x0 SWAP1 DUP2 MSTORE PUSH1 0x0 DUP1 MLOAD PUSH1 0x20 PUSH2 0x373C DUP4 CODECOPY DUP2 MLOAD SWAP2 MSTORE PUSH1 0x20 MSTORE PUSH1 0x40 SWAP1 KECCAK256 SLOAD PUSH1 0xFF AND DUP1 PUSH2 0x37D JUMPI POP CALLER PUSH1 0x0 SWAP1 DUP2 MSTORE PUSH32 0xF49C6599D59825218936D81B3AF67BAD9CF74FFB3255B811063828E9161373A8 PUSH1 0x20 MSTORE PUSH1 0x40 SWAP1 KECCAK256 SLOAD PUSH1 0xFF AND JUMPDEST PUSH2 0x3C7 JUMPI PUSH1 0x40 MLOAD PUSH3 0x461BCD PUSH1 0xE5 SHL DUP2 MSTORE PUSH1 0x20 PUSH1 0x4 DUP3 ADD MSTORE PUSH1 0x16 PUSH1 0x24 DUP3 ADD MSTORE PUSH22 0x155B985D5D1A1BDC9A5E9959081D1BC81C9958D85B1B PUSH1 0x52 SHL PUSH1 0x44 DUP3 ADD MSTORE PUSH1 0x64 ADD JUMPDEST PUSH1 0x40 MLOAD DUP1 SWAP2 SUB SWAP1 REVERT JUMPDEST PUSH1 0x3 DUP3 PUSH1 0x40 MLOAD PUSH2 0x3D7 SWAP2 SWAP1 PUSH2 0x34B6 JUMP JUMPDEST SWAP1 DUP2 MSTORE PUSH1 0x40 MLOAD SWAP1 DUP2 SWAP1 SUB PUSH1 0x20 ADD SWAP1 KECCAK256 SLOAD PUSH1 0xFF AND PUSH2 0x406 JUMPI PUSH1 0x40 MLOAD PUSH3 0x461BCD PUSH1 0xE5 SHL DUP2 MSTORE PUSH1 0x4 ADD PUSH2 0x3BE SWAP1 PUSH2 0x34D2 JUMP JUMPDEST PUSH1 0x0 PUSH1 0x1 DUP4 PUSH1 0x40 MLOAD PUSH2 0x418 SWAP2 SWAP1 PUSH2 0x34B6 JUMP JUMPDEST SWAP1 DUP2 MSTORE PUSH1 0x40 MLOAD SWAP1 DUP2 SWAP1 SUB PUSH1 0x20 ADD SWAP1 KECCAK256 PUSH1 0xB DUP2 ADD DUP1 SLOAD PUSH1 0x9 PUSH1 0xFF NOT SWAP1 SWAP2 AND OR SWAP1 SSTORE SWAP1 POP PUSH1 0x1F DUP2 ADD PUSH2 0x448 DUP4 DUP3 PUSH2 0x3588 JUMP JUMPDEST POP TIMESTAMP PUSH1 0x21 DUP3 ADD SSTORE PUSH1 0x40 MLOAD PUSH2 0x45D SWAP1 DUP5 SWAP1 PUSH2 0x34B6 JUMP JUMPDEST PUSH1 0x40 MLOAD DUP1 SWAP2 SUB SWAP1 KECCAK256 PUSH32 0xACCBCCA2781383A7C9AFF56F00C185CA721FC1E34BF89DDD4D18C757D78E7628 DUP4 PUSH1 0x40 MLOAD PUSH2 0x494 SWAP2 SWAP1 PUSH2 0x3648 JUMP JUMPDEST PUSH1 0x40 MLOAD DUP1 SWAP2 SUB SWAP1 LOG2 POP POP POP JUMP JUMPDEST CALLER PUSH1 0x0 SWAP1 DUP2 MSTORE PUSH32 0x7D7FFB7A348E1C6A02869081A26547B49160DD3DF72D1D75A570EB9B698292EC PUSH1 0x20 MSTORE PUSH1 0x40 SWAP1 KECCAK256 SLOAD PUSH32 0xA49807205CE4D355092EF5A8A18F56E8913CF4A201FBE287825B095693C21775 SWAP1 PUSH1 0xFF AND PUSH2 0x511 JUMPI PUSH1 0x40 MLOAD PUSH3 0x461BCD PUSH1 0xE5 SHL DUP2 MSTORE PUSH1 0x4 ADD PUSH2 0x3BE SWAP1 PUSH2 0x3662 JUMP JUMPDEST PUSH2 0x51B DUP4 DUP4 PUSH2 0x26BE JUMP JUMPDEST POP POP POP JUMP JUMPDEST CALLER PUSH1 0x0 SWAP1 DUP2 MSTORE PUSH1 0x0 DUP1 MLOAD PUSH1 0x20 PUSH2 0x373C DUP4 CODECOPY DUP2 MLOAD SWAP2 MSTORE PUSH1 0x20 MSTORE PUSH1 0x40 SWAP1 KECCAK256 SLOAD PUSH1 0x0 DUP1 MLOAD PUSH1 0x20 PUSH2 0x371C DUP4 CODECOPY DUP2 MLOAD SWAP2 MSTORE SWAP1 PUSH1 0xFF AND PUSH2 0x56C JUMPI PUSH1 0x40 MLOAD PUSH3 0x461BCD PUSH1 0xE5 SHL DUP2 MSTORE PUSH1 0x4 ADD PUSH2 0x3BE SWAP1 PUSH2 0x3662 JUMP JUMPDEST PUSH1 0x4 DUP10 PUSH1 0x40 MLOAD PUSH2 0x57C SWAP2 SWAP1 PUSH2 0x34B6 JUMP JUMPDEST SWAP1 DUP2 MSTORE PUSH1 0x40 MLOAD SWAP1 DUP2 SWAP1 SUB PUSH1 0x20 ADD SWAP1 KECCAK256 SLOAD PUSH1 0xFF AND ISZERO PUSH2 0x5DC JUMPI PUSH1 0x40 MLOAD PUSH3 0x461BCD PUSH1 0xE5 SHL DUP2 MSTORE PUSH1 0x20 PUSH1 0x4 DUP3 ADD MSTORE PUSH1 0x1C PUSH1 0x24 DUP3 ADD MSTORE PUSH32 0x50726F6475637420626174636820616C72656164792065786973747300000000 PUSH1 0x44 DUP3 ADD MSTORE PUSH1 0x64 ADD PUSH2 0x3BE JUMP JUMPDEST PUSH1 0x0 DUP7 MLOAD GT PUSH2 0x637 JUMPI PUSH1 0x40 MLOAD PUSH3 0x461BCD PUSH1 0xE5 SHL DUP2 MSTORE PUSH1 0x20 PUSH1 0x4 DUP3 ADD MSTORE PUSH1 0x21 PUSH1 0x24 DUP3 ADD MSTORE PUSH32 0x4D757374206C696E6B206174206C65617374206F6E6520686572622062617463 PUSH1 0x44 DUP3 ADD MSTORE PUSH1 0xD PUSH1 0xFB SHL PUSH1 0x64 DUP3 ADD MSTORE PUSH1 0x84 ADD PUSH2 0x3BE JUMP JUMPDEST PUSH1 0x0 JUMPDEST DUP7 MLOAD DUP2 LT ISZERO PUSH2 0x878 JUMPI PUSH1 0x0 DUP8 DUP3 DUP2 MLOAD DUP2 LT PUSH2 0x657 JUMPI PUSH2 0x657 PUSH2 0x36A4 JUMP JUMPDEST PUSH1 0x20 MUL PUSH1 0x20 ADD ADD MLOAD SWAP1 POP PUSH1 0x3 DUP2 PUSH1 0x40 MLOAD PUSH2 0x671 SWAP2 SWAP1 PUSH2 0x34B6 JUMP JUMPDEST SWAP1 DUP2 MSTORE PUSH1 0x40 MLOAD SWAP1 DUP2 SWAP1 SUB PUSH1 0x20 ADD SWAP1 KECCAK256 SLOAD PUSH1 0xFF AND PUSH2 0x6D0 JUMPI PUSH1 0x40 MLOAD PUSH3 0x461BCD PUSH1 0xE5 SHL DUP2 MSTORE PUSH1 0x20 PUSH1 0x4 DUP3 ADD MSTORE PUSH1 0x1F PUSH1 0x24 DUP3 ADD MSTORE PUSH32 0x4C696E6B65642048657262426174636820646F6573206E6F7420657869737400 PUSH1 0x44 DUP3 ADD MSTORE PUSH1 0x64 ADD PUSH2 0x3BE JUMP JUMPDEST PUSH1 0x0 PUSH1 0x1 DUP3 PUSH1 0x40 MLOAD PUSH2 0x6E2 SWAP2 SWAP1 PUSH2 0x34B6 JUMP JUMPDEST SWAP1 DUP2 MSTORE PUSH1 0x40 MLOAD SWAP1 DUP2 SWAP1 SUB PUSH1 0x20 ADD SWAP1 KECCAK256 PUSH1 0xC DUP2 ADD SLOAD SWAP1 SWAP2 POP PUSH1 0xFF AND PUSH2 0x748 JUMPI PUSH1 0x40 MLOAD PUSH3 0x461BCD PUSH1 0xE5 SHL DUP2 MSTORE PUSH1 0x20 PUSH1 0x4 DUP3 ADD MSTORE PUSH1 0x1F PUSH1 0x24 DUP3 ADD MSTORE PUSH32 0x4C696E6B6564206261746368206661696C6564206C61622074657374696E6700 PUSH1 0x44 DUP3 ADD MSTORE PUSH1 0x64 ADD PUSH2 0x3BE JUMP JUMPDEST PUSH1 0x11 DUP2 ADD SLOAD TIMESTAMP GT ISZERO PUSH2 0x79C JUMPI PUSH1 0x40 MLOAD PUSH3 0x461BCD PUSH1 0xE5 SHL DUP2 MSTORE PUSH1 0x20 PUSH1 0x4 DUP3 ADD MSTORE PUSH1 0x17 PUSH1 0x24 DUP3 ADD MSTORE PUSH32 0x4C61622063657274696669636174652065787069726564000000000000000000 PUSH1 0x44 DUP3 ADD MSTORE PUSH1 0x64 ADD PUSH2 0x3BE JUMP JUMPDEST PUSH1 0x7 PUSH1 0xB DUP3 ADD SLOAD PUSH1 0xFF AND PUSH1 0x9 DUP2 GT ISZERO PUSH2 0x7B7 JUMPI PUSH2 0x7B7 PUSH2 0x30EF JUMP JUMPDEST EQ PUSH2 0x80F JUMPI PUSH1 0x40 MLOAD PUSH3 0x461BCD PUSH1 0xE5 SHL DUP2 MSTORE PUSH1 0x20 PUSH1 0x4 DUP3 ADD MSTORE PUSH1 0x22 PUSH1 0x24 DUP3 ADD MSTORE PUSH32 0x4261746368206E6F7420617070726F766564206279206D616E75666163747572 PUSH1 0x44 DUP3 ADD MSTORE PUSH2 0x32B9 PUSH1 0xF1 SHL PUSH1 0x64 DUP3 ADD MSTORE PUSH1 0x84 ADD PUSH2 0x3BE JUMP JUMPDEST PUSH1 0x19 DUP2 ADD SLOAD PUSH1 0xFF AND PUSH2 0x863 JUMPI PUSH1 0x40 MLOAD PUSH3 0x461BCD PUSH1 0xE5 SHL DUP2 MSTORE PUSH1 0x20 PUSH1 0x4 DUP3 ADD MSTORE PUSH1 0x1B PUSH1 0x24 DUP3 ADD MSTORE PUSH32 0x437573746F6479207472616E7366657220696E636F6D706C6574650000000000 PUSH1 0x44 DUP3 ADD MSTORE PUSH1 0x64 ADD PUSH2 0x3BE JUMP JUMPDEST POP POP DUP1 DUP1 PUSH2 0x870 SWAP1 PUSH2 0x36D0 JUMP JUMPDEST SWAP2 POP POP PUSH2 0x63A JUMP JUMPDEST POP PUSH1 0x0 PUSH1 0x2 DUP11 PUSH1 0x40 MLOAD PUSH2 0x88B SWAP2 SWAP1 PUSH2 0x34B6 JUMP JUMPDEST SWAP1 DUP2 MSTORE PUSH1 0x40 MLOAD SWAP1 DUP2 SWAP1 SUB PUSH1 0x20 ADD SWAP1 KECCAK256 SWAP1 POP DUP1 PUSH2 0x8A7 DUP12 DUP3 PUSH2 0x3588 JUMP JUMPDEST POP PUSH1 0x1 DUP2 ADD DUP1 SLOAD PUSH1 0x1 PUSH1 0x1 PUSH1 0xA0 SHL SUB NOT AND CALLER OR SWAP1 SSTORE PUSH1 0x2 DUP2 ADD PUSH2 0x8CA DUP11 DUP3 PUSH2 0x3588 JUMP JUMPDEST POP PUSH1 0x3 DUP2 ADD PUSH2 0x8D9 DUP10 DUP3 PUSH2 0x3588 JUMP JUMPDEST POP DUP7 MLOAD PUSH2 0x8EF SWAP1 PUSH1 0x4 DUP4 ADD SWAP1 PUSH1 0x20 DUP11 ADD SWAP1 PUSH2 0x2717 JUMP JUMPDEST POP PUSH1 0x5 DUP2 ADD PUSH2 0x8FE DUP8 DUP3 PUSH2 0x3588 JUMP JUMPDEST POP PUSH1 0x6 DUP2 ADD PUSH2 0x90D DUP7 DUP3 PUSH2 0x3588 JUMP JUMPDEST POP PUSH1 0x7 DUP2 ADD DUP5 SWAP1 SSTORE PUSH1 0x8 DUP2 ADD PUSH2 0x923 DUP5 DUP3 PUSH2 0x3588 JUMP JUMPDEST POP PUSH1 0x9 DUP2 ADD DUP1 SLOAD PUSH2 0xFFFF NOT AND PUSH2 0x101 OR SWAP1 SSTORE TIMESTAMP PUSH1 0xA DUP3 ADD SSTORE PUSH1 0x40 MLOAD PUSH1 0x1 SWAP1 PUSH1 0x4 SWAP1 PUSH2 0x94F SWAP1 DUP14 SWAP1 PUSH2 0x34B6 JUMP JUMPDEST SWAP1 DUP2 MSTORE PUSH1 0x40 MLOAD SWAP1 DUP2 SWAP1 SUB PUSH1 0x20 ADD DUP2 KECCAK256 DUP1 SLOAD SWAP3 ISZERO ISZERO PUSH1 0xFF NOT SWAP1 SWAP4 AND SWAP3 SWAP1 SWAP3 OR SWAP1 SWAP2 SSTORE PUSH2 0x97B SWAP1 DUP12 SWAP1 PUSH2 0x34B6 JUMP JUMPDEST PUSH1 0x40 MLOAD SWAP1 DUP2 SWAP1 SUB DUP2 KECCAK256 DUP9 MLOAD DUP3 MSTORE SWAP1 PUSH32 0x22E17D9A1418CDFB6A606AD38DA79EAAED6D497A1539A7A359C615839E44FA52 SWAP1 PUSH1 0x20 ADD PUSH1 0x40 MLOAD DUP1 SWAP2 SUB SWAP1 LOG2 POP POP POP POP POP POP POP POP POP POP JUMP JUMPDEST CALLER PUSH1 0x0 SWAP1 DUP2 MSTORE PUSH32 0xF49C6599D59825218936D81B3AF67BAD9CF74FFB3255B811063828E9161373A8 PUSH1 0x20 MSTORE PUSH1 0x40 SWAP1 KECCAK256 SLOAD PUSH32 0x373FDAC787BE5578B9A3D4A9CA3E3AE1E632AB5EE4750E92F65223238A15B2EF SWAP1 PUSH1 0xFF AND PUSH2 0xA32 JUMPI PUSH1 0x40 MLOAD PUSH3 0x461BCD PUSH1 0xE5 SHL DUP2 MSTORE PUSH1 0x4 ADD PUSH2 0x3BE SWAP1 PUSH2 0x3662 JUMP JUMPDEST PUSH1 0x3 DUP3 PUSH1 0x40 MLOAD PUSH2 0xA42 SWAP2 SWAP1 PUSH2 0x34B6 JUMP JUMPDEST SWAP1 DUP2 MSTORE PUSH1 0x40 MLOAD SWAP1 DUP2 SWAP1 SUB PUSH1 0x20 ADD SWAP1 KECCAK256 SLOAD PUSH1 0xFF AND PUSH2 0xA71 JUMPI PUSH1 0x40 MLOAD PUSH3 0x461BCD PUSH1 0xE5 SHL DUP2 MSTORE PUSH1 0x4 ADD PUSH2 0x3BE SWAP1 PUSH2 0x34D2 JUMP JUMPDEST PUSH1 0x0 PUSH1 0x1 DUP4 PUSH1 0x40 MLOAD PUSH2 0xA83 SWAP2 SWAP1 PUSH2 0x34B6 JUMP JUMPDEST SWAP1 DUP2 MSTORE PUSH1 0x40 MLOAD SWAP1 DUP2 SWAP1 SUB PUSH1 0x20 ADD SWAP1 KECCAK256 SWAP1 POP PUSH1 0x0 PUSH1 0xB DUP3 ADD SLOAD PUSH1 0xFF AND PUSH1 0x9 DUP2 GT ISZERO PUSH2 0xAAF JUMPI PUSH2 0xAAF PUSH2 0x30EF JUMP JUMPDEST EQ PUSH2 0xAFC JUMPI PUSH1 0x40 MLOAD PUSH3 0x461BCD PUSH1 0xE5 SHL DUP2 MSTORE PUSH1 0x20 PUSH1 0x4 DUP3 ADD MSTORE PUSH1 0x1A PUSH1 0x24 DUP3 ADD MSTORE PUSH32 0x4261746368206E6F7420696E2050454E44494E47207374617465000000000000 PUSH1 0x44 DUP3 ADD MSTORE PUSH1 0x64 ADD PUSH2 0x3BE JUMP JUMPDEST PUSH1 0xB DUP2 ADD DUP1 SLOAD PUSH1 0xFF NOT AND PUSH1 0x1 OR SWAP1 SSTORE TIMESTAMP PUSH1 0x21 SWAP1 SWAP2 ADD SSTORE POP POP JUMP JUMPDEST CALLER PUSH1 0x0 SWAP1 DUP2 MSTORE PUSH32 0xA51945ECBA8F4C6B5CCA29605887192F197979D006CD586A7AF80838543824C8 PUSH1 0x20 MSTORE PUSH1 0x40 SWAP1 KECCAK256 SLOAD PUSH32 0x7C6181838A71A779E445600D4C6ECBE16BACF2B3C5BDA69C29FADA66D1B645D1 SWAP1 PUSH1 0xFF AND PUSH2 0xB86 JUMPI PUSH1 0x40 MLOAD PUSH3 0x461BCD PUSH1 0xE5 SHL DUP2 MSTORE PUSH1 0x4 ADD PUSH2 0x3BE SWAP1 PUSH2 0x3662 JUMP JUMPDEST PUSH1 0x3 DUP5 PUSH1 0x40 MLOAD PUSH2 0xB96 SWAP2 SWAP1 PUSH2 0x34B6 JUMP JUMPDEST SWAP1 DUP2 MSTORE PUSH1 0x40 MLOAD SWAP1 DUP2 SWAP1 SUB PUSH1 0x20 ADD SWAP1 KECCAK256 SLOAD PUSH1 0xFF AND PUSH2 0xBC5 JUMPI PUSH1 0x40 MLOAD PUSH3 0x461BCD PUSH1 0xE5 SHL DUP2 MSTORE PUSH1 0x4 ADD PUSH2 0x3BE SWAP1 PUSH2 0x34D2 JUMP JUMPDEST PUSH1 0x0 PUSH1 0x1 DUP6 PUSH1 0x40 MLOAD PUSH2 0xBD7 SWAP2 SWAP1 PUSH2 0x34B6 JUMP JUMPDEST SWAP1 DUP2 MSTORE PUSH1 0x40 MLOAD SWAP1 DUP2 SWAP1 SUB PUSH1 0x20 ADD SWAP1 KECCAK256 SWAP1 POP PUSH1 0x2 PUSH1 0xB DUP3 ADD SLOAD PUSH1 0xFF AND PUSH1 0x9 DUP2 GT ISZERO PUSH2 0xC03 JUMPI PUSH2 0xC03 PUSH2 0x30EF JUMP JUMPDEST EQ PUSH2 0xC50 JUMPI PUSH1 0x40 MLOAD PUSH3 0x461BCD PUSH1 0xE5 SHL DUP2 MSTORE PUSH1 0x20 PUSH1 0x4 DUP3 ADD MSTORE PUSH1 0x18 PUSH1 0x24 DUP3 ADD MSTORE PUSH32 0x4261746368206D757374206265204C41425F5041535345440000000000000000 PUSH1 0x44 DUP3 ADD MSTORE PUSH1 0x64 ADD PUSH2 0x3BE JUMP JUMPDEST PUSH1 0x1 DUP2 ADD SLOAD PUSH1 0x1 PUSH1 0x1 PUSH1 0xA0 SHL SUB AND CALLER EQ PUSH2 0xCBA JUMPI PUSH1 0x40 MLOAD PUSH3 0x461BCD PUSH1 0xE5 SHL DUP2 MSTORE PUSH1 0x20 PUSH1 0x4 DUP3 ADD MSTORE PUSH1 0x25 PUSH1 0x24 DUP3 ADD MSTORE PUSH32 0x4F6E6C7920746865206F726967696E616C206661726D65722063616E20646973 PUSH1 0x44 DUP3 ADD MSTORE PUSH5 0xE0C2E8C6D PUSH1 0xDB SHL PUSH1 0x64 DUP3 ADD MSTORE PUSH1 0x84 ADD PUSH2 0x3BE JUMP JUMPDEST PUSH1 0x40 DUP1 MLOAD PUSH1 0x80 DUP2 ADD DUP3 MSTORE CALLER DUP1 DUP3 MSTORE TIMESTAMP PUSH1 0x20 DUP4 ADD DUP2 SWAP1 MSTORE SWAP3 DUP3 ADD DUP8 SWAP1 MSTORE PUSH1 0x60 DUP3 ADD DUP7 SWAP1 MSTORE PUSH1 0x12 DUP5 ADD DUP1 SLOAD PUSH1 0x1 PUSH1 0x1 PUSH1 0xA0 SHL SUB NOT AND SWAP1 SWAP2 OR DUP2 SSTORE PUSH1 0x13 DUP5 ADD SWAP3 SWAP1 SWAP3 SSTORE SWAP1 PUSH1 0x14 DUP4 ADD PUSH2 0xD09 DUP8 DUP3 PUSH2 0x3588 JUMP JUMPDEST POP PUSH1 0x60 DUP3 ADD MLOAD PUSH1 0x3 DUP3 ADD SWAP1 PUSH2 0xD1E SWAP1 DUP3 PUSH2 0x3588 JUMP JUMPDEST POP POP POP PUSH1 0xB DUP2 ADD DUP1 SLOAD PUSH1 0xFF NOT AND PUSH1 0x4 OR SWAP1 SSTORE TIMESTAMP PUSH1 0x21 SWAP1 SWAP2 ADD SSTORE POP POP POP POP JUMP JUMPDEST PUSH2 0xDAE PUSH1 0x40 MLOAD DUP1 PUSH2 0x180 ADD PUSH1 0x40 MSTORE DUP1 PUSH1 0x60 DUP2 MSTORE PUSH1 0x20 ADD PUSH1 0x0 PUSH1 0x1 PUSH1 0x1 PUSH1 0xA0 SHL SUB AND DUP2 MSTORE PUSH1 0x20 ADD PUSH1 0x60 DUP2 MSTORE PUSH1 0x20 ADD PUSH1 0x60 DUP2 MSTORE PUSH1 0x20 ADD PUSH1 0x60 DUP2 MSTORE PUSH1 0x20 ADD PUSH1 0x60 DUP2 MSTORE PUSH1 0x20 ADD PUSH1 0x60 DUP2 MSTORE PUSH1 0x20 ADD PUSH1 0x0 DUP2 MSTORE PUSH1 0x20 ADD PUSH1 0x60 DUP2 MSTORE PUSH1 0x20 ADD PUSH1 0x0 ISZERO ISZERO DUP2 MSTORE PUSH1 0x20 ADD PUSH1 0x0 ISZERO ISZERO DUP2 MSTORE PUSH1 0x20 ADD PUSH1 0x0 DUP2 MSTORE POP SWAP1 JUMP JUMPDEST PUSH1 0x4 DUP3 PUSH1 0x40 MLOAD PUSH2 0xDBE SWAP2 SWAP1 PUSH2 0x34B6 JUMP JUMPDEST SWAP1 DUP2 MSTORE PUSH1 0x40 MLOAD SWAP1 DUP2 SWAP1 SUB PUSH1 0x20 ADD SWAP1 KECCAK256 SLOAD PUSH1 0xFF AND PUSH2 0xE1D JUMPI PUSH1 0x40 MLOAD PUSH3 0x461BCD PUSH1 0xE5 SHL DUP2 MSTORE PUSH1 0x20 PUSH1 0x4 DUP3 ADD MSTORE PUSH1 0x1C PUSH1 0x24 DUP3 ADD MSTORE PUSH32 0x50726F6475637420626174636820646F6573206E6F7420657869737400000000 PUSH1 0x44 DUP3 ADD MSTORE PUSH1 0x64 ADD PUSH2 0x3BE JUMP JUMPDEST PUSH1 0x2 DUP3 PUSH1 0x40 MLOAD PUSH2 0xE2D SWAP2 SWAP1 PUSH2 0x34B6 JUMP JUMPDEST SWAP1 DUP2 MSTORE PUSH1 0x20 ADD PUSH1 0x40 MLOAD DUP1 SWAP2 SUB SWAP1 KECCAK256 PUSH1 0x40 MLOAD DUP1 PUSH2 0x180 ADD PUSH1 0x40 MSTORE SWAP1 DUP2 PUSH1 0x0 DUP3 ADD DUP1 SLOAD PUSH2 0xE57 SWAP1 PUSH2 0x3500 JUMP JUMPDEST DUP1 PUSH1 0x1F ADD PUSH1 0x20 DUP1 SWAP2 DIV MUL PUSH1 0x20 ADD PUSH1 0x40 MLOAD SWAP1 DUP2 ADD PUSH1 0x40 MSTORE DUP1 SWAP3 SWAP2 SWAP1 DUP2 DUP2 MSTORE PUSH1 0x20 ADD DUP3 DUP1 SLOAD PUSH2 0xE83 SWAP1 PUSH2 0x3500 JUMP JUMPDEST DUP1 ISZERO PUSH2 0xED0 JUMPI DUP1 PUSH1 0x1F LT PUSH2 0xEA5 JUMPI PUSH2 0x100 DUP1 DUP4 SLOAD DIV MUL DUP4 MSTORE SWAP2 PUSH1 0x20 ADD SWAP2 PUSH2 0xED0 JUMP JUMPDEST DUP3 ADD SWAP2 SWAP1 PUSH1 0x0 MSTORE PUSH1 0x20 PUSH1 0x0 KECCAK256 SWAP1 JUMPDEST DUP2 SLOAD DUP2 MSTORE SWAP1 PUSH1 0x1 ADD SWAP1 PUSH1 0x20 ADD DUP1 DUP4 GT PUSH2 0xEB3 JUMPI DUP3 SWAP1 SUB PUSH1 0x1F AND DUP3 ADD SWAP2 JUMPDEST POP POP POP SWAP2 DUP4 MSTORE POP POP PUSH1 0x1 DUP3 ADD SLOAD PUSH1 0x1 PUSH1 0x1 PUSH1 0xA0 SHL SUB AND PUSH1 0x20 DUP3 ADD MSTORE PUSH1 0x2 DUP3 ADD DUP1 SLOAD PUSH1 0x40 SWAP1 SWAP3 ADD SWAP2 PUSH2 0xF00 SWAP1 PUSH2 0x3500 JUMP JUMPDEST DUP1 PUSH1 0x1F ADD PUSH1 0x20 DUP1 SWAP2 DIV MUL PUSH1 0x20 ADD PUSH1 0x40 MLOAD SWAP1 DUP2 ADD PUSH1 0x40 MSTORE DUP1 SWAP3 SWAP2 SWAP1 DUP2 DUP2 MSTORE PUSH1 0x20 ADD DUP3 DUP1 SLOAD PUSH2 0xF2C SWAP1 PUSH2 0x3500 JUMP JUMPDEST DUP1 ISZERO PUSH2 0xF79 JUMPI DUP1 PUSH1 0x1F LT PUSH2 0xF4E JUMPI PUSH2 0x100 DUP1 DUP4 SLOAD DIV MUL DUP4 MSTORE SWAP2 PUSH1 0x20 ADD SWAP2 PUSH2 0xF79 JUMP JUMPDEST DUP3 ADD SWAP2 SWAP1 PUSH1 0x0 MSTORE PUSH1 0x20 PUSH1 0x0 KECCAK256 SWAP1 JUMPDEST DUP2 SLOAD DUP2 MSTORE SWAP1 PUSH1 0x1 ADD SWAP1 PUSH1 0x20 ADD DUP1 DUP4 GT PUSH2 0xF5C JUMPI DUP3 SWAP1 SUB PUSH1 0x1F AND DUP3 ADD SWAP2 JUMPDEST POP POP POP POP POP DUP2 MSTORE PUSH1 0x20 ADD PUSH1 0x3 DUP3 ADD DUP1 SLOAD PUSH2 0xF92 SWAP1 PUSH2 0x3500 JUMP JUMPDEST DUP1 PUSH1 0x1F ADD PUSH1 0x20 DUP1 SWAP2 DIV MUL PUSH1 0x20 ADD PUSH1 0x40 MLOAD SWAP1 DUP2 ADD PUSH1 0x40 MSTORE DUP1 SWAP3 SWAP2 SWAP1 DUP2 DUP2 MSTORE PUSH1 0x20 ADD DUP3 DUP1 SLOAD PUSH2 0xFBE SWAP1 PUSH2 0x3500 JUMP JUMPDEST DUP1 ISZERO PUSH2 0x100B JUMPI DUP1 PUSH1 0x1F LT PUSH2 0xFE0 JUMPI PUSH2 0x100 DUP1 DUP4 SLOAD DIV MUL DUP4 MSTORE SWAP2 PUSH1 0x20 ADD SWAP2 PUSH2 0x100B JUMP JUMPDEST DUP3 ADD SWAP2 SWAP1 PUSH1 0x0 MSTORE PUSH1 0x20 PUSH1 0x0 KECCAK256 SWAP1 JUMPDEST DUP2 SLOAD DUP2 MSTORE SWAP1 PUSH1 0x1 ADD SWAP1 PUSH1 0x20 ADD DUP1 DUP4 GT PUSH2 0xFEE JUMPI DUP3 SWAP1 SUB PUSH1 0x1F AND DUP3 ADD SWAP2 JUMPDEST POP POP POP POP POP DUP2 MSTORE PUSH1 0x20 ADD PUSH1 0x4 DUP3 ADD DUP1 SLOAD DUP1 PUSH1 0x20 MUL PUSH1 0x20 ADD PUSH1 0x40 MLOAD SWAP1 DUP2 ADD PUSH1 0x40 MSTORE DUP1 SWAP3 SWAP2 SWAP1 DUP2 DUP2 MSTORE PUSH1 0x20 ADD PUSH1 0x0 SWAP1 JUMPDEST DUP3 DUP3 LT ISZERO PUSH2 0x10E5 JUMPI DUP4 DUP3 SWAP1 PUSH1 0x0 MSTORE PUSH1 0x20 PUSH1 0x0 KECCAK256 ADD DUP1 SLOAD PUSH2 0x1058 SWAP1 PUSH2 0x3500 JUMP JUMPDEST DUP1 PUSH1 0x1F ADD PUSH1 0x20 DUP1 SWAP2 DIV MUL PUSH1 0x20 ADD PUSH1 0x40 MLOAD SWAP1 DUP2 ADD PUSH1 0x40 MSTORE DUP1 SWAP3 SWAP2 SWAP1 DUP2 DUP2 MSTORE PUSH1 0x20 ADD DUP3 DUP1 SLOAD PUSH2 0x1084 SWAP1 PUSH2 0x3500 JUMP JUMPDEST DUP1 ISZERO PUSH2 0x10D1 JUMPI DUP1 PUSH1 0x1F LT PUSH2 0x10A6 JUMPI PUSH2 0x100 DUP1 DUP4 SLOAD DIV MUL DUP4 MSTORE SWAP2 PUSH1 0x20 ADD SWAP2 PUSH2 0x10D1 JUMP JUMPDEST DUP3 ADD SWAP2 SWAP1 PUSH1 0x0 MSTORE PUSH1 0x20 PUSH1 0x0 KECCAK256 SWAP1 JUMPDEST DUP2 SLOAD DUP2 MSTORE SWAP1 PUSH1 0x1 ADD SWAP1 PUSH1 0x20 ADD DUP1 DUP4 GT PUSH2 0x10B4 JUMPI DUP3 SWAP1 SUB PUSH1 0x1F AND DUP3 ADD SWAP2 JUMPDEST POP POP POP POP POP DUP2 MSTORE PUSH1 0x20 ADD SWAP1 PUSH1 0x1 ADD SWAP1 PUSH2 0x1039 JUMP JUMPDEST POP POP POP POP DUP2 MSTORE PUSH1 0x20 ADD PUSH1 0x5 DUP3 ADD DUP1 SLOAD PUSH2 0x10FD SWAP1 PUSH2 0x3500 JUMP JUMPDEST DUP1 PUSH1 0x1F ADD PUSH1 0x20 DUP1 SWAP2 DIV MUL PUSH1 0x20 ADD PUSH1 0x40 MLOAD SWAP1 DUP2 ADD PUSH1 0x40 MSTORE DUP1 SWAP3 SWAP2 SWAP1 DUP2 DUP2 MSTORE PUSH1 0x20 ADD DUP3 DUP1 SLOAD PUSH2 0x1129 SWAP1 PUSH2 0x3500 JUMP JUMPDEST DUP1 ISZERO PUSH2 0x1176 JUMPI DUP1 PUSH1 0x1F LT PUSH2 0x114B JUMPI PUSH2 0x100 DUP1 DUP4 SLOAD DIV MUL DUP4 MSTORE SWAP2 PUSH1 0x20 ADD SWAP2 PUSH2 0x1176 JUMP JUMPDEST DUP3 ADD SWAP2 SWAP1 PUSH1 0x0 MSTORE PUSH1 0x20 PUSH1 0x0 KECCAK256 SWAP1 JUMPDEST DUP2 SLOAD DUP2 MSTORE SWAP1 PUSH1 0x1 ADD SWAP1 PUSH1 0x20 ADD DUP1 DUP4 GT PUSH2 0x1159 JUMPI DUP3 SWAP1 SUB PUSH1 0x1F AND DUP3 ADD SWAP2 JUMPDEST POP POP POP POP POP DUP2 MSTORE PUSH1 0x20 ADD PUSH1 0x6 DUP3 ADD DUP1 SLOAD PUSH2 0x118F SWAP1 PUSH2 0x3500 JUMP JUMPDEST DUP1 PUSH1 0x1F ADD PUSH1 0x20 DUP1 SWAP2 DIV MUL PUSH1 0x20 ADD PUSH1 0x40 MLOAD SWAP1 DUP2 ADD PUSH1 0x40 MSTORE DUP1 SWAP3 SWAP2 SWAP1 DUP2 DUP2 MSTORE PUSH1 0x20 ADD DUP3 DUP1 SLOAD PUSH2 0x11BB SWAP1 PUSH2 0x3500 JUMP JUMPDEST DUP1 ISZERO PUSH2 0x1208 JUMPI DUP1 PUSH1 0x1F LT PUSH2 0x11DD JUMPI PUSH2 0x100 DUP1 DUP4 SLOAD DIV MUL DUP4 MSTORE SWAP2 PUSH1 0x20 ADD SWAP2 PUSH2 0x1208 JUMP JUMPDEST DUP3 ADD SWAP2 SWAP1 PUSH1 0x0 MSTORE PUSH1 0x20 PUSH1 0x0 KECCAK256 SWAP1 JUMPDEST DUP2 SLOAD DUP2 MSTORE SWAP1 PUSH1 0x1 ADD SWAP1 PUSH1 0x20 ADD DUP1 DUP4 GT PUSH2 0x11EB JUMPI DUP3 SWAP1 SUB PUSH1 0x1F AND DUP3 ADD SWAP2 JUMPDEST POP POP POP POP POP DUP2 MSTORE PUSH1 0x20 ADD PUSH1 0x7 DUP3 ADD SLOAD DUP2 MSTORE PUSH1 0x20 ADD PUSH1 0x8 DUP3 ADD DUP1 SLOAD PUSH2 0x122B SWAP1 PUSH2 0x3500 JUMP JUMPDEST DUP1 PUSH1 0x1F ADD PUSH1 0x20 DUP1 SWAP2 DIV MUL PUSH1 0x20 ADD PUSH1 0x40 MLOAD SWAP1 DUP2 ADD PUSH1 0x40 MSTORE DUP1 SWAP3 SWAP2 SWAP1 DUP2 DUP2 MSTORE PUSH1 0x20 ADD DUP3 DUP1 SLOAD PUSH2 0x1257 SWAP1 PUSH2 0x3500 JUMP JUMPDEST DUP1 ISZERO PUSH2 0x12A4 JUMPI DUP1 PUSH1 0x1F LT PUSH2 0x1279 JUMPI PUSH2 0x100 DUP1 DUP4 SLOAD DIV MUL DUP4 MSTORE SWAP2 PUSH1 0x20 ADD SWAP2 PUSH2 0x12A4 JUMP JUMPDEST DUP3 ADD SWAP2 SWAP1 PUSH1 0x0 MSTORE PUSH1 0x20 PUSH1 0x0 KECCAK256 SWAP1 JUMPDEST DUP2 SLOAD DUP2 MSTORE SWAP1 PUSH1 0x1 ADD SWAP1 PUSH1 0x20 ADD DUP1 DUP4 GT PUSH2 0x1287 JUMPI DUP3 SWAP1 SUB PUSH1 0x1F AND DUP3 ADD SWAP2 JUMPDEST POP POP POP SWAP2 DUP4 MSTORE POP POP PUSH1 0x9 DUP3 ADD SLOAD PUSH1 0xFF DUP1 DUP3 AND ISZERO ISZERO PUSH1 0x20 DUP5 ADD MSTORE PUSH2 0x100 SWAP1 SWAP2 DIV AND ISZERO ISZERO PUSH1 0x40 DUP3 ADD MSTORE PUSH1 0xA SWAP1 SWAP2 ADD SLOAD PUSH1 0x60 SWAP1 SWAP2 ADD MSTORE SWAP3 SWAP2 POP POP JUMP JUMPDEST CALLER PUSH1 0x0 SWAP1 DUP2 MSTORE PUSH1 0x0 DUP1 MLOAD PUSH1 0x20 PUSH2 0x373C DUP4 CODECOPY DUP2 MLOAD SWAP2 MSTORE PUSH1 0x20 MSTORE PUSH1 0x40 SWAP1 KECCAK256 SLOAD PUSH1 0x0 DUP1 MLOAD PUSH1 0x20 PUSH2 0x371C DUP4 CODECOPY DUP2 MLOAD SWAP2 MSTORE SWAP1 PUSH1 0xFF AND PUSH2 0x1329 JUMPI PUSH1 0x40 MLOAD PUSH3 0x461BCD PUSH1 0xE5 SHL DUP2 MSTORE PUSH1 0x4 ADD PUSH2 0x3BE SWAP1 PUSH2 0x3662 JUMP JUMPDEST PUSH1 0x3 DUP6 PUSH1 0x40 MLOAD PUSH2 0x1339 SWAP2 SWAP1 PUSH2 0x34B6 JUMP JUMPDEST SWAP1 DUP2 MSTORE PUSH1 0x40 MLOAD SWAP1 DUP2 SWAP1 SUB PUSH1 0x20 ADD SWAP1 KECCAK256 SLOAD PUSH1 0xFF AND PUSH2 0x1368 JUMPI PUSH1 0x40 MLOAD PUSH3 0x461BCD PUSH1 0xE5 SHL DUP2 MSTORE PUSH1 0x4 ADD PUSH2 0x3BE SWAP1 PUSH2 0x34D2 JUMP JUMPDEST PUSH1 0x0 PUSH1 0x1 DUP7 PUSH1 0x40 MLOAD PUSH2 0x137A SWAP2 SWAP1 PUSH2 0x34B6 JUMP JUMPDEST SWAP1 DUP2 MSTORE PUSH1 0x40 MLOAD SWAP1 DUP2 SWAP1 SUB PUSH1 0x20 ADD SWAP1 KECCAK256 SWAP1 POP PUSH1 0x5 PUSH1 0xB DUP3 ADD SLOAD PUSH1 0xFF AND PUSH1 0x9 DUP2 GT ISZERO PUSH2 0x13A6 JUMPI PUSH2 0x13A6 PUSH2 0x30EF JUMP JUMPDEST EQ PUSH2 0x13EC JUMPI PUSH1 0x40 MLOAD PUSH3 0x461BCD PUSH1 0xE5 SHL DUP2 MSTORE PUSH1 0x20 PUSH1 0x4 DUP3 ADD MSTORE PUSH1 0x16 PUSH1 0x24 DUP3 ADD MSTORE PUSH22 0x10985D18DA081B5D5CDD08189948149150D152559151 PUSH1 0x52 SHL PUSH1 0x44 DUP3 ADD MSTORE PUSH1 0x64 ADD PUSH2 0x3BE JUMP JUMPDEST PUSH1 0x40 DUP1 MLOAD PUSH1 0xA0 DUP2 ADD DUP3 MSTORE DUP7 DUP2 MSTORE PUSH1 0x20 DUP2 ADD DUP7 SWAP1 MSTORE CALLER SWAP2 DUP2 ADD SWAP2 SWAP1 SWAP2 MSTORE TIMESTAMP PUSH1 0x60 DUP3 ADD MSTORE PUSH1 0x80 DUP2 ADD DUP5 SWAP1 MSTORE PUSH1 0x1A DUP3 ADD DUP7 DUP2 SSTORE PUSH1 0x1B DUP4 ADD PUSH2 0x142A DUP8 DUP3 PUSH2 0x3588 JUMP JUMPDEST POP PUSH1 0x40 DUP3 ADD MLOAD PUSH1 0x2 DUP3 ADD DUP1 SLOAD PUSH1 0x1 PUSH1 0x1 PUSH1 0xA0 SHL SUB NOT AND PUSH1 0x1 PUSH1 0x1 PUSH1 0xA0 SHL SUB SWAP1 SWAP3 AND SWAP2 SWAP1 SWAP2 OR SWAP1 SSTORE PUSH1 0x60 DUP3 ADD MLOAD PUSH1 0x3 DUP3 ADD SSTORE PUSH1 0x80 DUP3 ADD MLOAD PUSH1 0x4 DUP3 ADD SWAP1 PUSH2 0x146F SWAP1 DUP3 PUSH2 0x3588 JUMP JUMPDEST POP SWAP1 POP POP PUSH1 0x5A DUP6 LT PUSH2 0x1497 JUMPI PUSH1 0xB DUP2 ADD DUP1 SLOAD PUSH1 0x7 SWAP2 SWAP1 PUSH1 0xFF NOT AND PUSH1 0x1 DUP4 JUMPDEST MUL OR SWAP1 SSTORE POP PUSH2 0x1514 JUMP JUMPDEST PUSH1 0x46 DUP6 LT PUSH2 0x14B5 JUMPI PUSH1 0xB DUP2 ADD DUP1 SLOAD PUSH1 0x6 SWAP2 SWAP1 PUSH1 0xFF NOT AND PUSH1 0x1 DUP4 PUSH2 0x148D JUMP JUMPDEST PUSH1 0xB DUP2 ADD DUP1 SLOAD PUSH1 0xFF NOT AND PUSH1 0x8 OR SWAP1 SSTORE PUSH1 0x40 MLOAD PUSH2 0x14D2 SWAP1 DUP8 SWAP1 PUSH2 0x34B6 JUMP JUMPDEST PUSH1 0x40 MLOAD DUP1 SWAP2 SUB SWAP1 KECCAK256 PUSH32 0xE9E95BF9582F71CE84518E644E678F147FC6140CDE0EDA5DD330ACC54B934302 DUP7 DUP7 PUSH1 0x40 MLOAD PUSH2 0x150B SWAP3 SWAP2 SWAP1 PUSH2 0x36E9 JUMP JUMPDEST PUSH1 0x40 MLOAD DUP1 SWAP2 SUB SWAP1 LOG2 JUMPDEST TIMESTAMP PUSH1 0x21 SWAP1 SWAP2 ADD SSTORE POP POP POP POP POP JUMP JUMPDEST CALLER PUSH1 0x0 SWAP1 DUP2 MSTORE PUSH32 0xA51945ECBA8F4C6B5CCA29605887192F197979D006CD586A7AF80838543824C8 PUSH1 0x20 MSTORE PUSH1 0x40 SWAP1 KECCAK256 SLOAD PUSH32 0x7C6181838A71A779E445600D4C6ECBE16BACF2B3C5BDA69C29FADA66D1B645D1 SWAP1 PUSH1 0xFF AND PUSH2 0x1592 JUMPI PUSH1 0x40 MLOAD PUSH3 0x461BCD PUSH1 0xE5 SHL DUP2 MSTORE PUSH1 0x4 ADD PUSH2 0x3BE SWAP1 PUSH2 0x3662 JUMP JUMPDEST PUSH1 0x3 DUP11 PUSH1 0x40 MLOAD PUSH2 0x15A2 SWAP2 SWAP1 PUSH2 0x34B6 JUMP JUMPDEST SWAP1 DUP2 MSTORE PUSH1 0x40 MLOAD SWAP1 DUP2 SWAP1 SUB PUSH1 0x20 ADD SWAP1 KECCAK256 SLOAD PUSH1 0xFF AND ISZERO PUSH2 0x15F9 JUMPI PUSH1 0x40 MLOAD PUSH3 0x461BCD PUSH1 0xE5 SHL DUP2 MSTORE PUSH1 0x20 PUSH1 0x4 DUP3 ADD MSTORE PUSH1 0x14 PUSH1 0x24 DUP3 ADD MSTORE PUSH20 0x426174636820616C726561647920657869737473 PUSH1 0x60 SHL PUSH1 0x44 DUP3 ADD MSTORE PUSH1 0x64 ADD PUSH2 0x3BE JUMP JUMPDEST PUSH1 0x0 PUSH1 0x1 DUP12 PUSH1 0x40 MLOAD PUSH2 0x160B SWAP2 SWAP1 PUSH2 0x34B6 JUMP JUMPDEST SWAP1 DUP2 MSTORE PUSH1 0x40 MLOAD SWAP1 DUP2 SWAP1 SUB PUSH1 0x20 ADD SWAP1 KECCAK256 SWAP1 POP DUP1 PUSH2 0x1627 DUP13 DUP3 PUSH2 0x3588 JUMP JUMPDEST POP PUSH1 0x1 DUP2 ADD DUP1 SLOAD PUSH1 0x1 PUSH1 0x1 PUSH1 0xA0 SHL SUB NOT AND CALLER OR SWAP1 SSTORE PUSH1 0x2 DUP2 ADD PUSH2 0x164A DUP12 DUP3 PUSH2 0x3588 JUMP JUMPDEST POP PUSH1 0x3 DUP2 ADD DUP10 SWAP1 SSTORE PUSH1 0x4 DUP2 ADD PUSH2 0x1660 DUP10 DUP3 PUSH2 0x3588 JUMP JUMPDEST POP PUSH1 0x5 DUP2 ADD PUSH2 0x166F DUP9 DUP3 PUSH2 0x3588 JUMP JUMPDEST POP PUSH1 0x6 DUP2 ADD PUSH2 0x167E DUP8 DUP3 PUSH2 0x3588 JUMP JUMPDEST POP PUSH1 0x7 DUP2 ADD PUSH2 0x168D DUP7 DUP3 PUSH2 0x3588 JUMP JUMPDEST POP PUSH1 0x40 DUP1 MLOAD PUSH1 0x60 DUP2 ADD DUP3 MSTORE DUP6 ISZERO ISZERO DUP1 DUP3 MSTORE PUSH1 0x20 DUP1 DUP4 ADD DUP8 SWAP1 MSTORE TIMESTAMP SWAP3 DUP5 ADD DUP4 SWAP1 MSTORE PUSH1 0x8 DUP6 ADD DUP1 SLOAD PUSH1 0xFF NOT SWAP1 DUP2 AND SWAP1 SWAP4 OR SWAP1 SSTORE PUSH1 0x9 DUP6 ADD DUP8 SWAP1 SSTORE PUSH1 0xA DUP6 ADD DUP4 SWAP1 SSTORE PUSH1 0xB DUP6 ADD DUP1 SLOAD SWAP1 SWAP3 AND SWAP1 SWAP2 SSTORE DUP4 ADD DUP2 SWAP1 SSTORE PUSH1 0x21 DUP4 ADD SSTORE MLOAD PUSH1 0x1 SWAP1 PUSH1 0x3 SWAP1 PUSH2 0x16F4 SWAP1 DUP15 SWAP1 PUSH2 0x34B6 JUMP JUMPDEST SWAP1 DUP2 MSTORE PUSH1 0x40 MLOAD SWAP1 DUP2 SWAP1 SUB PUSH1 0x20 ADD DUP2 KECCAK256 DUP1 SLOAD SWAP3 ISZERO ISZERO PUSH1 0xFF NOT SWAP1 SWAP4 AND SWAP3 SWAP1 SWAP3 OR SWAP1 SWAP2 SSTORE CALLER SWAP1 PUSH2 0x1722 SWAP1 DUP14 SWAP1 PUSH2 0x34B6 JUMP JUMPDEST PUSH1 0x40 MLOAD DUP1 SWAP2 SUB SWAP1 KECCAK256 PUSH32 0xC49C7DB3F815AF45ED1B42C8A1822EE267B994CCB6343F2B3A1015458AD5C1F6 DUP13 PUSH1 0x40 MLOAD PUSH2 0x1759 SWAP2 SWAP1 PUSH2 0x3648 JUMP JUMPDEST PUSH1 0x40 MLOAD DUP1 SWAP2 SUB SWAP1 LOG3 POP POP POP POP POP POP POP POP POP POP POP JUMP JUMPDEST PUSH2 0x1776 PUSH2 0x276D JUMP JUMPDEST PUSH1 0x3 DUP3 PUSH1 0x40 MLOAD PUSH2 0x1786 SWAP2 SWAP1 PUSH2 0x34B6 JUMP JUMPDEST SWAP1 DUP2 MSTORE PUSH1 0x40 MLOAD SWAP1 DUP2 SWAP1 SUB PUSH1 0x20 ADD SWAP1 KECCAK256 SLOAD PUSH1 0xFF AND PUSH2 0x17B5 JUMPI PUSH1 0x40 MLOAD PUSH3 0x461BCD PUSH1 0xE5 SHL DUP2 MSTORE PUSH1 0x4 ADD PUSH2 0x3BE SWAP1 PUSH2 0x34D2 JUMP JUMPDEST PUSH1 0x1 DUP3 PUSH1 0x40 MLOAD PUSH2 0x17C5 SWAP2 SWAP1 PUSH2 0x34B6 JUMP JUMPDEST SWAP1 DUP2 MSTORE PUSH1 0x20 ADD PUSH1 0x40 MLOAD DUP1 SWAP2 SUB SWAP1 KECCAK256 PUSH1 0x40 MLOAD DUP1 PUSH2 0x240 ADD PUSH1 0x40 MSTORE SWAP1 DUP2 PUSH1 0x0 DUP3 ADD DUP1 SLOAD PUSH2 0x17EF SWAP1 PUSH2 0x3500 JUMP JUMPDEST DUP1 PUSH1 0x1F ADD PUSH1 0x20 DUP1 SWAP2 DIV MUL PUSH1 0x20 ADD PUSH1 0x40 MLOAD SWAP1 DUP2 ADD PUSH1 0x40 MSTORE DUP1 SWAP3 SWAP2 SWAP1 DUP2 DUP2 MSTORE PUSH1 0x20 ADD DUP3 DUP1 SLOAD PUSH2 0x181B SWAP1 PUSH2 0x3500 JUMP JUMPDEST DUP1 ISZERO PUSH2 0x1868 JUMPI DUP1 PUSH1 0x1F LT PUSH2 0x183D JUMPI PUSH2 0x100 DUP1 DUP4 SLOAD DIV MUL DUP4 MSTORE SWAP2 PUSH1 0x20 ADD SWAP2 PUSH2 0x1868 JUMP JUMPDEST DUP3 ADD SWAP2 SWAP1 PUSH1 0x0 MSTORE PUSH1 0x20 PUSH1 0x0 KECCAK256 SWAP1 JUMPDEST DUP2 SLOAD DUP2 MSTORE SWAP1 PUSH1 0x1 ADD SWAP1 PUSH1 0x20 ADD DUP1 DUP4 GT PUSH2 0x184B JUMPI DUP3 SWAP1 SUB PUSH1 0x1F AND DUP3 ADD SWAP2 JUMPDEST POP POP POP SWAP2 DUP4 MSTORE POP POP PUSH1 0x1 DUP3 ADD SLOAD PUSH1 0x1 PUSH1 0x1 PUSH1 0xA0 SHL SUB AND PUSH1 0x20 DUP3 ADD MSTORE PUSH1 0x2 DUP3 ADD DUP1 SLOAD PUSH1 0x40 SWAP1 SWAP3 ADD SWAP2 PUSH2 0x1898 SWAP1 PUSH2 0x3500 JUMP JUMPDEST DUP1 PUSH1 0x1F ADD PUSH1 0x20 DUP1 SWAP2 DIV MUL PUSH1 0x20 ADD PUSH1 0x40 MLOAD SWAP1 DUP2 ADD PUSH1 0x40 MSTORE DUP1 SWAP3 SWAP2 SWAP1 DUP2 DUP2 MSTORE PUSH1 0x20 ADD DUP3 DUP1 SLOAD PUSH2 0x18C4 SWAP1 PUSH2 0x3500 JUMP JUMPDEST DUP1 ISZERO PUSH2 0x1911 JUMPI DUP1 PUSH1 0x1F LT PUSH2 0x18E6 JUMPI PUSH2 0x100 DUP1 DUP4 SLOAD DIV MUL DUP4 MSTORE SWAP2 PUSH1 0x20 ADD SWAP2 PUSH2 0x1911 JUMP JUMPDEST DUP3 ADD SWAP2 SWAP1 PUSH1 0x0 MSTORE PUSH1 0x20 PUSH1 0x0 KECCAK256 SWAP1 JUMPDEST DUP2 SLOAD DUP2 MSTORE SWAP1 PUSH1 0x1 ADD SWAP1 PUSH1 0x20 ADD DUP1 DUP4 GT PUSH2 0x18F4 JUMPI DUP3 SWAP1 SUB PUSH1 0x1F AND DUP3 ADD SWAP2 JUMPDEST POP POP POP POP POP DUP2 MSTORE PUSH1 0x20 ADD PUSH1 0x3 DUP3 ADD SLOAD DUP2 MSTORE PUSH1 0x20 ADD PUSH1 0x4 DUP3 ADD DUP1 SLOAD PUSH2 0x1934 SWAP1 PUSH2 0x3500 JUMP JUMPDEST DUP1 PUSH1 0x1F ADD PUSH1 0x20 DUP1 SWAP2 DIV MUL PUSH1 0x20 ADD PUSH1 0x40 MLOAD SWAP1 DUP2 ADD PUSH1 0x40 MSTORE DUP1 SWAP3 SWAP2 SWAP1 DUP2 DUP2 MSTORE PUSH1 0x20 ADD DUP3 DUP1 SLOAD PUSH2 0x1960 SWAP1 PUSH2 0x3500 JUMP JUMPDEST DUP1 ISZERO PUSH2 0x19AD JUMPI DUP1 PUSH1 0x1F LT PUSH2 0x1982 JUMPI PUSH2 0x100 DUP1 DUP4 SLOAD DIV MUL DUP4 MSTORE SWAP2 PUSH1 0x20 ADD SWAP2 PUSH2 0x19AD JUMP JUMPDEST DUP3 ADD SWAP2 SWAP1 PUSH1 0x0 MSTORE PUSH1 0x20 PUSH1 0x0 KECCAK256 SWAP1 JUMPDEST DUP2 SLOAD DUP2 MSTORE SWAP1 PUSH1 0x1 ADD SWAP1 PUSH1 0x20 ADD DUP1 DUP4 GT PUSH2 0x1990 JUMPI DUP3 SWAP1 SUB PUSH1 0x1F AND DUP3 ADD SWAP2 JUMPDEST POP POP POP POP POP DUP2 MSTORE PUSH1 0x20 ADD PUSH1 0x5 DUP3 ADD DUP1 SLOAD PUSH2 0x19C6 SWAP1 PUSH2 0x3500 JUMP JUMPDEST DUP1 PUSH1 0x1F ADD PUSH1 0x20 DUP1 SWAP2 DIV MUL PUSH1 0x20 ADD PUSH1 0x40 MLOAD SWAP1 DUP2 ADD PUSH1 0x40 MSTORE DUP1 SWAP3 SWAP2 SWAP1 DUP2 DUP2 MSTORE PUSH1 0x20 ADD DUP3 DUP1 SLOAD PUSH2 0x19F2 SWAP1 PUSH2 0x3500 JUMP JUMPDEST DUP1 ISZERO PUSH2 0x1A3F JUMPI DUP1 PUSH1 0x1F LT PUSH2 0x1A14 JUMPI PUSH2 0x100 DUP1 DUP4 SLOAD DIV MUL DUP4 MSTORE SWAP2 PUSH1 0x20 ADD SWAP2 PUSH2 0x1A3F JUMP JUMPDEST DUP3 ADD SWAP2 SWAP1 PUSH1 0x0 MSTORE PUSH1 0x20 PUSH1 0x0 KECCAK256 SWAP1 JUMPDEST DUP2 SLOAD DUP2 MSTORE SWAP1 PUSH1 0x1 ADD SWAP1 PUSH1 0x20 ADD DUP1 DUP4 GT PUSH2 0x1A22 JUMPI DUP3 SWAP1 SUB PUSH1 0x1F AND DUP3 ADD SWAP2 JUMPDEST POP POP POP POP POP DUP2 MSTORE PUSH1 0x20 ADD PUSH1 0x6 DUP3 ADD DUP1 SLOAD PUSH2 0x1A58 SWAP1 PUSH2 0x3500 JUMP JUMPDEST DUP1 PUSH1 0x1F ADD PUSH1 0x20 DUP1 SWAP2 DIV MUL PUSH1 0x20 ADD PUSH1 0x40 MLOAD SWAP1 DUP2 ADD PUSH1 0x40 MSTORE DUP1 SWAP3 SWAP2 SWAP1 DUP2 DUP2 MSTORE PUSH1 0x20 ADD DUP3 DUP1 SLOAD PUSH2 0x1A84 SWAP1 PUSH2 0x3500 JUMP JUMPDEST DUP1 ISZERO PUSH2 0x1AD1 JUMPI DUP1 PUSH1 0x1F LT PUSH2 0x1AA6 JUMPI PUSH2 0x100 DUP1 DUP4 SLOAD DIV MUL DUP4 MSTORE SWAP2 PUSH1 0x20 ADD SWAP2 PUSH2 0x1AD1 JUMP JUMPDEST DUP3 ADD SWAP2 SWAP1 PUSH1 0x0 MSTORE PUSH1 0x20 PUSH1 0x0 KECCAK256 SWAP1 JUMPDEST DUP2 SLOAD DUP2 MSTORE SWAP1 PUSH1 0x1 ADD SWAP1 PUSH1 0x20 ADD DUP1 DUP4 GT PUSH2 0x1AB4 JUMPI DUP3 SWAP1 SUB PUSH1 0x1F AND DUP3 ADD SWAP2 JUMPDEST POP POP POP POP POP DUP2 MSTORE PUSH1 0x20 ADD PUSH1 0x7 DUP3 ADD DUP1 SLOAD PUSH2 0x1AEA SWAP1 PUSH2 0x3500 JUMP JUMPDEST DUP1 PUSH1 0x1F ADD PUSH1 0x20 DUP1 SWAP2 DIV MUL PUSH1 0x20 ADD PUSH1 0x40 MLOAD SWAP1 DUP2 ADD PUSH1 0x40 MSTORE DUP1 SWAP3 SWAP2 SWAP1 DUP2 DUP2 MSTORE PUSH1 0x20 ADD DUP3 DUP1 SLOAD PUSH2 0x1B16 SWAP1 PUSH2 0x3500 JUMP JUMPDEST DUP1 ISZERO PUSH2 0x1B63 JUMPI DUP1 PUSH1 0x1F LT PUSH2 0x1B38 JUMPI PUSH2 0x100 DUP1 DUP4 SLOAD DIV MUL DUP4 MSTORE SWAP2 PUSH1 0x20 ADD SWAP2 PUSH2 0x1B63 JUMP JUMPDEST DUP3 ADD SWAP2 SWAP1 PUSH1 0x0 MSTORE PUSH1 0x20 PUSH1 0x0 KECCAK256 SWAP1 JUMPDEST DUP2 SLOAD DUP2 MSTORE SWAP1 PUSH1 0x1 ADD SWAP1 PUSH1 0x20 ADD DUP1 DUP4 GT PUSH2 0x1B46 JUMPI DUP3 SWAP1 SUB PUSH1 0x1F AND DUP3 ADD SWAP2 JUMPDEST POP POP POP SWAP2 DUP4 MSTORE POP POP PUSH1 0x40 DUP1 MLOAD PUSH1 0x60 DUP2 ADD DUP3 MSTORE PUSH1 0x8 DUP5 ADD SLOAD PUSH1 0xFF SWAP1 DUP2 AND ISZERO ISZERO DUP3 MSTORE PUSH1 0x9 DUP1 DUP7 ADD SLOAD PUSH1 0x20 DUP5 DUP2 ADD SWAP2 SWAP1 SWAP2 MSTORE PUSH1 0xA DUP8 ADD SLOAD DUP5 DUP7 ADD MSTORE DUP6 ADD SWAP3 SWAP1 SWAP3 MSTORE PUSH1 0xB DUP6 ADD SLOAD SWAP3 SWAP1 SWAP4 ADD SWAP3 SWAP2 SWAP1 SWAP2 AND SWAP1 DUP2 GT ISZERO PUSH2 0x1BBF JUMPI PUSH2 0x1BBF PUSH2 0x30EF JUMP JUMPDEST PUSH1 0x9 DUP2 GT ISZERO PUSH2 0x1BD0 JUMPI PUSH2 0x1BD0 PUSH2 0x30EF JUMP JUMPDEST DUP2 MSTORE PUSH1 0x40 DUP1 MLOAD PUSH1 0xC0 DUP2 ADD SWAP1 SWAP2 MSTORE PUSH1 0xC DUP4 ADD DUP1 SLOAD PUSH1 0xFF AND ISZERO ISZERO DUP3 MSTORE PUSH1 0xD DUP5 ADD DUP1 SLOAD PUSH1 0x20 SWAP5 DUP6 ADD SWAP5 DUP5 ADD SWAP2 SWAP1 PUSH2 0x1C03 SWAP1 PUSH2 0x3500 JUMP JUMPDEST DUP1 PUSH1 0x1F ADD PUSH1 0x20 DUP1 SWAP2 DIV MUL PUSH1 0x20 ADD PUSH1 0x40 MLOAD SWAP1 DUP2 ADD PUSH1 0x40 MSTORE DUP1 SWAP3 SWAP2 SWAP1 DUP2 DUP2 MSTORE PUSH1 0x20 ADD DUP3 DUP1 SLOAD PUSH2 0x1C2F SWAP1 PUSH2 0x3500 JUMP JUMPDEST DUP1 ISZERO PUSH2 0x1C7C JUMPI DUP1 PUSH1 0x1F LT PUSH2 0x1C51 JUMPI PUSH2 0x100 DUP1 DUP4 SLOAD DIV MUL DUP4 MSTORE SWAP2 PUSH1 0x20 ADD SWAP2 PUSH2 0x1C7C JUMP JUMPDEST DUP3 ADD SWAP2 SWAP1 PUSH1 0x0 MSTORE PUSH1 0x20 PUSH1 0x0 KECCAK256 SWAP1 JUMPDEST DUP2 SLOAD DUP2 MSTORE SWAP1 PUSH1 0x1 ADD SWAP1 PUSH1 0x20 ADD DUP1 DUP4 GT PUSH2 0x1C5F JUMPI DUP3 SWAP1 SUB PUSH1 0x1F AND DUP3 ADD SWAP2 JUMPDEST POP POP POP POP POP DUP2 MSTORE PUSH1 0x20 ADD PUSH1 0x2 DUP3 ADD DUP1 SLOAD PUSH2 0x1C95 SWAP1 PUSH2 0x3500 JUMP JUMPDEST DUP1 PUSH1 0x1F ADD PUSH1 0x20 DUP1 SWAP2 DIV MUL PUSH1 0x20 ADD PUSH1 0x40 MLOAD SWAP1 DUP2 ADD PUSH1 0x40 MSTORE DUP1 SWAP3 SWAP2 SWAP1 DUP2 DUP2 MSTORE PUSH1 0x20 ADD DUP3 DUP1 SLOAD PUSH2 0x1CC1 SWAP1 PUSH2 0x3500 JUMP JUMPDEST DUP1 ISZERO PUSH2 0x1D0E JUMPI DUP1 PUSH1 0x1F LT PUSH2 0x1CE3 JUMPI PUSH2 0x100 DUP1 DUP4 SLOAD DIV MUL DUP4 MSTORE SWAP2 PUSH1 0x20 ADD SWAP2 PUSH2 0x1D0E JUMP JUMPDEST DUP3 ADD SWAP2 SWAP1 PUSH1 0x0 MSTORE PUSH1 0x20 PUSH1 0x0 KECCAK256 SWAP1 JUMPDEST DUP2 SLOAD DUP2 MSTORE SWAP1 PUSH1 0x1 ADD SWAP1 PUSH1 0x20 ADD DUP1 DUP4 GT PUSH2 0x1CF1 JUMPI DUP3 SWAP1 SUB PUSH1 0x1F AND DUP3 ADD SWAP2 JUMPDEST POP POP POP SWAP2 DUP4 MSTORE POP POP PUSH1 0x3 DUP3 ADD SLOAD PUSH1 0x1 PUSH1 0x1 PUSH1 0xA0 SHL SUB SWAP1 DUP2 AND PUSH1 0x20 DUP1 DUP5 ADD SWAP2 SWAP1 SWAP2 MSTORE PUSH1 0x4 DUP5 ADD SLOAD PUSH1 0x40 DUP1 DUP6 ADD SWAP2 SWAP1 SWAP2 MSTORE PUSH1 0x5 SWAP1 SWAP5 ADD SLOAD PUSH1 0x60 SWAP1 SWAP4 ADD SWAP3 SWAP1 SWAP3 MSTORE SWAP3 DUP5 MSTORE DUP2 MLOAD PUSH1 0x80 DUP2 ADD DUP4 MSTORE PUSH1 0x12 DUP7 ADD DUP1 SLOAD SWAP1 SWAP5 AND DUP2 MSTORE PUSH1 0x13 DUP7 ADD SLOAD DUP2 DUP4 ADD MSTORE PUSH1 0x14 DUP7 ADD DUP1 SLOAD SWAP6 SWAP1 SWAP3 ADD SWAP5 SWAP1 SWAP4 SWAP3 DUP5 ADD SWAP2 SWAP1 PUSH2 0x1D86 SWAP1 PUSH2 0x3500 JUMP JUMPDEST DUP1 PUSH1 0x1F ADD PUSH1 0x20 DUP1 SWAP2 DIV MUL PUSH1 0x20 ADD PUSH1 0x40 MLOAD SWAP1 DUP2 ADD PUSH1 0x40 MSTORE DUP1 SWAP3 SWAP2 SWAP1 DUP2 DUP2 MSTORE PUSH1 0x20 ADD DUP3 DUP1 SLOAD PUSH2 0x1DB2 SWAP1 PUSH2 0x3500 JUMP JUMPDEST DUP1 ISZERO PUSH2 0x1DFF JUMPI DUP1 PUSH1 0x1F LT PUSH2 0x1DD4 JUMPI PUSH2 0x100 DUP1 DUP4 SLOAD DIV MUL DUP4 MSTORE SWAP2 PUSH1 0x20 ADD SWAP2 PUSH2 0x1DFF JUMP JUMPDEST DUP3 ADD SWAP2 SWAP1 PUSH1 0x0 MSTORE PUSH1 0x20 PUSH1 0x0 KECCAK256 SWAP1 JUMPDEST DUP2 SLOAD DUP2 MSTORE SWAP1 PUSH1 0x1 ADD SWAP1 PUSH1 0x20 ADD DUP1 DUP4 GT PUSH2 0x1DE2 JUMPI DUP3 SWAP1 SUB PUSH1 0x1F AND DUP3 ADD SWAP2 JUMPDEST POP POP POP POP POP DUP2 MSTORE PUSH1 0x20 ADD PUSH1 0x3 DUP3 ADD DUP1 SLOAD PUSH2 0x1E18 SWAP1 PUSH2 0x3500 JUMP JUMPDEST DUP1 PUSH1 0x1F ADD PUSH1 0x20 DUP1 SWAP2 DIV MUL PUSH1 0x20 ADD PUSH1 0x40 MLOAD SWAP1 DUP2 ADD PUSH1 0x40 MSTORE DUP1 SWAP3 SWAP2 SWAP1 DUP2 DUP2 MSTORE PUSH1 0x20 ADD DUP3 DUP1 SLOAD PUSH2 0x1E44 SWAP1 PUSH2 0x3500 JUMP JUMPDEST DUP1 ISZERO PUSH2 0x1E91 JUMPI DUP1 PUSH1 0x1F LT PUSH2 0x1E66 JUMPI PUSH2 0x100 DUP1 DUP4 SLOAD DIV MUL DUP4 MSTORE SWAP2 PUSH1 0x20 ADD SWAP2 PUSH2 0x1E91 JUMP JUMPDEST DUP3 ADD SWAP2 SWAP1 PUSH1 0x0 MSTORE PUSH1 0x20 PUSH1 0x0 KECCAK256 SWAP1 JUMPDEST DUP2 SLOAD DUP2 MSTORE SWAP1 PUSH1 0x1 ADD SWAP1 PUSH1 0x20 ADD DUP1 DUP4 GT PUSH2 0x1E74 JUMPI DUP3 SWAP1 SUB PUSH1 0x1F AND DUP3 ADD SWAP2 JUMPDEST POP POP POP POP POP DUP2 MSTORE POP POP DUP2 MSTORE PUSH1 0x20 ADD PUSH1 0x16 DUP3 ADD PUSH1 0x40 MLOAD DUP1 PUSH1 0x60 ADD PUSH1 0x40 MSTORE SWAP1 DUP2 PUSH1 0x0 DUP3 ADD PUSH1 0x0 SWAP1 SLOAD SWAP1 PUSH2 0x100 EXP SWAP1 DIV PUSH1 0x1 PUSH1 0x1 PUSH1 0xA0 SHL SUB AND PUSH1 0x1 PUSH1 0x1 PUSH1 0xA0 SHL SUB AND PUSH1 0x1 PUSH1 0x1 PUSH1 0xA0 SHL SUB AND DUP2 MSTORE PUSH1 0x20 ADD PUSH1 0x1 DUP3 ADD SLOAD DUP2 MSTORE PUSH1 0x20 ADD PUSH1 0x2 DUP3 ADD DUP1 SLOAD PUSH2 0x1EF7 SWAP1 PUSH2 0x3500 JUMP JUMPDEST DUP1 PUSH1 0x1F ADD PUSH1 0x20 DUP1 SWAP2 DIV MUL PUSH1 0x20 ADD PUSH1 0x40 MLOAD SWAP1 DUP2 ADD PUSH1 0x40 MSTORE DUP1 SWAP3 SWAP2 SWAP1 DUP2 DUP2 MSTORE PUSH1 0x20 ADD DUP3 DUP1 SLOAD PUSH2 0x1F23 SWAP1 PUSH2 0x3500 JUMP JUMPDEST DUP1 ISZERO PUSH2 0x1F70 JUMPI DUP1 PUSH1 0x1F LT PUSH2 0x1F45 JUMPI PUSH2 0x100 DUP1 DUP4 SLOAD DIV MUL DUP4 MSTORE SWAP2 PUSH1 0x20 ADD SWAP2 PUSH2 0x1F70 JUMP JUMPDEST DUP3 ADD SWAP2 SWAP1 PUSH1 0x0 MSTORE PUSH1 0x20 PUSH1 0x0 KECCAK256 SWAP1 JUMPDEST DUP2 SLOAD DUP2 MSTORE SWAP1 PUSH1 0x1 ADD SWAP1 PUSH1 0x20 ADD DUP1 DUP4 GT PUSH2 0x1F53 JUMPI DUP3 SWAP1 SUB PUSH1 0x1F AND DUP3 ADD SWAP2 JUMPDEST POP POP POP POP POP DUP2 MSTORE POP POP DUP2 MSTORE PUSH1 0x20 ADD PUSH1 0x19 DUP3 ADD PUSH1 0x0 SWAP1 SLOAD SWAP1 PUSH2 0x100 EXP SWAP1 DIV PUSH1 0xFF AND ISZERO ISZERO ISZERO ISZERO DUP2 MSTORE PUSH1 0x20 ADD PUSH1 0x1A DUP3 ADD PUSH1 0x40 MLOAD DUP1 PUSH1 0xA0 ADD PUSH1 0x40 MSTORE SWAP1 DUP2 PUSH1 0x0 DUP3 ADD SLOAD DUP2 MSTORE PUSH1 0x20 ADD PUSH1 0x1 DUP3 ADD DUP1 SLOAD PUSH2 0x1FC2 SWAP1 PUSH2 0x3500 JUMP JUMPDEST DUP1 PUSH1 0x1F ADD PUSH1 0x20 DUP1 SWAP2 DIV MUL PUSH1 0x20 ADD PUSH1 0x40 MLOAD SWAP1 DUP2 ADD PUSH1 0x40 MSTORE DUP1 SWAP3 SWAP2 SWAP1 DUP2 DUP2 MSTORE PUSH1 0x20 ADD DUP3 DUP1 SLOAD PUSH2 0x1FEE SWAP1 PUSH2 0x3500 JUMP JUMPDEST DUP1 ISZERO PUSH2 0x203B JUMPI DUP1 PUSH1 0x1F LT PUSH2 0x2010 JUMPI PUSH2 0x100 DUP1 DUP4 SLOAD DIV MUL DUP4 MSTORE SWAP2 PUSH1 0x20 ADD SWAP2 PUSH2 0x203B JUMP JUMPDEST DUP3 ADD SWAP2 SWAP1 PUSH1 0x0 MSTORE PUSH1 0x20 PUSH1 0x0 KECCAK256 SWAP1 JUMPDEST DUP2 SLOAD DUP2 MSTORE SWAP1 PUSH1 0x1 ADD SWAP1 PUSH1 0x20 ADD DUP1 DUP4 GT PUSH2 0x201E JUMPI DUP3 SWAP1 SUB PUSH1 0x1F AND DUP3 ADD SWAP2 JUMPDEST POP POP POP SWAP2 DUP4 MSTORE POP POP PUSH1 0x2 DUP3 ADD SLOAD PUSH1 0x1 PUSH1 0x1 PUSH1 0xA0 SHL SUB AND PUSH1 0x20 DUP3 ADD MSTORE PUSH1 0x3 DUP3 ADD SLOAD PUSH1 0x40 DUP3 ADD MSTORE PUSH1 0x4 DUP3 ADD DUP1 SLOAD PUSH1 0x60 SWAP1 SWAP3 ADD SWAP2 PUSH2 0x2075 SWAP1 PUSH2 0x3500 JUMP JUMPDEST DUP1 PUSH1 0x1F ADD PUSH1 0x20 DUP1 SWAP2 DIV MUL PUSH1 0x20 ADD PUSH1 0x40 MLOAD SWAP1 DUP2 ADD PUSH1 0x40 MSTORE DUP1 SWAP3 SWAP2 SWAP1 DUP2 DUP2 MSTORE PUSH1 0x20 ADD DUP3 DUP1 SLOAD PUSH2 0x20A1 SWAP1 PUSH2 0x3500 JUMP JUMPDEST DUP1 ISZERO PUSH2 0x20EE JUMPI DUP1 PUSH1 0x1F LT PUSH2 0x20C3 JUMPI PUSH2 0x100 DUP1 DUP4 SLOAD DIV MUL DUP4 MSTORE SWAP2 PUSH1 0x20 ADD SWAP2 PUSH2 0x20EE JUMP JUMPDEST DUP3 ADD SWAP2 SWAP1 PUSH1 0x0 MSTORE PUSH1 0x20 PUSH1 0x0 KECCAK256 SWAP1 JUMPDEST DUP2 SLOAD DUP2 MSTORE SWAP1 PUSH1 0x1 ADD SWAP1 PUSH1 0x20 ADD DUP1 DUP4 GT PUSH2 0x20D1 JUMPI DUP3 SWAP1 SUB PUSH1 0x1F AND DUP3 ADD SWAP2 JUMPDEST POP POP POP POP POP DUP2 MSTORE POP POP DUP2 MSTORE PUSH1 0x20 ADD PUSH1 0x1F DUP3 ADD DUP1 SLOAD PUSH2 0x210B SWAP1 PUSH2 0x3500 JUMP JUMPDEST DUP1 PUSH1 0x1F ADD PUSH1 0x20 DUP1 SWAP2 DIV MUL PUSH1 0x20 ADD PUSH1 0x40 MLOAD SWAP1 DUP2 ADD PUSH1 0x40 MSTORE DUP1 SWAP3 SWAP2 SWAP1 DUP2 DUP2 MSTORE PUSH1 0x20 ADD DUP3 DUP1 SLOAD PUSH2 0x2137 SWAP1 PUSH2 0x3500 JUMP JUMPDEST DUP1 ISZERO PUSH2 0x2184 JUMPI DUP1 PUSH1 0x1F LT PUSH2 0x2159 JUMPI PUSH2 0x100 DUP1 DUP4 SLOAD DIV MUL DUP4 MSTORE SWAP2 PUSH1 0x20 ADD SWAP2 PUSH2 0x2184 JUMP JUMPDEST DUP3 ADD SWAP2 SWAP1 PUSH1 0x0 MSTORE PUSH1 0x20 PUSH1 0x0 KECCAK256 SWAP1 JUMPDEST DUP2 SLOAD DUP2 MSTORE SWAP1 PUSH1 0x1 ADD SWAP1 PUSH1 0x20 ADD DUP1 DUP4 GT PUSH2 0x2167 JUMPI DUP3 SWAP1 SUB PUSH1 0x1F AND DUP3 ADD SWAP2 JUMPDEST POP POP POP POP POP DUP2 MSTORE PUSH1 0x20 ADD PUSH1 0x20 DUP3 ADD SLOAD DUP2 MSTORE PUSH1 0x20 ADD PUSH1 0x21 DUP3 ADD SLOAD DUP2 MSTORE POP POP SWAP1 POP SWAP2 SWAP1 POP JUMP JUMPDEST CALLER PUSH1 0x0 SWAP1 DUP2 MSTORE PUSH32 0x7D7FFB7A348E1C6A02869081A26547B49160DD3DF72D1D75A570EB9B698292EC PUSH1 0x20 MSTORE PUSH1 0x40 SWAP1 KECCAK256 SLOAD PUSH32 0xA49807205CE4D355092EF5A8A18F56E8913CF4A201FBE287825B095693C21775 SWAP1 PUSH1 0xFF AND PUSH2 0x2218 JUMPI PUSH1 0x40 MLOAD PUSH3 0x461BCD PUSH1 0xE5 SHL DUP2 MSTORE PUSH1 0x4 ADD PUSH2 0x3BE SWAP1 PUSH2 0x3662 JUMP JUMPDEST PUSH1 0x0 DUP4 DUP2 MSTORE PUSH1 0x20 DUP2 DUP2 MSTORE PUSH1 0x40 DUP1 DUP4 KECCAK256 PUSH1 0x1 PUSH1 0x1 PUSH1 0xA0 SHL SUB DUP7 AND DUP1 DUP6 MSTORE SWAP3 MSTORE DUP1 DUP4 KECCAK256 DUP1 SLOAD PUSH1 0xFF NOT AND SWAP1 SSTORE MLOAD SWAP1 SWAP2 DUP6 SWAP2 PUSH32 0x155AAAFB6329A2098580462DF33EC4B7441B19729B9601C5FC17AE1CF99A8A52 SWAP2 SWAP1 LOG3 POP POP POP JUMP JUMPDEST CALLER PUSH1 0x0 SWAP1 DUP2 MSTORE PUSH32 0xF49C6599D59825218936D81B3AF67BAD9CF74FFB3255B811063828E9161373A8 PUSH1 0x20 MSTORE PUSH1 0x40 SWAP1 KECCAK256 SLOAD PUSH32 0x373FDAC787BE5578B9A3D4A9CA3E3AE1E632AB5EE4750E92F65223238A15B2EF SWAP1 PUSH1 0xFF AND PUSH2 0x22DF JUMPI PUSH1 0x40 MLOAD PUSH3 0x461BCD PUSH1 0xE5 SHL DUP2 MSTORE PUSH1 0x4 ADD PUSH2 0x3BE SWAP1 PUSH2 0x3662 JUMP JUMPDEST PUSH1 0x3 DUP6 PUSH1 0x40 MLOAD PUSH2 0x22EF SWAP2 SWAP1 PUSH2 0x34B6 JUMP JUMPDEST SWAP1 DUP2 MSTORE PUSH1 0x40 MLOAD SWAP1 DUP2 SWAP1 SUB PUSH1 0x20 ADD SWAP1 KECCAK256 SLOAD PUSH1 0xFF AND PUSH2 0x231E JUMPI PUSH1 0x40 MLOAD PUSH3 0x461BCD PUSH1 0xE5 SHL DUP2 MSTORE PUSH1 0x4 ADD PUSH2 0x3BE SWAP1 PUSH2 0x34D2 JUMP JUMPDEST PUSH1 0x0 PUSH1 0x1 DUP7 PUSH1 0x40 MLOAD PUSH2 0x2330 SWAP2 SWAP1 PUSH2 0x34B6 JUMP JUMPDEST SWAP1 DUP2 MSTORE PUSH1 0x40 MLOAD SWAP1 DUP2 SWAP1 SUB PUSH1 0x20 ADD SWAP1 KECCAK256 SWAP1 POP PUSH1 0x1 PUSH1 0xB DUP3 ADD SLOAD PUSH1 0xFF AND PUSH1 0x9 DUP2 GT ISZERO PUSH2 0x235C JUMPI PUSH2 0x235C PUSH2 0x30EF JUMP JUMPDEST EQ PUSH2 0x23A9 JUMPI PUSH1 0x40 MLOAD PUSH3 0x461BCD PUSH1 0xE5 SHL DUP2 MSTORE PUSH1 0x20 PUSH1 0x4 DUP3 ADD MSTORE PUSH1 0x1E PUSH1 0x24 DUP3 ADD MSTORE PUSH32 0x4261746368206E6F7420696E204C41425F54455354494E472073746174650000 PUSH1 0x44 DUP3 ADD MSTORE PUSH1 0x64 ADD PUSH2 0x3BE JUMP JUMPDEST DUP5 PUSH2 0x23B5 JUMPI PUSH1 0x3 PUSH2 0x23B8 JUMP JUMPDEST PUSH1 0x2 JUMPDEST PUSH1 0xB DUP3 ADD DUP1 SLOAD PUSH1 0xFF NOT AND PUSH1 0x1 DUP4 PUSH1 0x9 DUP2 GT ISZERO PUSH2 0x23D6 JUMPI PUSH2 0x23D6 PUSH2 0x30EF JUMP JUMPDEST MUL OR SWAP1 SSTORE POP PUSH1 0x40 MLOAD DUP1 PUSH1 0xC0 ADD PUSH1 0x40 MSTORE DUP1 DUP7 ISZERO ISZERO DUP2 MSTORE PUSH1 0x20 ADD DUP6 DUP2 MSTORE PUSH1 0x20 ADD DUP5 DUP2 MSTORE PUSH1 0x20 ADD CALLER PUSH1 0x1 PUSH1 0x1 PUSH1 0xA0 SHL SUB AND DUP2 MSTORE PUSH1 0x20 ADD TIMESTAMP DUP2 MSTORE PUSH1 0x20 ADD TIMESTAMP PUSH3 0x76A700 PUSH2 0x241E SWAP2 SWAP1 PUSH2 0x3702 JUMP JUMPDEST SWAP1 MSTORE DUP1 MLOAD PUSH1 0xC DUP4 ADD DUP1 SLOAD PUSH1 0xFF NOT AND SWAP2 ISZERO ISZERO SWAP2 SWAP1 SWAP2 OR DUP2 SSTORE PUSH1 0x20 DUP3 ADD MLOAD PUSH1 0xD DUP5 ADD SWAP1 PUSH2 0x2449 SWAP1 DUP3 PUSH2 0x3588 JUMP JUMPDEST POP PUSH1 0x40 DUP3 ADD MLOAD PUSH1 0x2 DUP3 ADD SWAP1 PUSH2 0x245E SWAP1 DUP3 PUSH2 0x3588 JUMP JUMPDEST POP PUSH1 0x60 DUP3 ADD MLOAD PUSH1 0x3 DUP3 ADD DUP1 SLOAD PUSH1 0x1 PUSH1 0x1 PUSH1 0xA0 SHL SUB NOT AND PUSH1 0x1 PUSH1 0x1 PUSH1 0xA0 SHL SUB SWAP1 SWAP3 AND SWAP2 SWAP1 SWAP2 OR SWAP1 SSTORE PUSH1 0x80 DUP3 ADD MLOAD PUSH1 0x4 DUP3 ADD SSTORE PUSH1 0xA0 SWAP1 SWAP2 ADD MLOAD PUSH1 0x5 SWAP1 SWAP2 ADD SSTORE TIMESTAMP PUSH1 0x21 DUP3 ADD SSTORE PUSH1 0x40 MLOAD PUSH2 0x24AF SWAP1 DUP8 SWAP1 PUSH2 0x34B6 JUMP JUMPDEST PUSH1 0x40 MLOAD SWAP1 DUP2 SWAP1 SUB DUP2 KECCAK256 DUP7 ISZERO ISZERO DUP3 MSTORE SWAP1 PUSH32 0x776A51D429D321E473A7488C189FDD51E248403CC4A6A80E42F475FBF01E56D SWAP1 PUSH1 0x20 ADD PUSH1 0x40 MLOAD DUP1 SWAP2 SUB SWAP1 LOG2 POP POP POP POP POP POP JUMP JUMPDEST CALLER PUSH1 0x0 SWAP1 DUP2 MSTORE PUSH1 0x0 DUP1 MLOAD PUSH1 0x20 PUSH2 0x373C DUP4 CODECOPY DUP2 MLOAD SWAP2 MSTORE PUSH1 0x20 MSTORE PUSH1 0x40 SWAP1 KECCAK256 SLOAD PUSH1 0x0 DUP1 MLOAD PUSH1 0x20 PUSH2 0x371C DUP4 CODECOPY DUP2 MLOAD SWAP2 MSTORE SWAP1 PUSH1 0xFF AND PUSH2 0x253F JUMPI PUSH1 0x40 MLOAD PUSH3 0x461BCD PUSH1 0xE5 SHL DUP2 MSTORE PUSH1 0x4 ADD PUSH2 0x3BE SWAP1 PUSH2 0x3662 JUMP JUMPDEST PUSH1 0x3 DUP4 PUSH1 0x40 MLOAD PUSH2 0x254F SWAP2 SWAP1 PUSH2 0x34B6 JUMP JUMPDEST SWAP1 DUP2 MSTORE PUSH1 0x40 MLOAD SWAP1 DUP2 SWAP1 SUB PUSH1 0x20 ADD SWAP1 KECCAK256 SLOAD PUSH1 0xFF AND PUSH2 0x257E JUMPI PUSH1 0x40 MLOAD PUSH3 0x461BCD PUSH1 0xE5 SHL DUP2 MSTORE PUSH1 0x4 ADD PUSH2 0x3BE SWAP1 PUSH2 0x34D2 JUMP JUMPDEST PUSH1 0x0 PUSH1 0x1 DUP5 PUSH1 0x40 MLOAD PUSH2 0x2590 SWAP2 SWAP1 PUSH2 0x34B6 JUMP JUMPDEST SWAP1 DUP2 MSTORE PUSH1 0x40 MLOAD SWAP1 DUP2 SWAP1 SUB PUSH1 0x20 ADD SWAP1 KECCAK256 SWAP1 POP PUSH1 0x4 PUSH1 0xB DUP3 ADD SLOAD PUSH1 0xFF AND PUSH1 0x9 DUP2 GT ISZERO PUSH2 0x25BC JUMPI PUSH2 0x25BC PUSH2 0x30EF JUMP JUMPDEST EQ PUSH2 0x2609 JUMPI PUSH1 0x40 MLOAD PUSH3 0x461BCD PUSH1 0xE5 SHL DUP2 MSTORE PUSH1 0x20 PUSH1 0x4 DUP3 ADD MSTORE PUSH1 0x18 PUSH1 0x24 DUP3 ADD MSTORE PUSH32 0x4261746368206D75737420626520494E5F5452414E5349540000000000000000 PUSH1 0x44 DUP3 ADD MSTORE PUSH1 0x64 ADD PUSH2 0x3BE JUMP JUMPDEST PUSH1 0x40 DUP1 MLOAD PUSH1 0x60 DUP2 ADD DUP3 MSTORE CALLER DUP1 DUP3 MSTORE TIMESTAMP PUSH1 0x20 DUP4 ADD DUP2 SWAP1 MSTORE SWAP3 DUP3 ADD DUP7 SWAP1 MSTORE PUSH1 0x16 DUP5 ADD DUP1 SLOAD PUSH1 0x1 PUSH1 0x1 PUSH1 0xA0 SHL SUB NOT AND SWAP1 SWAP2 OR DUP2 SSTORE PUSH1 0x17 DUP5 ADD SWAP3 SWAP1 SWAP3 SSTORE SWAP1 PUSH1 0x18 DUP4 ADD PUSH2 0x2651 DUP7 DUP3 PUSH2 0x3588 JUMP JUMPDEST POP POP POP PUSH1 0xB DUP2 ADD DUP1 SLOAD PUSH1 0xFF NOT SWAP1 DUP2 AND PUSH1 0x5 OR SWAP1 SWAP2 SSTORE PUSH1 0x19 DUP3 ADD DUP1 SLOAD SWAP1 SWAP2 AND PUSH1 0x1 OR SWAP1 SSTORE TIMESTAMP PUSH1 0x21 DUP3 ADD SSTORE PUSH1 0x40 MLOAD PUSH2 0x2688 SWAP1 DUP6 SWAP1 PUSH2 0x34B6 JUMP JUMPDEST PUSH1 0x40 MLOAD SWAP1 DUP2 SWAP1 SUB DUP2 KECCAK256 SWAP1 PUSH32 0xF6FCAEB57E0DD63E8DEDBDE575D552C03F4EEC87068896A7D130BA64CD9A4483 SWAP1 PUSH1 0x0 SWAP1 LOG2 POP POP POP POP JUMP JUMPDEST PUSH1 0x0 DUP3 DUP2 MSTORE PUSH1 0x20 DUP2 DUP2 MSTORE PUSH1 0x40 DUP1 DUP4 KECCAK256 PUSH1 0x1 PUSH1 0x1 PUSH1 0xA0 SHL SUB DUP6 AND DUP1 DUP6 MSTORE SWAP3 MSTORE DUP1 DUP4 KECCAK256 DUP1 SLOAD PUSH1 0xFF NOT AND PUSH1 0x1 OR SWAP1 SSTORE MLOAD SWAP1 SWAP2 DUP5 SWAP2 PUSH32 0x2AE6A113C0ED5B78A53413FFBB7679881F11145CCFBA4FB92E863DFCD5A1D2F3 SWAP2 SWAP1 LOG3 POP POP JUMP JUMPDEST DUP3 DUP1 SLOAD DUP3 DUP3 SSTORE SWAP1 PUSH1 0x0 MSTORE PUSH1 0x20 PUSH1 0x0 KECCAK256 SWAP1 DUP2 ADD SWAP3 DUP3 ISZERO PUSH2 0x275D JUMPI SWAP2 PUSH1 0x20 MUL DUP3 ADD JUMPDEST DUP3 DUP2 GT ISZERO PUSH2 0x275D JUMPI DUP3 MLOAD DUP3 SWAP1 PUSH2 0x274D SWAP1 DUP3 PUSH2 0x3588 JUMP JUMPDEST POP SWAP2 PUSH1 0x20 ADD SWAP2 SWAP1 PUSH1 0x1 ADD SWAP1 PUSH2 0x2737 JUMP JUMPDEST POP PUSH2 0x2769 SWAP3 SWAP2 POP PUSH2 0x28FF JUMP JUMPDEST POP SWAP1 JUMP JUMPDEST PUSH1 0x40 MLOAD DUP1 PUSH2 0x240 ADD PUSH1 0x40 MSTORE DUP1 PUSH1 0x60 DUP2 MSTORE PUSH1 0x20 ADD PUSH1 0x0 PUSH1 0x1 PUSH1 0x1 PUSH1 0xA0 SHL SUB AND DUP2 MSTORE PUSH1 0x20 ADD PUSH1 0x60 DUP2 MSTORE PUSH1 0x20 ADD PUSH1 0x0 DUP2 MSTORE PUSH1 0x20 ADD PUSH1 0x60 DUP2 MSTORE PUSH1 0x20 ADD PUSH1 0x60 DUP2 MSTORE PUSH1 0x20 ADD PUSH1 0x60 DUP2 MSTORE PUSH1 0x20 ADD PUSH1 0x60 DUP2 MSTORE PUSH1 0x20 ADD PUSH2 0x27E0 PUSH1 0x40 MLOAD DUP1 PUSH1 0x60 ADD PUSH1 0x40 MSTORE DUP1 PUSH1 0x0 ISZERO ISZERO DUP2 MSTORE PUSH1 0x20 ADD PUSH1 0x0 DUP2 MSTORE PUSH1 0x20 ADD PUSH1 0x0 DUP2 MSTORE POP SWAP1 JUMP JUMPDEST DUP2 MSTORE PUSH1 0x20 ADD PUSH1 0x0 DUP2 MSTORE PUSH1 0x20 ADD PUSH2 0x2830 PUSH1 0x40 MLOAD DUP1 PUSH1 0xC0 ADD PUSH1 0x40 MSTORE DUP1 PUSH1 0x0 ISZERO ISZERO DUP2 MSTORE PUSH1 0x20 ADD PUSH1 0x60 DUP2 MSTORE PUSH1 0x20 ADD PUSH1 0x60 DUP2 MSTORE PUSH1 0x20 ADD PUSH1 0x0 PUSH1 0x1 PUSH1 0x1 PUSH1 0xA0 SHL SUB AND DUP2 MSTORE PUSH1 0x20 ADD PUSH1 0x0 DUP2 MSTORE PUSH1 0x20 ADD PUSH1 0x0 DUP2 MSTORE POP SWAP1 JUMP JUMPDEST DUP2 MSTORE PUSH1 0x20 ADD PUSH2 0x2869 PUSH1 0x40 MLOAD DUP1 PUSH1 0x80 ADD PUSH1 0x40 MSTORE DUP1 PUSH1 0x0 PUSH1 0x1 PUSH1 0x1 PUSH1 0xA0 SHL SUB AND DUP2 MSTORE PUSH1 0x20 ADD PUSH1 0x0 DUP2 MSTORE PUSH1 0x20 ADD PUSH1 0x60 DUP2 MSTORE PUSH1 0x20 ADD PUSH1 0x60 DUP2 MSTORE POP SWAP1 JUMP JUMPDEST DUP2 MSTORE PUSH1 0x20 ADD PUSH2 0x289B PUSH1 0x40 MLOAD DUP1 PUSH1 0x60 ADD PUSH1 0x40 MSTORE DUP1 PUSH1 0x0 PUSH1 0x1 PUSH1 0x1 PUSH1 0xA0 SHL SUB AND DUP2 MSTORE PUSH1 0x20 ADD PUSH1 0x0 DUP2 MSTORE PUSH1 0x20 ADD PUSH1 0x60 DUP2 MSTORE POP SWAP1 JUMP JUMPDEST DUP2 MSTORE PUSH1 0x20 ADD PUSH1 0x0 ISZERO ISZERO DUP2 MSTORE PUSH1 0x20 ADD PUSH2 0x28E4 PUSH1 0x40 MLOAD DUP1 PUSH1 0xA0 ADD PUSH1 0x40 MSTORE DUP1 PUSH1 0x0 DUP2 MSTORE PUSH1 0x20 ADD PUSH1 0x60 DUP2 MSTORE PUSH1 0x20 ADD PUSH1 0x0 PUSH1 0x1 PUSH1 0x1 PUSH1 0xA0 SHL SUB AND DUP2 MSTORE PUSH1 0x20 ADD PUSH1 0x0 DUP2 MSTORE PUSH1 0x20 ADD PUSH1 0x60 DUP2 MSTORE POP SWAP1 JUMP JUMPDEST DUP2 MSTORE PUSH1 0x20 ADD PUSH1 0x60 DUP2 MSTORE PUSH1 0x20 ADD PUSH1 0x0 DUP2 MSTORE PUSH1 0x20 ADD PUSH1 0x0 DUP2 MSTORE POP SWAP1 JUMP JUMPDEST DUP1 DUP3 GT ISZERO PUSH2 0x2769 JUMPI PUSH1 0x0 PUSH2 0x2913 DUP3 DUP3 PUSH2 0x291C JUMP JUMPDEST POP PUSH1 0x1 ADD PUSH2 0x28FF JUMP JUMPDEST POP DUP1 SLOAD PUSH2 0x2928 SWAP1 PUSH2 0x3500 JUMP JUMPDEST PUSH1 0x0 DUP3 SSTORE DUP1 PUSH1 0x1F LT PUSH2 0x2938 JUMPI POP POP JUMP JUMPDEST PUSH1 0x1F ADD PUSH1 0x20 SWAP1 DIV SWAP1 PUSH1 0x0 MSTORE PUSH1 0x20 PUSH1 0x0 KECCAK256 SWAP1 DUP2 ADD SWAP1 PUSH2 0x2956 SWAP2 SWAP1 PUSH2 0x2959 JUMP JUMPDEST POP JUMP JUMPDEST JUMPDEST DUP1 DUP3 GT ISZERO PUSH2 0x2769 JUMPI PUSH1 0x0 DUP2 SSTORE PUSH1 0x1 ADD PUSH2 0x295A JUMP JUMPDEST PUSH4 0x4E487B71 PUSH1 0xE0 SHL PUSH1 0x0 MSTORE PUSH1 0x41 PUSH1 0x4 MSTORE PUSH1 0x24 PUSH1 0x0 REVERT JUMPDEST PUSH1 0x40 MLOAD PUSH1 0x1F DUP3 ADD PUSH1 0x1F NOT AND DUP2 ADD PUSH8 0xFFFFFFFFFFFFFFFF DUP2 GT DUP3 DUP3 LT OR ISZERO PUSH2 0x29AD JUMPI PUSH2 0x29AD PUSH2 0x296E JUMP JUMPDEST PUSH1 0x40 MSTORE SWAP2 SWAP1 POP JUMP JUMPDEST PUSH1 0x0 DUP3 PUSH1 0x1F DUP4 ADD SLT PUSH2 0x29C6 JUMPI PUSH1 0x0 DUP1 REVERT JUMPDEST DUP2 CALLDATALOAD PUSH8 0xFFFFFFFFFFFFFFFF DUP2 GT ISZERO PUSH2 0x29E0 JUMPI PUSH2 0x29E0 PUSH2 0x296E JUMP JUMPDEST PUSH2 0x29F3 PUSH1 0x1F DUP3 ADD PUSH1 0x1F NOT AND PUSH1 0x20 ADD PUSH2 0x2984 JUMP JUMPDEST DUP2 DUP2 MSTORE DUP5 PUSH1 0x20 DUP4 DUP7 ADD ADD GT ISZERO PUSH2 0x2A08 JUMPI PUSH1 0x0 DUP1 REVERT JUMPDEST DUP2 PUSH1 0x20 DUP6 ADD PUSH1 0x20 DUP4 ADD CALLDATACOPY PUSH1 0x0 SWAP2 DUP2 ADD PUSH1 0x20 ADD SWAP2 SWAP1 SWAP2 MSTORE SWAP4 SWAP3 POP POP POP JUMP JUMPDEST PUSH1 0x0 DUP1 PUSH1 0x40 DUP4 DUP6 SUB SLT ISZERO PUSH2 0x2A38 JUMPI PUSH1 0x0 DUP1 REVERT JUMPDEST DUP3 CALLDATALOAD PUSH8 0xFFFFFFFFFFFFFFFF DUP1 DUP3 GT ISZERO PUSH2 0x2A50 JUMPI PUSH1 0x0 DUP1 REVERT JUMPDEST PUSH2 0x2A5C DUP7 DUP4 DUP8 ADD PUSH2 0x29B5 JUMP JUMPDEST SWAP4 POP PUSH1 0x20 DUP6 ADD CALLDATALOAD SWAP2 POP DUP1 DUP3 GT ISZERO PUSH2 0x2A72 JUMPI PUSH1 0x0 DUP1 REVERT JUMPDEST POP PUSH2 0x2A7F DUP6 DUP3 DUP7 ADD PUSH2 0x29B5 JUMP JUMPDEST SWAP2 POP POP SWAP3 POP SWAP3 SWAP1 POP JUMP JUMPDEST PUSH1 0x0 PUSH1 0x20 DUP3 DUP5 SUB SLT ISZERO PUSH2 0x2A9B JUMPI PUSH1 0x0 DUP1 REVERT JUMPDEST DUP2 CALLDATALOAD PUSH8 0xFFFFFFFFFFFFFFFF DUP2 GT ISZERO PUSH2 0x2AB2 JUMPI PUSH1 0x0 DUP1 REVERT JUMPDEST PUSH2 0x2ABE DUP5 DUP3 DUP6 ADD PUSH2 0x29B5 JUMP JUMPDEST SWAP5 SWAP4 POP POP POP POP JUMP JUMPDEST PUSH1 0x0 DUP1 PUSH1 0x40 DUP4 DUP6 SUB SLT ISZERO PUSH2 0x2AD9 JUMPI PUSH1 0x0 DUP1 REVERT JUMPDEST DUP3 CALLDATALOAD SWAP2 POP PUSH1 0x20 DUP4 ADD CALLDATALOAD PUSH1 0x1 PUSH1 0x1 PUSH1 0xA0 SHL SUB DUP2 AND DUP2 EQ PUSH2 0x2AF7 JUMPI PUSH1 0x0 DUP1 REVERT JUMPDEST DUP1 SWAP2 POP POP SWAP3 POP SWAP3 SWAP1 POP JUMP JUMPDEST PUSH1 0x0 DUP3 PUSH1 0x1F DUP4 ADD SLT PUSH2 0x2B13 JUMPI PUSH1 0x0 DUP1 REVERT JUMPDEST DUP2 CALLDATALOAD PUSH1 0x20 PUSH8 0xFFFFFFFFFFFFFFFF DUP1 DUP4 GT ISZERO PUSH2 0x2B30 JUMPI PUSH2 0x2B30 PUSH2 0x296E JUMP JUMPDEST DUP3 PUSH1 0x5 SHL PUSH2 0x2B3F DUP4 DUP3 ADD PUSH2 0x2984 JUMP JUMPDEST SWAP4 DUP5 MSTORE DUP6 DUP2 ADD DUP4 ADD SWAP4 DUP4 DUP2 ADD SWAP1 DUP9 DUP7 GT ISZERO PUSH2 0x2B59 JUMPI PUSH1 0x0 DUP1 REVERT JUMPDEST DUP5 DUP9 ADD SWAP3 POP JUMPDEST DUP6 DUP4 LT ISZERO PUSH2 0x2B95 JUMPI DUP3 CALLDATALOAD DUP5 DUP2 GT ISZERO PUSH2 0x2B77 JUMPI PUSH1 0x0 DUP1 DUP2 REVERT JUMPDEST PUSH2 0x2B85 DUP11 DUP8 DUP4 DUP13 ADD ADD PUSH2 0x29B5 JUMP JUMPDEST DUP4 MSTORE POP SWAP2 DUP5 ADD SWAP2 SWAP1 DUP5 ADD SWAP1 PUSH2 0x2B5F JUMP JUMPDEST SWAP9 SWAP8 POP POP POP POP POP POP POP POP JUMP JUMPDEST PUSH1 0x0 DUP1 PUSH1 0x0 DUP1 PUSH1 0x0 DUP1 PUSH1 0x0 DUP1 PUSH2 0x100 DUP10 DUP12 SUB SLT ISZERO PUSH2 0x2BBE JUMPI PUSH1 0x0 DUP1 REVERT JUMPDEST DUP9 CALLDATALOAD PUSH8 0xFFFFFFFFFFFFFFFF DUP1 DUP3 GT ISZERO PUSH2 0x2BD6 JUMPI PUSH1 0x0 DUP1 REVERT JUMPDEST PUSH2 0x2BE2 DUP13 DUP4 DUP14 ADD PUSH2 0x29B5 JUMP JUMPDEST SWAP10 POP PUSH1 0x20 DUP12 ADD CALLDATALOAD SWAP2 POP DUP1 DUP3 GT ISZERO PUSH2 0x2BF8 JUMPI PUSH1 0x0 DUP1 REVERT JUMPDEST PUSH2 0x2C04 DUP13 DUP4 DUP14 ADD PUSH2 0x29B5 JUMP JUMPDEST SWAP9 POP PUSH1 0x40 DUP12 ADD CALLDATALOAD SWAP2 POP DUP1 DUP3 GT ISZERO PUSH2 0x2C1A JUMPI PUSH1 0x0 DUP1 REVERT JUMPDEST PUSH2 0x2C26 DUP13 DUP4 DUP14 ADD PUSH2 0x29B5 JUMP JUMPDEST SWAP8 POP PUSH1 0x60 DUP12 ADD CALLDATALOAD SWAP2 POP DUP1 DUP3 GT ISZERO PUSH2 0x2C3C JUMPI PUSH1 0x0 DUP1 REVERT JUMPDEST PUSH2 0x2C48 DUP13 DUP4 DUP14 ADD PUSH2 0x2B02 JUMP JUMPDEST SWAP7 POP PUSH1 0x80 DUP12 ADD CALLDATALOAD SWAP2 POP DUP1 DUP3 GT ISZERO PUSH2 0x2C5E JUMPI PUSH1 0x0 DUP1 REVERT JUMPDEST PUSH2 0x2C6A DUP13 DUP4 DUP14 ADD PUSH2 0x29B5 JUMP JUMPDEST SWAP6 POP PUSH1 0xA0 DUP12 ADD CALLDATALOAD SWAP2 POP DUP1 DUP3 GT ISZERO PUSH2 0x2C80 JUMPI PUSH1 0x0 DUP1 REVERT JUMPDEST PUSH2 0x2C8C DUP13 DUP4 DUP14 ADD PUSH2 0x29B5 JUMP JUMPDEST SWAP5 POP PUSH1 0xC0 DUP12 ADD CALLDATALOAD SWAP4 POP PUSH1 0xE0 DUP12 ADD CALLDATALOAD SWAP2 POP DUP1 DUP3 GT ISZERO PUSH2 0x2CA9 JUMPI PUSH1 0x0 DUP1 REVERT JUMPDEST POP PUSH2 0x2CB6 DUP12 DUP3 DUP13 ADD PUSH2 0x29B5 JUMP JUMPDEST SWAP2 POP POP SWAP3 SWAP6 SWAP9 POP SWAP3 SWAP6 SWAP9 SWAP1 SWAP4 SWAP7 POP JUMP JUMPDEST PUSH1 0x0 DUP1 PUSH1 0x0 PUSH1 0x60 DUP5 DUP7 SUB SLT ISZERO PUSH2 0x2CDB JUMPI PUSH1 0x0 DUP1 REVERT JUMPDEST DUP4 CALLDATALOAD PUSH8 0xFFFFFFFFFFFFFFFF DUP1 DUP3 GT ISZERO PUSH2 0x2CF3 JUMPI PUSH1 0x0 DUP1 REVERT JUMPDEST PUSH2 0x2CFF DUP8 DUP4 DUP9 ADD PUSH2 0x29B5 JUMP JUMPDEST SWAP5 POP PUSH1 0x20 DUP7 ADD CALLDATALOAD SWAP2 POP DUP1 DUP3 GT ISZERO PUSH2 0x2D15 JUMPI PUSH1 0x0 DUP1 REVERT JUMPDEST PUSH2 0x2D21 DUP8 DUP4 DUP9 ADD PUSH2 0x29B5 JUMP JUMPDEST SWAP4 POP PUSH1 0x40 DUP7 ADD CALLDATALOAD SWAP2 POP DUP1 DUP3 GT ISZERO PUSH2 0x2D37 JUMPI PUSH1 0x0 DUP1 REVERT JUMPDEST POP PUSH2 0x2D44 DUP7 DUP3 DUP8 ADD PUSH2 0x29B5 JUMP JUMPDEST SWAP2 POP POP SWAP3 POP SWAP3 POP SWAP3 JUMP JUMPDEST PUSH1 0x0 JUMPDEST DUP4 DUP2 LT ISZERO PUSH2 0x2D69 JUMPI DUP2 DUP2 ADD MLOAD DUP4 DUP3 ADD MSTORE PUSH1 0x20 ADD PUSH2 0x2D51 JUMP JUMPDEST POP POP PUSH1 0x0 SWAP2 ADD MSTORE JUMP JUMPDEST PUSH1 0x0 DUP2 MLOAD DUP1 DUP5 MSTORE PUSH2 0x2D8A DUP2 PUSH1 0x20 DUP7 ADD PUSH1 0x20 DUP7 ADD PUSH2 0x2D4E JUMP JUMPDEST PUSH1 0x1F ADD PUSH1 0x1F NOT AND SWAP3 SWAP1 SWAP3 ADD PUSH1 0x20 ADD SWAP3 SWAP2 POP POP JUMP JUMPDEST PUSH1 0x0 DUP2 MLOAD DUP1 DUP5 MSTORE PUSH1 0x20 DUP1 DUP6 ADD DUP1 DUP2 SWAP7 POP DUP4 PUSH1 0x5 SHL DUP2 ADD SWAP2 POP DUP3 DUP7 ADD PUSH1 0x0 JUMPDEST DUP6 DUP2 LT ISZERO PUSH2 0x2DE6 JUMPI DUP3 DUP5 SUB DUP10 MSTORE PUSH2 0x2DD4 DUP5 DUP4 MLOAD PUSH2 0x2D72 JUMP JUMPDEST SWAP9 DUP6 ADD SWAP9 SWAP4 POP SWAP1 DUP5 ADD SWAP1 PUSH1 0x1 ADD PUSH2 0x2DBC JUMP JUMPDEST POP SWAP2 SWAP8 SWAP7 POP POP POP POP POP POP POP JUMP JUMPDEST PUSH1 0x20 DUP2 MSTORE PUSH1 0x0 DUP3 MLOAD PUSH2 0x180 DUP1 PUSH1 0x20 DUP6 ADD MSTORE PUSH2 0x2E12 PUSH2 0x1A0 DUP6 ADD DUP4 PUSH2 0x2D72 JUMP JUMPDEST SWAP2 POP PUSH1 0x20 DUP6 ADD MLOAD PUSH2 0x2E2E PUSH1 0x40 DUP7 ADD DUP3 PUSH1 0x1 PUSH1 0x1 PUSH1 0xA0 SHL SUB AND SWAP1 MSTORE JUMP JUMPDEST POP PUSH1 0x40 DUP6 ADD MLOAD PUSH1 0x1F NOT DUP1 DUP7 DUP6 SUB ADD PUSH1 0x60 DUP8 ADD MSTORE PUSH2 0x2E4B DUP5 DUP4 PUSH2 0x2D72 JUMP JUMPDEST SWAP4 POP PUSH1 0x60 DUP8 ADD MLOAD SWAP2 POP DUP1 DUP7 DUP6 SUB ADD PUSH1 0x80 DUP8 ADD MSTORE PUSH2 0x2E68 DUP5 DUP4 PUSH2 0x2D72 JUMP JUMPDEST SWAP4 POP PUSH1 0x80 DUP8 ADD MLOAD SWAP2 POP DUP1 DUP7 DUP6 SUB ADD PUSH1 0xA0 DUP8 ADD MSTORE PUSH2 0x2E85 DUP5 DUP4 PUSH2 0x2D9E JUMP JUMPDEST SWAP4 POP PUSH1 0xA0 DUP8 ADD MLOAD SWAP2 POP DUP1 DUP7 DUP6 SUB ADD PUSH1 0xC0 DUP8 ADD MSTORE PUSH2 0x2EA2 DUP5 DUP4 PUSH2 0x2D72 JUMP JUMPDEST SWAP4 POP PUSH1 0xC0 DUP8 ADD MLOAD SWAP2 POP DUP1 DUP7 DUP6 SUB ADD PUSH1 0xE0 DUP8 ADD MSTORE PUSH2 0x2EBF DUP5 DUP4 PUSH2 0x2D72 JUMP JUMPDEST SWAP4 POP PUSH1 0xE0 DUP8 ADD MLOAD SWAP2 POP PUSH2 0x100 DUP3 DUP2 DUP9 ADD MSTORE DUP1 DUP9 ADD MLOAD SWAP3 POP POP PUSH2 0x120 DUP2 DUP8 DUP7 SUB ADD DUP2 DUP9 ADD MSTORE PUSH2 0x2EED DUP6 DUP5 PUSH2 0x2D72 JUMP JUMPDEST SWAP5 POP DUP1 DUP9 ADD MLOAD SWAP3 POP POP POP PUSH2 0x140 PUSH2 0x2F07 DUP2 DUP8 ADD DUP4 ISZERO ISZERO SWAP1 MSTORE JUMP JUMPDEST DUP7 ADD MLOAD SWAP1 POP PUSH2 0x160 PUSH2 0x2F1C DUP7 DUP3 ADD DUP4 ISZERO ISZERO SWAP1 MSTORE JUMP JUMPDEST SWAP6 SWAP1 SWAP6 ADD MLOAD SWAP4 ADD SWAP3 SWAP1 SWAP3 MSTORE POP SWAP2 SWAP1 POP JUMP JUMPDEST PUSH1 0x0 DUP1 PUSH1 0x0 DUP1 PUSH1 0x80 DUP6 DUP8 SUB SLT ISZERO PUSH2 0x2F43 JUMPI PUSH1 0x0 DUP1 REVERT JUMPDEST DUP5 CALLDATALOAD PUSH8 0xFFFFFFFFFFFFFFFF DUP1 DUP3 GT ISZERO PUSH2 0x2F5B JUMPI PUSH1 0x0 DUP1 REVERT JUMPDEST PUSH2 0x2F67 DUP9 DUP4 DUP10 ADD PUSH2 0x29B5 JUMP JUMPDEST SWAP6 POP PUSH1 0x20 DUP8 ADD CALLDATALOAD SWAP5 POP PUSH1 0x40 DUP8 ADD CALLDATALOAD SWAP2 POP DUP1 DUP3 GT ISZERO PUSH2 0x2F84 JUMPI PUSH1 0x0 DUP1 REVERT JUMPDEST PUSH2 0x2F90 DUP9 DUP4 DUP10 ADD PUSH2 0x29B5 JUMP JUMPDEST SWAP4 POP PUSH1 0x60 DUP8 ADD CALLDATALOAD SWAP2 POP DUP1 DUP3 GT ISZERO PUSH2 0x2FA6 JUMPI PUSH1 0x0 DUP1 REVERT JUMPDEST POP PUSH2 0x2FB3 DUP8 DUP3 DUP9 ADD PUSH2 0x29B5 JUMP JUMPDEST SWAP2 POP POP SWAP3 SWAP6 SWAP2 SWAP5 POP SWAP3 POP JUMP JUMPDEST DUP1 CALLDATALOAD DUP1 ISZERO ISZERO DUP2 EQ PUSH2 0x2FCF JUMPI PUSH1 0x0 DUP1 REVERT JUMPDEST SWAP2 SWAP1 POP JUMP JUMPDEST PUSH1 0x0 DUP1 PUSH1 0x0 DUP1 PUSH1 0x0 DUP1 PUSH1 0x0 DUP1 PUSH1 0x0 PUSH2 0x120 DUP11 DUP13 SUB SLT ISZERO PUSH2 0x2FF3 JUMPI PUSH1 0x0 DUP1 REVERT JUMPDEST DUP10 CALLDATALOAD PUSH8 0xFFFFFFFFFFFFFFFF DUP1 DUP3 GT ISZERO PUSH2 0x300B JUMPI PUSH1 0x0 DUP1 REVERT JUMPDEST PUSH2 0x3017 DUP14 DUP4 DUP15 ADD PUSH2 0x29B5 JUMP JUMPDEST SWAP11 POP PUSH1 0x20 DUP13 ADD CALLDATALOAD SWAP2 POP DUP1 DUP3 GT ISZERO PUSH2 0x302D JUMPI PUSH1 0x0 DUP1 REVERT JUMPDEST PUSH2 0x3039 DUP14 DUP4 DUP15 ADD PUSH2 0x29B5 JUMP JUMPDEST SWAP10 POP PUSH1 0x40 DUP13 ADD CALLDATALOAD SWAP9 POP PUSH1 0x60 DUP13 ADD CALLDATALOAD SWAP2 POP DUP1 DUP3 GT ISZERO PUSH2 0x3056 JUMPI PUSH1 0x0 DUP1 REVERT JUMPDEST PUSH2 0x3062 DUP14 DUP4 DUP15 ADD PUSH2 0x29B5 JUMP JUMPDEST SWAP8 POP PUSH1 0x80 DUP13 ADD CALLDATALOAD SWAP2 POP DUP1 DUP3 GT ISZERO PUSH2 0x3078 JUMPI PUSH1 0x0 DUP1 REVERT JUMPDEST PUSH2 0x3084 DUP14 DUP4 DUP15 ADD PUSH2 0x29B5 JUMP JUMPDEST SWAP7 POP PUSH1 0xA0 DUP13 ADD CALLDATALOAD SWAP2 POP DUP1 DUP3 GT ISZERO PUSH2 0x309A JUMPI PUSH1 0x0 DUP1 REVERT JUMPDEST PUSH2 0x30A6 DUP14 DUP4 DUP15 ADD PUSH2 0x29B5 JUMP JUMPDEST SWAP6 POP PUSH1 0xC0 DUP13 ADD CALLDATALOAD SWAP2 POP DUP1 DUP3 GT ISZERO PUSH2 0x30BC JUMPI PUSH1 0x0 DUP1 REVERT JUMPDEST POP PUSH2 0x30C9 DUP13 DUP3 DUP14 ADD PUSH2 0x29B5 JUMP JUMPDEST SWAP4 POP POP PUSH2 0x30D8 PUSH1 0xE0 DUP12 ADD PUSH2 0x2FBF JUMP JUMPDEST SWAP2 POP PUSH2 0x100 DUP11 ADD CALLDATALOAD SWAP1 POP SWAP3 SWAP6 SWAP9 POP SWAP3 SWAP6 SWAP9 POP SWAP3 SWAP6 SWAP9 JUMP JUMPDEST PUSH4 0x4E487B71 PUSH1 0xE0 SHL PUSH1 0x0 MSTORE PUSH1 0x21 PUSH1 0x4 MSTORE PUSH1 0x24 PUSH1 0x0 REVERT JUMPDEST PUSH1 0xA DUP2 LT PUSH2 0x3123 JUMPI PUSH4 0x4E487B71 PUSH1 0xE0 SHL PUSH1 0x0 MSTORE PUSH1 0x21 PUSH1 0x4 MSTORE PUSH1 0x24 PUSH1 0x0 REVERT JUMPDEST SWAP1 MSTORE JUMP JUMPDEST DUP1 MLOAD ISZERO ISZERO DUP3 MSTORE PUSH1 0x0 PUSH1 0x20 DUP3 ADD MLOAD PUSH1 0xC0 PUSH1 0x20 DUP6 ADD MSTORE PUSH2 0x3148 PUSH1 0xC0 DUP6 ADD DUP3 PUSH2 0x2D72 JUMP JUMPDEST SWAP1 POP PUSH1 0x40 DUP4 ADD MLOAD DUP5 DUP3 SUB PUSH1 0x40 DUP7 ADD MSTORE PUSH2 0x3161 DUP3 DUP3 PUSH2 0x2D72 JUMP JUMPDEST PUSH1 0x60 DUP6 DUP2 ADD MLOAD PUSH1 0x1 PUSH1 0x1 PUSH1 0xA0 SHL SUB AND SWAP1 DUP8 ADD MSTORE PUSH1 0x80 DUP1 DUP7 ADD MLOAD SWAP1 DUP8 ADD MSTORE PUSH1 0xA0 SWAP5 DUP6 ADD MLOAD SWAP6 SWAP1 SWAP5 ADD SWAP5 SWAP1 SWAP5 MSTORE POP SWAP1 SWAP3 SWAP2 POP POP JUMP JUMPDEST PUSH1 0x1 DUP1 PUSH1 0xA0 SHL SUB DUP2 MLOAD AND DUP3 MSTORE PUSH1 0x20 DUP2 ADD MLOAD PUSH1 0x20 DUP4 ADD MSTORE PUSH1 0x0 PUSH1 0x40 DUP3 ADD MLOAD PUSH1 0x80 PUSH1 0x40 DUP6 ADD MSTORE PUSH2 0x31C5 PUSH1 0x80 DUP6 ADD DUP3 PUSH2 0x2D72 JUMP JUMPDEST SWAP1 POP PUSH1 0x60 DUP4 ADD MLOAD DUP5 DUP3 SUB PUSH1 0x60 DUP7 ADD MSTORE PUSH2 0x31DE DUP3 DUP3 PUSH2 0x2D72 JUMP JUMPDEST SWAP6 SWAP5 POP POP POP POP POP JUMP JUMPDEST PUSH1 0x1 DUP1 PUSH1 0xA0 SHL SUB DUP2 MLOAD AND DUP3 MSTORE PUSH1 0x20 DUP2 ADD MLOAD PUSH1 0x20 DUP4 ADD MSTORE PUSH1 0x0 PUSH1 0x40 DUP3 ADD MLOAD PUSH1 0x60 PUSH1 0x40 DUP6 ADD MSTORE PUSH2 0x2ABE PUSH1 0x60 DUP6 ADD DUP3 PUSH2 0x2D72 JUMP JUMPDEST DUP1 MLOAD DUP3 MSTORE PUSH1 0x0 PUSH1 0x20 DUP3 ADD MLOAD PUSH1 0xA0 PUSH1 0x20 DUP6 ADD MSTORE PUSH2 0x3237 PUSH1 0xA0 DUP6 ADD DUP3 PUSH2 0x2D72 JUMP JUMPDEST SWAP1 POP PUSH1 0x1 DUP1 PUSH1 0xA0 SHL SUB PUSH1 0x40 DUP5 ADD MLOAD AND PUSH1 0x40 DUP6 ADD MSTORE PUSH1 0x60 DUP4 ADD MLOAD PUSH1 0x60 DUP6 ADD MSTORE PUSH1 0x80 DUP4 ADD MLOAD DUP5 DUP3 SUB PUSH1 0x80 DUP7 ADD MSTORE PUSH2 0x31DE DUP3 DUP3 PUSH2 0x2D72 JUMP JUMPDEST PUSH1 0x20 DUP2 MSTORE PUSH1 0x0 DUP3 MLOAD PUSH2 0x280 DUP1 PUSH1 0x20 DUP6 ADD MSTORE PUSH2 0x328B PUSH2 0x2A0 DUP6 ADD DUP4 PUSH2 0x2D72 JUMP JUMPDEST SWAP2 POP PUSH1 0x20 DUP6 ADD MLOAD PUSH2 0x32A7 PUSH1 0x40 DUP7 ADD DUP3 PUSH1 0x1 PUSH1 0x1 PUSH1 0xA0 SHL SUB AND SWAP1 MSTORE JUMP JUMPDEST POP PUSH1 0x40 DUP6 ADD MLOAD PUSH1 0x1F NOT DUP1 DUP7 DUP6 SUB ADD PUSH1 0x60 DUP8 ADD MSTORE PUSH2 0x32C4 DUP5 DUP4 PUSH2 0x2D72 JUMP JUMPDEST SWAP4 POP PUSH1 0x60 DUP8 ADD MLOAD PUSH1 0x80 DUP8 ADD MSTORE PUSH1 0x80 DUP8 ADD MLOAD SWAP2 POP DUP1 DUP7 DUP6 SUB ADD PUSH1 0xA0 DUP8 ADD MSTORE PUSH2 0x32EB DUP5 DUP4 PUSH2 0x2D72 JUMP JUMPDEST SWAP4 POP PUSH1 0xA0 DUP8 ADD MLOAD SWAP2 POP DUP1 DUP7 DUP6 SUB ADD PUSH1 0xC0 DUP8 ADD MSTORE PUSH2 0x3308 DUP5 DUP4 PUSH2 0x2D72 JUMP JUMPDEST SWAP4 POP PUSH1 0xC0 DUP8 ADD MLOAD SWAP2 POP DUP1 DUP7 DUP6 SUB ADD PUSH1 0xE0 DUP8 ADD MSTORE PUSH2 0x3325 DUP5 DUP4 PUSH2 0x2D72 JUMP JUMPDEST SWAP4 POP PUSH1 0xE0 DUP8 ADD MLOAD SWAP2 POP PUSH2 0x100 DUP2 DUP8 DUP7 SUB ADD DUP2 DUP9 ADD MSTORE PUSH2 0x3344 DUP6 DUP5 PUSH2 0x2D72 JUMP JUMPDEST SWAP5 POP DUP1 DUP9 ADD MLOAD SWAP3 POP POP PUSH2 0x120 PUSH2 0x3372 DUP2 DUP9 ADD DUP5 DUP1 MLOAD ISZERO ISZERO DUP3 MSTORE PUSH1 0x20 DUP1 DUP3 ADD MLOAD SWAP1 DUP4 ADD MSTORE PUSH1 0x40 SWAP1 DUP2 ADD MLOAD SWAP2 ADD MSTORE JUMP JUMPDEST DUP8 ADD MLOAD SWAP2 POP PUSH2 0x180 PUSH2 0x3386 DUP8 DUP3 ADD DUP5 PUSH2 0x3105 JUMP JUMPDEST PUSH2 0x140 DUP9 ADD MLOAD SWAP3 POP PUSH2 0x1A0 DUP3 DUP9 DUP8 SUB ADD DUP2 DUP10 ADD MSTORE PUSH2 0x33A4 DUP7 DUP6 PUSH2 0x3127 JUMP JUMPDEST SWAP6 POP PUSH2 0x160 DUP10 ADD MLOAD SWAP4 POP PUSH2 0x1C0 DUP4 DUP10 DUP9 SUB ADD DUP2 DUP11 ADD MSTORE PUSH2 0x33C4 DUP8 DUP7 PUSH2 0x3194 JUMP JUMPDEST SWAP7 POP DUP3 DUP11 ADD MLOAD SWAP5 POP PUSH2 0x1E0 SWAP3 POP DUP4 DUP10 DUP9 SUB ADD DUP4 DUP11 ADD MSTORE PUSH2 0x33E4 DUP8 DUP7 PUSH2 0x31E7 JUMP JUMPDEST SWAP7 POP DUP2 DUP11 ADD MLOAD SWAP5 POP PUSH2 0x200 SWAP2 POP PUSH2 0x33FE DUP3 DUP11 ADD DUP7 ISZERO ISZERO SWAP1 MSTORE JUMP JUMPDEST DUP1 DUP11 ADD MLOAD SWAP5 POP POP PUSH2 0x220 DUP4 DUP10 DUP9 SUB ADD DUP2 DUP11 ADD MSTORE PUSH2 0x341B DUP8 DUP7 PUSH2 0x3218 JUMP JUMPDEST SWAP7 POP DUP3 DUP11 ADD MLOAD SWAP5 POP DUP4 DUP10 DUP9 SUB ADD PUSH2 0x240 DUP11 ADD MSTORE PUSH2 0x3438 DUP8 DUP7 PUSH2 0x2D72 JUMP JUMPDEST SWAP2 DUP11 ADD MLOAD PUSH2 0x260 DUP11 ADD MSTORE SWAP1 SWAP9 ADD MLOAD SWAP4 SWAP1 SWAP7 ADD SWAP3 SWAP1 SWAP3 MSTORE POP SWAP4 SWAP5 SWAP4 POP POP POP POP JUMP JUMPDEST PUSH1 0x0 DUP1 PUSH1 0x0 DUP1 PUSH1 0x80 DUP6 DUP8 SUB SLT ISZERO PUSH2 0x346E JUMPI PUSH1 0x0 DUP1 REVERT JUMPDEST DUP5 CALLDATALOAD PUSH8 0xFFFFFFFFFFFFFFFF DUP1 DUP3 GT ISZERO PUSH2 0x3486 JUMPI PUSH1 0x0 DUP1 REVERT JUMPDEST PUSH2 0x3492 DUP9 DUP4 DUP10 ADD PUSH2 0x29B5 JUMP JUMPDEST SWAP6 POP PUSH2 0x34A0 PUSH1 0x20 DUP9 ADD PUSH2 0x2FBF JUMP JUMPDEST SWAP5 POP PUSH1 0x40 DUP8 ADD CALLDATALOAD SWAP2 POP DUP1 DUP3 GT ISZERO PUSH2 0x2F84 JUMPI PUSH1 0x0 DUP1 REVERT JUMPDEST PUSH1 0x0 DUP3 MLOAD PUSH2 0x34C8 DUP2 DUP5 PUSH1 0x20 DUP8 ADD PUSH2 0x2D4E JUMP JUMPDEST SWAP2 SWAP1 SWAP2 ADD SWAP3 SWAP2 POP POP JUMP JUMPDEST PUSH1 0x20 DUP1 DUP3 MSTORE PUSH1 0x14 SWAP1 DUP3 ADD MSTORE PUSH20 0x10985D18DA08191BD95CC81B9BDD08195E1A5CDD PUSH1 0x62 SHL PUSH1 0x40 DUP3 ADD MSTORE PUSH1 0x60 ADD SWAP1 JUMP JUMPDEST PUSH1 0x1 DUP2 DUP2 SHR SWAP1 DUP3 AND DUP1 PUSH2 0x3514 JUMPI PUSH1 0x7F DUP3 AND SWAP2 POP JUMPDEST PUSH1 0x20 DUP3 LT DUP2 SUB PUSH2 0x3534 JUMPI PUSH4 0x4E487B71 PUSH1 0xE0 SHL PUSH1 0x0 MSTORE PUSH1 0x22 PUSH1 0x4 MSTORE PUSH1 0x24 PUSH1 0x0 REVERT JUMPDEST POP SWAP2 SWAP1 POP JUMP JUMPDEST PUSH1 0x1F DUP3 GT ISZERO PUSH2 0x51B JUMPI PUSH1 0x0 DUP2 DUP2 MSTORE PUSH1 0x20 DUP2 KECCAK256 PUSH1 0x1F DUP6 ADD PUSH1 0x5 SHR DUP2 ADD PUSH1 0x20 DUP7 LT ISZERO PUSH2 0x3561 JUMPI POP DUP1 JUMPDEST PUSH1 0x1F DUP6 ADD PUSH1 0x5 SHR DUP3 ADD SWAP2 POP JUMPDEST DUP2 DUP2 LT ISZERO PUSH2 0x3580 JUMPI DUP3 DUP2 SSTORE PUSH1 0x1 ADD PUSH2 0x356D JUMP JUMPDEST POP POP POP POP POP POP JUMP JUMPDEST DUP2 MLOAD PUSH8 0xFFFFFFFFFFFFFFFF DUP2 GT ISZERO PUSH2 0x35A2 JUMPI PUSH2 0x35A2 PUSH2 0x296E JUMP JUMPDEST PUSH2 0x35B6 DUP2 PUSH2 0x35B0 DUP5 SLOAD PUSH2 0x3500 JUMP JUMPDEST DUP5 PUSH2 0x353A JUMP JUMPDEST PUSH1 0x20 DUP1 PUSH1 0x1F DUP4 GT PUSH1 0x1 DUP2 EQ PUSH2 0x35EB JUMPI PUSH1 0x0 DUP5 ISZERO PUSH2 0x35D3 JUMPI POP DUP6 DUP4 ADD MLOAD JUMPDEST PUSH1 0x0 NOT PUSH1 0x3 DUP7 SWAP1 SHL SHR NOT AND PUSH1 0x1 DUP6 SWAP1 SHL OR DUP6 SSTORE PUSH2 0x3580 JUMP JUMPDEST PUSH1 0x0 DUP6 DUP2 MSTORE PUSH1 0x20 DUP2 KECCAK256 PUSH1 0x1F NOT DUP7 AND SWAP2 JUMPDEST DUP3 DUP2 LT ISZERO PUSH2 0x361A JUMPI DUP9 DUP7 ADD MLOAD DUP3 SSTORE SWAP5 DUP5 ADD SWAP5 PUSH1 0x1 SWAP1 SWAP2 ADD SWAP1 DUP5 ADD PUSH2 0x35FB JUMP JUMPDEST POP DUP6 DUP3 LT ISZERO PUSH2 0x3638 JUMPI DUP8 DUP6 ADD MLOAD PUSH1 0x0 NOT PUSH1 0x3 DUP9 SWAP1 SHL PUSH1 0xF8 AND SHR NOT AND DUP2 SSTORE JUMPDEST POP POP POP POP POP PUSH1 0x1 SWAP1 DUP2 SHL ADD SWAP1 SSTORE POP JUMP JUMPDEST PUSH1 0x20 DUP2 MSTORE PUSH1 0x0 PUSH2 0x365B PUSH1 0x20 DUP4 ADD DUP5 PUSH2 0x2D72 JUMP JUMPDEST SWAP4 SWAP3 POP POP POP JUMP JUMPDEST PUSH1 0x20 DUP1 DUP3 MSTORE PUSH1 0x22 SWAP1 DUP3 ADD MSTORE PUSH32 0x426F74616E694C65646765723A20556E617574686F72697A6564206163636F75 PUSH1 0x40 DUP3 ADD MSTORE PUSH2 0x1B9D PUSH1 0xF2 SHL PUSH1 0x60 DUP3 ADD MSTORE PUSH1 0x80 ADD SWAP1 JUMP JUMPDEST PUSH4 0x4E487B71 PUSH1 0xE0 SHL PUSH1 0x0 MSTORE PUSH1 0x32 PUSH1 0x4 MSTORE PUSH1 0x24 PUSH1 0x0 REVERT JUMPDEST PUSH4 0x4E487B71 PUSH1 0xE0 SHL PUSH1 0x0 MSTORE PUSH1 0x11 PUSH1 0x4 MSTORE PUSH1 0x24 PUSH1 0x0 REVERT JUMPDEST PUSH1 0x0 PUSH1 0x1 DUP3 ADD PUSH2 0x36E2 JUMPI PUSH2 0x36E2 PUSH2 0x36BA JUMP JUMPDEST POP PUSH1 0x1 ADD SWAP1 JUMP JUMPDEST DUP3 DUP2 MSTORE PUSH1 0x40 PUSH1 0x20 DUP3 ADD MSTORE PUSH1 0x0 PUSH2 0x2ABE PUSH1 0x40 DUP4 ADD DUP5 PUSH2 0x2D72 JUMP JUMPDEST DUP1 DUP3 ADD DUP1 DUP3 GT ISZERO PUSH2 0x3715 JUMPI PUSH2 0x3715 PUSH2 0x36BA JUMP JUMPDEST SWAP3 SWAP2 POP POP JUMP INVALID 0xEE 0xFB SWAP6 0xE8 TIMESTAMP LOG3 0x28 PUSH18 0x79D933B4460BE539A1D5AF11AA8B325BB45C 0x5C DUP14 0xC9 0x2D 0xE4 0xED PUSH12 0x476DB4B19B8E11AC475B323C CALLDATALOAD 0xB9 0xD0 CREATE2 0x28 BALANCE 0xCF SAR DUP13 CALL GASLIMIT JUMP SWAP3 0xD5 PUSH32 0xFBCCAAACA26469706673582212209A2BC9C419F0915B6464AE6CE708E9C06381 PUSH27 0x4E2950C014090D029B407F677664736F6C63430008130033000000 "},"methodIdentifiers":{"ADMIN_ROLE()":"75b238fc","FARMER_ROLE()":"f3943970","LAB_ROLE()":"bd3070c6","MANUFACTURER_ROLE()":"965288b0","confirmReceipt(string,string)":"e205bf8f","createProductBatch(string,string,string,string[],string,string,uint256,string)":"4b7446dd","dispatchBatch(string,string,string)":"80377fb2","getHerbBatch(string)":"ca18b7da","getProductBatch(string)":"8bce12a3","grantRole(bytes32,address)":"2f2ff15d","herbBatchExists(string)":"efdf77ac","productBatchExists(string)":"26e213fa","recallBatch(string,string)":"123ecac8","recordLabResult(string,bool,string,string)":"df02670a","recordSimilarityResult(string,uint256,string,string)":"bca7759a","registerBatch(string,string,uint256,string,string,string,string,bool,uint256)":"c81e5ffe","revokeRole(bytes32,address)":"d547741f","startLabTesting(string)":"71b74ab2"}}}}}